{
	"compilerInput": "{\"language\":\"Solidity\",\"sources\":{\"FlySkySafeSubscription.sol\":{\"content\":\"// SPDX-License-Identifier: MIT\\r\\npragma solidity ^0.8.19;\\r\\n\\r\\nimport \\\"@openzeppelin/contracts/access/Ownable.sol\\\";\\r\\nimport \\\"@openzeppelin/contracts/security/ReentrancyGuard.sol\\\";\\r\\nimport \\\"@openzeppelin/contracts/token/ERC20/IERC20.sol\\\";\\r\\n\\r\\ncontract FlySkySafeSubscription is Ownable, ReentrancyGuard {\\r\\n    IERC20 public immutable busdToken;\\r\\n\\r\\n    enum PlanType { None, BusinessMonthly, FirstSixMonths, FirstLifetime }\\r\\n\\r\\n    struct Subscription {\\r\\n        PlanType plan;\\r\\n        uint256 expiry;\\r\\n    }\\r\\n\\r\\n    mapping(address => Subscription) public subscriptions;\\r\\n\\r\\n    uint256 public priceBusinessMonthly = 10 * 10**18; // 10 BUSD\\r\\n    uint256 public priceFirstSixMonths = 49 * 10**18; // 49 BUSD\\r\\n    uint256 public priceFirstLifetime = 99 * 10**18; // 99 BUSD\\r\\n\\r\\n    event Subscribed(address indexed user, PlanType plan, uint256 expiry);\\r\\n    event PricesUpdated(uint256 newBusinessMonthly, uint256 newFirstSixMonths, uint256 newFirstLifetime);\\r\\n    event FundsWithdrawn(address indexed owner, uint256 amount);\\r\\n\\r\\n    constructor(address _busdToken, address _initialOwner) Ownable(_initialOwner) {\\r\\n        require(_busdToken != address(0), \\\"Invalid BUSD address\\\");\\r\\n        busdToken = IERC20(_busdToken);\\r\\n    }\\r\\n\\r\\n    function subscribe(PlanType plan) external nonReentrant {\\r\\n        require(plan != PlanType.None, \\\"Invalid plan\\\");\\r\\n\\r\\n        Subscription storage userSub = subscriptions[msg.sender];\\r\\n        require(userSub.plan == PlanType.None || block.timestamp >= userSub.expiry, \\\"Existing active subscription\\\");\\r\\n\\r\\n        uint256 price;\\r\\n        uint256 duration;\\r\\n\\r\\n        if (plan == PlanType.BusinessMonthly) {\\r\\n            price = priceBusinessMonthly;\\r\\n            duration = 30 days;\\r\\n        } else if (plan == PlanType.FirstSixMonths) {\\r\\n            price = priceFirstSixMonths;\\r\\n            duration = 180 days;\\r\\n        } else if (plan == PlanType.FirstLifetime) {\\r\\n            price = priceFirstLifetime;\\r\\n            duration = type(uint256).max;\\r\\n        }\\r\\n\\r\\n        require(busdToken.transferFrom(msg.sender, address(this), price), \\\"Payment failed\\\");\\r\\n\\r\\n        uint256 expiry = plan == PlanType.FirstLifetime ? type(uint256).max : block.timestamp + duration;\\r\\n        subscriptions[msg.sender] = Subscription(plan, expiry);\\r\\n\\r\\n        emit Subscribed(msg.sender, plan, expiry);\\r\\n    }\\r\\n\\r\\n    function updatePrices(uint256 newBusinessMonthly, uint256 newFirstSixMonths, uint256 newFirstLifetime) external onlyOwner {\\r\\n        priceBusinessMonthly = newBusinessMonthly;\\r\\n        priceFirstSixMonths = newFirstSixMonths;\\r\\n        priceFirstLifetime = newFirstLifetime;\\r\\n\\r\\n        emit PricesUpdated(newBusinessMonthly, newFirstSixMonths, newFirstLifetime);\\r\\n    }\\r\\n\\r\\n    function withdrawFunds(uint256 amount) external onlyOwner nonReentrant {\\r\\n        require(busdToken.balanceOf(address(this)) >= amount, \\\"Insufficient contract balance\\\");\\r\\n        require(busdToken.transfer(msg.sender, amount), \\\"Withdrawal failed\\\");\\r\\n\\r\\n        emit FundsWithdrawn(msg.sender, amount);\\r\\n    }\\r\\n\\r\\n    function getUserSubscription(address user) external view returns (PlanType plan, uint256 expiry) {\\r\\n        Subscription memory sub = subscriptions[user];\\r\\n        return (sub.plan, sub.expiry);\\r\\n    }\\r\\n}\\r\\n\"},\"@openzeppelin/contracts/token/ERC20/IERC20.sol\":{\"content\":\"// SPDX-License-Identifier: MIT\\n// OpenZeppelin Contracts (last updated v5.1.0) (token/ERC20/IERC20.sol)\\n\\npragma solidity ^0.8.20;\\n\\n/**\\n * @dev Interface of the ERC-20 standard as defined in the ERC.\\n */\\ninterface IERC20 {\\n    /**\\n     * @dev Emitted when `value` tokens are moved from one account (`from`) to\\n     * another (`to`).\\n     *\\n     * Note that `value` may be zero.\\n     */\\n    event Transfer(address indexed from, address indexed to, uint256 value);\\n\\n    /**\\n     * @dev Emitted when the allowance of a `spender` for an `owner` is set by\\n     * a call to {approve}. `value` is the new allowance.\\n     */\\n    event Approval(address indexed owner, address indexed spender, uint256 value);\\n\\n    /**\\n     * @dev Returns the value of tokens in existence.\\n     */\\n    function totalSupply() external view returns (uint256);\\n\\n    /**\\n     * @dev Returns the value of tokens owned by `account`.\\n     */\\n    function balanceOf(address account) external view returns (uint256);\\n\\n    /**\\n     * @dev Moves a `value` amount of tokens from the caller's account to `to`.\\n     *\\n     * Returns a boolean value indicating whether the operation succeeded.\\n     *\\n     * Emits a {Transfer} event.\\n     */\\n    function transfer(address to, uint256 value) external returns (bool);\\n\\n    /**\\n     * @dev Returns the remaining number of tokens that `spender` will be\\n     * allowed to spend on behalf of `owner` through {transferFrom}. This is\\n     * zero by default.\\n     *\\n     * This value changes when {approve} or {transferFrom} are called.\\n     */\\n    function allowance(address owner, address spender) external view returns (uint256);\\n\\n    /**\\n     * @dev Sets a `value` amount of tokens as the allowance of `spender` over the\\n     * caller's tokens.\\n     *\\n     * Returns a boolean value indicating whether the operation succeeded.\\n     *\\n     * IMPORTANT: Beware that changing an allowance with this method brings the risk\\n     * that someone may use both the old and the new allowance by unfortunate\\n     * transaction ordering. One possible solution to mitigate this race\\n     * condition is to first reduce the spender's allowance to 0 and set the\\n     * desired value afterwards:\\n     * https://github.com/ethereum/EIPs/issues/20#issuecomment-263524729\\n     *\\n     * Emits an {Approval} event.\\n     */\\n    function approve(address spender, uint256 value) external returns (bool);\\n\\n    /**\\n     * @dev Moves a `value` amount of tokens from `from` to `to` using the\\n     * allowance mechanism. `value` is then deducted from the caller's\\n     * allowance.\\n     *\\n     * Returns a boolean value indicating whether the operation succeeded.\\n     *\\n     * Emits a {Transfer} event.\\n     */\\n    function transferFrom(address from, address to, uint256 value) external returns (bool);\\n}\\n\"},\"@openzeppelin/contracts/security/ReentrancyGuard.sol\":{\"content\":\"// SPDX-License-Identifier: MIT\\n// OpenZeppelin Contracts (last updated v4.9.0) (security/ReentrancyGuard.sol)\\n\\npragma solidity ^0.8.0;\\n\\n/**\\n * @dev Contract module that helps prevent reentrant calls to a function.\\n *\\n * Inheriting from `ReentrancyGuard` will make the {nonReentrant} modifier\\n * available, which can be applied to functions to make sure there are no nested\\n * (reentrant) calls to them.\\n *\\n * Note that because there is a single `nonReentrant` guard, functions marked as\\n * `nonReentrant` may not call one another. This can be worked around by making\\n * those functions `private`, and then adding `external` `nonReentrant` entry\\n * points to them.\\n *\\n * TIP: If you would like to learn more about reentrancy and alternative ways\\n * to protect against it, check out our blog post\\n * https://blog.openzeppelin.com/reentrancy-after-istanbul/[Reentrancy After Istanbul].\\n */\\nabstract contract ReentrancyGuard {\\n    // Booleans are more expensive than uint256 or any type that takes up a full\\n    // word because each write operation emits an extra SLOAD to first read the\\n    // slot's contents, replace the bits taken up by the boolean, and then write\\n    // back. This is the compiler's defense against contract upgrades and\\n    // pointer aliasing, and it cannot be disabled.\\n\\n    // The values being non-zero value makes deployment a bit more expensive,\\n    // but in exchange the refund on every call to nonReentrant will be lower in\\n    // amount. Since refunds are capped to a percentage of the total\\n    // transaction's gas, it is best to keep them low in cases like this one, to\\n    // increase the likelihood of the full refund coming into effect.\\n    uint256 private constant _NOT_ENTERED = 1;\\n    uint256 private constant _ENTERED = 2;\\n\\n    uint256 private _status;\\n\\n    constructor() {\\n        _status = _NOT_ENTERED;\\n    }\\n\\n    /**\\n     * @dev Prevents a contract from calling itself, directly or indirectly.\\n     * Calling a `nonReentrant` function from another `nonReentrant`\\n     * function is not supported. It is possible to prevent this from happening\\n     * by making the `nonReentrant` function external, and making it call a\\n     * `private` function that does the actual work.\\n     */\\n    modifier nonReentrant() {\\n        _nonReentrantBefore();\\n        _;\\n        _nonReentrantAfter();\\n    }\\n\\n    function _nonReentrantBefore() private {\\n        // On the first call to nonReentrant, _status will be _NOT_ENTERED\\n        require(_status != _ENTERED, \\\"ReentrancyGuard: reentrant call\\\");\\n\\n        // Any calls to nonReentrant after this point will fail\\n        _status = _ENTERED;\\n    }\\n\\n    function _nonReentrantAfter() private {\\n        // By storing the original value once again, a refund is triggered (see\\n        // https://eips.ethereum.org/EIPS/eip-2200)\\n        _status = _NOT_ENTERED;\\n    }\\n\\n    /**\\n     * @dev Returns true if the reentrancy guard is currently set to \\\"entered\\\", which indicates there is a\\n     * `nonReentrant` function in the call stack.\\n     */\\n    function _reentrancyGuardEntered() internal view returns (bool) {\\n        return _status == _ENTERED;\\n    }\\n}\\n\"},\"@openzeppelin/contracts/access/Ownable.sol\":{\"content\":\"// SPDX-License-Identifier: MIT\\n// OpenZeppelin Contracts (last updated v5.0.0) (access/Ownable.sol)\\n\\npragma solidity ^0.8.20;\\n\\nimport {Context} from \\\"../utils/Context.sol\\\";\\n\\n/**\\n * @dev Contract module which provides a basic access control mechanism, where\\n * there is an account (an owner) that can be granted exclusive access to\\n * specific functions.\\n *\\n * The initial owner is set to the address provided by the deployer. This can\\n * later be changed with {transferOwnership}.\\n *\\n * This module is used through inheritance. It will make available the modifier\\n * `onlyOwner`, which can be applied to your functions to restrict their use to\\n * the owner.\\n */\\nabstract contract Ownable is Context {\\n    address private _owner;\\n\\n    /**\\n     * @dev The caller account is not authorized to perform an operation.\\n     */\\n    error OwnableUnauthorizedAccount(address account);\\n\\n    /**\\n     * @dev The owner is not a valid owner account. (eg. `address(0)`)\\n     */\\n    error OwnableInvalidOwner(address owner);\\n\\n    event OwnershipTransferred(address indexed previousOwner, address indexed newOwner);\\n\\n    /**\\n     * @dev Initializes the contract setting the address provided by the deployer as the initial owner.\\n     */\\n    constructor(address initialOwner) {\\n        if (initialOwner == address(0)) {\\n            revert OwnableInvalidOwner(address(0));\\n        }\\n        _transferOwnership(initialOwner);\\n    }\\n\\n    /**\\n     * @dev Throws if called by any account other than the owner.\\n     */\\n    modifier onlyOwner() {\\n        _checkOwner();\\n        _;\\n    }\\n\\n    /**\\n     * @dev Returns the address of the current owner.\\n     */\\n    function owner() public view virtual returns (address) {\\n        return _owner;\\n    }\\n\\n    /**\\n     * @dev Throws if the sender is not the owner.\\n     */\\n    function _checkOwner() internal view virtual {\\n        if (owner() != _msgSender()) {\\n            revert OwnableUnauthorizedAccount(_msgSender());\\n        }\\n    }\\n\\n    /**\\n     * @dev Leaves the contract without owner. It will not be possible to call\\n     * `onlyOwner` functions. Can only be called by the current owner.\\n     *\\n     * NOTE: Renouncing ownership will leave the contract without an owner,\\n     * thereby disabling any functionality that is only available to the owner.\\n     */\\n    function renounceOwnership() public virtual onlyOwner {\\n        _transferOwnership(address(0));\\n    }\\n\\n    /**\\n     * @dev Transfers ownership of the contract to a new account (`newOwner`).\\n     * Can only be called by the current owner.\\n     */\\n    function transferOwnership(address newOwner) public virtual onlyOwner {\\n        if (newOwner == address(0)) {\\n            revert OwnableInvalidOwner(address(0));\\n        }\\n        _transferOwnership(newOwner);\\n    }\\n\\n    /**\\n     * @dev Transfers ownership of the contract to a new account (`newOwner`).\\n     * Internal function without access restriction.\\n     */\\n    function _transferOwnership(address newOwner) internal virtual {\\n        address oldOwner = _owner;\\n        _owner = newOwner;\\n        emit OwnershipTransferred(oldOwner, newOwner);\\n    }\\n}\\n\"},\"@openzeppelin/contracts/utils/Context.sol\":{\"content\":\"// SPDX-License-Identifier: MIT\\n// OpenZeppelin Contracts (last updated v5.0.1) (utils/Context.sol)\\n\\npragma solidity ^0.8.20;\\n\\n/**\\n * @dev Provides information about the current execution context, including the\\n * sender of the transaction and its data. While these are generally available\\n * via msg.sender and msg.data, they should not be accessed in such a direct\\n * manner, since when dealing with meta-transactions the account sending and\\n * paying for execution may not be the actual sender (as far as an application\\n * is concerned).\\n *\\n * This contract is only required for intermediate, library-like contracts.\\n */\\nabstract contract Context {\\n    function _msgSender() internal view virtual returns (address) {\\n        return msg.sender;\\n    }\\n\\n    function _msgData() internal view virtual returns (bytes calldata) {\\n        return msg.data;\\n    }\\n\\n    function _contextSuffixLength() internal view virtual returns (uint256) {\\n        return 0;\\n    }\\n}\\n\"}},\"settings\":{\"optimizer\":{\"enabled\":false,\"runs\":200},\"outputSelection\":{\"*\":{\"\":[\"ast\"],\"*\":[\"abi\",\"metadata\",\"devdoc\",\"userdoc\",\"storageLayout\",\"evm.legacyAssembly\",\"evm.bytecode\",\"evm.deployedBytecode\",\"evm.methodIdentifiers\",\"evm.gasEstimates\",\"evm.assembly\"]}},\"remappings\":[]}}",
	"name": "FlySkySafeSubscription",
	"bytecode": {
		"linkReferences": {},
		"object": "60a0604052678ac7230489e800006003556802a802f8630a24000060045568055de6a779bbac0000600555348015610035575f80fd5b50604051611723380380611723833981810160405281019061005791906102a7565b805f73ffffffffffffffffffffffffffffffffffffffff168173ffffffffffffffffffffffffffffffffffffffff16036100c8575f6040517f1e4fbdf70000000000000000000000000000000000000000000000000000000081526004016100bf91906102f4565b60405180910390fd5b6100d78161018860201b60201c565b50600180819055505f73ffffffffffffffffffffffffffffffffffffffff168273ffffffffffffffffffffffffffffffffffffffff160361014d576040517f08c379a000000000000000000000000000000000000000000000000000000000815260040161014490610367565b60405180910390fd5b8173ffffffffffffffffffffffffffffffffffffffff1660808173ffffffffffffffffffffffffffffffffffffffff16815250505050610385565b5f805f9054906101000a900473ffffffffffffffffffffffffffffffffffffffff169050815f806101000a81548173ffffffffffffffffffffffffffffffffffffffff021916908373ffffffffffffffffffffffffffffffffffffffff1602179055508173ffffffffffffffffffffffffffffffffffffffff168173ffffffffffffffffffffffffffffffffffffffff167f8be0079c531659141344cd1fd0a4f28419497f9722a3daafe3b4186f6b6457e060405160405180910390a35050565b5f80fd5b5f73ffffffffffffffffffffffffffffffffffffffff82169050919050565b5f6102768261024d565b9050919050565b6102868161026c565b8114610290575f80fd5b50565b5f815190506102a18161027d565b92915050565b5f80604083850312156102bd576102bc610249565b5b5f6102ca85828601610293565b92505060206102db85828601610293565b9150509250929050565b6102ee8161026c565b82525050565b5f6020820190506103075f8301846102e5565b92915050565b5f82825260208201905092915050565b7f496e76616c6964204255534420616464726573730000000000000000000000005f82015250565b5f61035160148361030d565b915061035c8261031d565b602082019050919050565b5f6020820190508181035f83015261037e81610345565b9050919050565b6080516113716103b25f395f818161023b01528181610314015281816106ac015261092601526113715ff3fe608060405234801561000f575f80fd5b50600436106100b2575f3560e01c8063a8fc30d41161006f578063a8fc30d414610150578063de0e70141461016e578063ebbeec081461018c578063effce0d4146101bd578063f046395a146101db578063f2fde38b1461020c576100b2565b8063155dd5ee146100b65780632210221a146100d25780633ed620a4146100f057806349c7e6391461010c578063715018a6146101285780638da5cb5b14610132575b5f80fd5b6100d060048036038101906100cb9190610c7f565b610228565b005b6100da610445565b6040516100e79190610cb9565b60405180910390f35b61010a60048036038101906101059190610cd2565b61044b565b005b61012660048036038101906101219190610d45565b6104a8565b005b6101306108e4565b005b61013a6108f7565b6040516101479190610daf565b60405180910390f35b61015861091e565b6040516101659190610cb9565b60405180910390f35b610176610924565b6040516101839190610e23565b60405180910390f35b6101a660048036038101906101a19190610e66565b610948565b6040516101b4929190610f04565b60405180910390f35b6101c56109eb565b6040516101d29190610cb9565b60405180910390f35b6101f560048036038101906101f09190610e66565b6109f1565b604051610203929190610f04565b60405180910390f35b61022660048036038101906102219190610e66565b610a1d565b005b610230610aa1565b610238610b28565b807f000000000000000000000000000000000000000000000000000000000000000073ffffffffffffffffffffffffffffffffffffffff166370a08231306040518263ffffffff1660e01b81526004016102929190610daf565b602060405180830381865afa1580156102ad573d5f803e3d5ffd5b505050506040513d601f19601f820116820180604052508101906102d19190610f3f565b1015610312576040517f08c379a000000000000000000000000000000000000000000000000000000000815260040161030990610fc4565b60405180910390fd5b7f000000000000000000000000000000000000000000000000000000000000000073ffffffffffffffffffffffffffffffffffffffff1663a9059cbb33836040518363ffffffff1660e01b815260040161036d929190610fe2565b6020604051808303815f875af1158015610389573d5f803e3d5ffd5b505050506040513d601f19601f820116820180604052508101906103ad919061103e565b6103ec576040517f08c379a00000000000000000000000000000000000000000000000000000000081526004016103e3906110b3565b60405180910390fd5b3373ffffffffffffffffffffffffffffffffffffffff167feaff4b37086828766ad3268786972c0cd24259d4c87a80f9d3963a3c3d999b0d826040516104329190610cb9565b60405180910390a2610442610b77565b50565b60035481565b610453610aa1565b8260038190555081600481905550806005819055507fa6b830b74e52d7d1140e76252f225dc7bed28782519845600bbd3182341dc11583838360405161049b939291906110d1565b60405180910390a1505050565b6104b0610b28565b5f60038111156104c3576104c2610e91565b5b8160038111156104d6576104d5610e91565b5b03610516576040517f08c379a000000000000000000000000000000000000000000000000000000000815260040161050d90611150565b60405180910390fd5b5f60025f3373ffffffffffffffffffffffffffffffffffffffff1673ffffffffffffffffffffffffffffffffffffffff1681526020019081526020015f2090505f600381111561056957610568610e91565b5b815f015f9054906101000a900460ff16600381111561058b5761058a610e91565b5b148061059b575080600101544210155b6105da576040517f08c379a00000000000000000000000000000000000000000000000000000000081526004016105d1906111b8565b60405180910390fd5b5f80600160038111156105f0576105ef610e91565b5b84600381111561060357610602610e91565b5b0361061857600354915062278d0090506106aa565b6002600381111561062c5761062b610e91565b5b84600381111561063f5761063e610e91565b5b0361065457600454915062ed4e0090506106a9565b60038081111561066757610666610e91565b5b84600381111561067a57610679610e91565b5b036106a85760055491507fffffffffffffffffffffffffffffffffffffffffffffffffffffffffffffffff90505b5b5b7f000000000000000000000000000000000000000000000000000000000000000073ffffffffffffffffffffffffffffffffffffffff166323b872dd3330856040518463ffffffff1660e01b8152600401610707939291906111d6565b6020604051808303815f875af1158015610723573d5f803e3d5ffd5b505050506040513d601f19601f82011682018060405250810190610747919061103e565b610786576040517f08c379a000000000000000000000000000000000000000000000000000000000815260040161077d90611255565b60405180910390fd5b5f60038081111561079a57610799610e91565b5b8560038111156107ad576107ac610e91565b5b146107c35781426107be91906112a0565b6107e5565b7fffffffffffffffffffffffffffffffffffffffffffffffffffffffffffffffff5b9050604051806040016040528086600381111561080557610804610e91565b5b81526020018281525060025f3373ffffffffffffffffffffffffffffffffffffffff1673ffffffffffffffffffffffffffffffffffffffff1681526020019081526020015f205f820151815f015f6101000a81548160ff0219169083600381111561087357610872610e91565b5b0217905550602082015181600101559050503373ffffffffffffffffffffffffffffffffffffffff167f044f95a2d17727b5b87e4f23d70278b59a2b0b285289cc9021cac8cdba4797b786836040516108cd929190610f04565b60405180910390a2505050506108e1610b77565b50565b6108ec610aa1565b6108f55f610b80565b565b5f805f9054906101000a900473ffffffffffffffffffffffffffffffffffffffff16905090565b60045481565b7f000000000000000000000000000000000000000000000000000000000000000081565b5f805f60025f8573ffffffffffffffffffffffffffffffffffffffff1673ffffffffffffffffffffffffffffffffffffffff1681526020019081526020015f206040518060400160405290815f82015f9054906101000a900460ff1660038111156109b6576109b5610e91565b5b60038111156109c8576109c7610e91565b5b81526020016001820154815250509050805f015181602001519250925050915091565b60055481565b6002602052805f5260405f205f91509050805f015f9054906101000a900460ff16908060010154905082565b610a25610aa1565b5f73ffffffffffffffffffffffffffffffffffffffff168173ffffffffffffffffffffffffffffffffffffffff1603610a95575f6040517f1e4fbdf7000000000000000000000000000000000000000000000000000000008152600401610a8c9190610daf565b60405180910390fd5b610a9e81610b80565b50565b610aa9610c41565b73ffffffffffffffffffffffffffffffffffffffff16610ac76108f7565b73ffffffffffffffffffffffffffffffffffffffff1614610b2657610aea610c41565b6040517f118cdaa7000000000000000000000000000000000000000000000000000000008152600401610b1d9190610daf565b60405180910390fd5b565b600260015403610b6d576040517f08c379a0000000000000000000000000000000000000000000000000000000008152600401610b649061131d565b60405180910390fd5b6002600181905550565b60018081905550565b5f805f9054906101000a900473ffffffffffffffffffffffffffffffffffffffff169050815f806101000a81548173ffffffffffffffffffffffffffffffffffffffff021916908373ffffffffffffffffffffffffffffffffffffffff1602179055508173ffffffffffffffffffffffffffffffffffffffff168173ffffffffffffffffffffffffffffffffffffffff167f8be0079c531659141344cd1fd0a4f28419497f9722a3daafe3b4186f6b6457e060405160405180910390a35050565b5f33905090565b5f80fd5b5f819050919050565b610c5e81610c4c565b8114610c68575f80fd5b50565b5f81359050610c7981610c55565b92915050565b5f60208284031215610c9457610c93610c48565b5b5f610ca184828501610c6b565b91505092915050565b610cb381610c4c565b82525050565b5f602082019050610ccc5f830184610caa565b92915050565b5f805f60608486031215610ce957610ce8610c48565b5b5f610cf686828701610c6b565b9350506020610d0786828701610c6b565b9250506040610d1886828701610c6b565b9150509250925092565b60048110610d2e575f80fd5b50565b5f81359050610d3f81610d22565b92915050565b5f60208284031215610d5a57610d59610c48565b5b5f610d6784828501610d31565b91505092915050565b5f73ffffffffffffffffffffffffffffffffffffffff82169050919050565b5f610d9982610d70565b9050919050565b610da981610d8f565b82525050565b5f602082019050610dc25f830184610da0565b92915050565b5f819050919050565b5f610deb610de6610de184610d70565b610dc8565b610d70565b9050919050565b5f610dfc82610dd1565b9050919050565b5f610e0d82610df2565b9050919050565b610e1d81610e03565b82525050565b5f602082019050610e365f830184610e14565b92915050565b610e4581610d8f565b8114610e4f575f80fd5b50565b5f81359050610e6081610e3c565b92915050565b5f60208284031215610e7b57610e7a610c48565b5b5f610e8884828501610e52565b91505092915050565b7f4e487b71000000000000000000000000000000000000000000000000000000005f52602160045260245ffd5b60048110610ecf57610ece610e91565b5b50565b5f819050610edf82610ebe565b919050565b5f610eee82610ed2565b9050919050565b610efe81610ee4565b82525050565b5f604082019050610f175f830185610ef5565b610f246020830184610caa565b9392505050565b5f81519050610f3981610c55565b92915050565b5f60208284031215610f5457610f53610c48565b5b5f610f6184828501610f2b565b91505092915050565b5f82825260208201905092915050565b7f496e73756666696369656e7420636f6e74726163742062616c616e63650000005f82015250565b5f610fae601d83610f6a565b9150610fb982610f7a565b602082019050919050565b5f6020820190508181035f830152610fdb81610fa2565b9050919050565b5f604082019050610ff55f830185610da0565b6110026020830184610caa565b9392505050565b5f8115159050919050565b61101d81611009565b8114611027575f80fd5b50565b5f8151905061103881611014565b92915050565b5f6020828403121561105357611052610c48565b5b5f6110608482850161102a565b91505092915050565b7f5769746864726177616c206661696c65640000000000000000000000000000005f82015250565b5f61109d601183610f6a565b91506110a882611069565b602082019050919050565b5f6020820190508181035f8301526110ca81611091565b9050919050565b5f6060820190506110e45f830186610caa565b6110f16020830185610caa565b6110fe6040830184610caa565b949350505050565b7f496e76616c696420706c616e00000000000000000000000000000000000000005f82015250565b5f61113a600c83610f6a565b915061114582611106565b602082019050919050565b5f6020820190508181035f8301526111678161112e565b9050919050565b7f4578697374696e672061637469766520737562736372697074696f6e000000005f82015250565b5f6111a2601c83610f6a565b91506111ad8261116e565b602082019050919050565b5f6020820190508181035f8301526111cf81611196565b9050919050565b5f6060820190506111e95f830186610da0565b6111f66020830185610da0565b6112036040830184610caa565b949350505050565b7f5061796d656e74206661696c65640000000000000000000000000000000000005f82015250565b5f61123f600e83610f6a565b915061124a8261120b565b602082019050919050565b5f6020820190508181035f83015261126c81611233565b9050919050565b7f4e487b71000000000000000000000000000000000000000000000000000000005f52601160045260245ffd5b5f6112aa82610c4c565b91506112b583610c4c565b92508282019050808211156112cd576112cc611273565b5b92915050565b7f5265656e7472616e637947756172643a207265656e7472616e742063616c6c005f82015250565b5f611307601f83610f6a565b9150611312826112d3565b602082019050919050565b5f6020820190508181035f830152611334816112fb565b905091905056fea26469706673582212208be9e1a538e97e103d809665a3d11ee43d6a5608b2545b5cb4a316a443908ff564736f6c634300081a0033",
		"opcodes": "PUSH1 0xA0 PUSH1 0x40 MSTORE PUSH8 0x8AC7230489E80000 PUSH1 0x3 SSTORE PUSH9 0x2A802F8630A240000 PUSH1 0x4 SSTORE PUSH9 0x55DE6A779BBAC0000 PUSH1 0x5 SSTORE CALLVALUE DUP1 ISZERO PUSH2 0x35 JUMPI PUSH0 DUP1 REVERT JUMPDEST POP PUSH1 0x40 MLOAD PUSH2 0x1723 CODESIZE SUB DUP1 PUSH2 0x1723 DUP4 CODECOPY DUP2 DUP2 ADD PUSH1 0x40 MSTORE DUP2 ADD SWAP1 PUSH2 0x57 SWAP2 SWAP1 PUSH2 0x2A7 JUMP JUMPDEST DUP1 PUSH0 PUSH20 0xFFFFFFFFFFFFFFFFFFFFFFFFFFFFFFFFFFFFFFFF AND DUP2 PUSH20 0xFFFFFFFFFFFFFFFFFFFFFFFFFFFFFFFFFFFFFFFF AND SUB PUSH2 0xC8 JUMPI PUSH0 PUSH1 0x40 MLOAD PUSH32 0x1E4FBDF700000000000000000000000000000000000000000000000000000000 DUP2 MSTORE PUSH1 0x4 ADD PUSH2 0xBF SWAP2 SWAP1 PUSH2 0x2F4 JUMP JUMPDEST PUSH1 0x40 MLOAD DUP1 SWAP2 SUB SWAP1 REVERT JUMPDEST PUSH2 0xD7 DUP2 PUSH2 0x188 PUSH1 0x20 SHL PUSH1 0x20 SHR JUMP JUMPDEST POP PUSH1 0x1 DUP1 DUP2 SWAP1 SSTORE POP PUSH0 PUSH20 0xFFFFFFFFFFFFFFFFFFFFFFFFFFFFFFFFFFFFFFFF AND DUP3 PUSH20 0xFFFFFFFFFFFFFFFFFFFFFFFFFFFFFFFFFFFFFFFF AND SUB PUSH2 0x14D JUMPI PUSH1 0x40 MLOAD PUSH32 0x8C379A000000000000000000000000000000000000000000000000000000000 DUP2 MSTORE PUSH1 0x4 ADD PUSH2 0x144 SWAP1 PUSH2 0x367 JUMP JUMPDEST PUSH1 0x40 MLOAD DUP1 SWAP2 SUB SWAP1 REVERT JUMPDEST DUP2 PUSH20 0xFFFFFFFFFFFFFFFFFFFFFFFFFFFFFFFFFFFFFFFF AND PUSH1 0x80 DUP2 PUSH20 0xFFFFFFFFFFFFFFFFFFFFFFFFFFFFFFFFFFFFFFFF AND DUP2 MSTORE POP POP POP POP PUSH2 0x385 JUMP JUMPDEST PUSH0 DUP1 PUSH0 SWAP1 SLOAD SWAP1 PUSH2 0x100 EXP SWAP1 DIV PUSH20 0xFFFFFFFFFFFFFFFFFFFFFFFFFFFFFFFFFFFFFFFF AND SWAP1 POP DUP2 PUSH0 DUP1 PUSH2 0x100 EXP DUP2 SLOAD DUP2 PUSH20 0xFFFFFFFFFFFFFFFFFFFFFFFFFFFFFFFFFFFFFFFF MUL NOT AND SWAP1 DUP4 PUSH20 0xFFFFFFFFFFFFFFFFFFFFFFFFFFFFFFFFFFFFFFFF AND MUL OR SWAP1 SSTORE POP DUP2 PUSH20 0xFFFFFFFFFFFFFFFFFFFFFFFFFFFFFFFFFFFFFFFF AND DUP2 PUSH20 0xFFFFFFFFFFFFFFFFFFFFFFFFFFFFFFFFFFFFFFFF AND PUSH32 0x8BE0079C531659141344CD1FD0A4F28419497F9722A3DAAFE3B4186F6B6457E0 PUSH1 0x40 MLOAD PUSH1 0x40 MLOAD DUP1 SWAP2 SUB SWAP1 LOG3 POP POP JUMP JUMPDEST PUSH0 DUP1 REVERT JUMPDEST PUSH0 PUSH20 0xFFFFFFFFFFFFFFFFFFFFFFFFFFFFFFFFFFFFFFFF DUP3 AND SWAP1 POP SWAP2 SWAP1 POP JUMP JUMPDEST PUSH0 PUSH2 0x276 DUP3 PUSH2 0x24D JUMP JUMPDEST SWAP1 POP SWAP2 SWAP1 POP JUMP JUMPDEST PUSH2 0x286 DUP2 PUSH2 0x26C JUMP JUMPDEST DUP2 EQ PUSH2 0x290 JUMPI PUSH0 DUP1 REVERT JUMPDEST POP JUMP JUMPDEST PUSH0 DUP2 MLOAD SWAP1 POP PUSH2 0x2A1 DUP2 PUSH2 0x27D JUMP JUMPDEST SWAP3 SWAP2 POP POP JUMP JUMPDEST PUSH0 DUP1 PUSH1 0x40 DUP4 DUP6 SUB SLT ISZERO PUSH2 0x2BD JUMPI PUSH2 0x2BC PUSH2 0x249 JUMP JUMPDEST JUMPDEST PUSH0 PUSH2 0x2CA DUP6 DUP3 DUP7 ADD PUSH2 0x293 JUMP JUMPDEST SWAP3 POP POP PUSH1 0x20 PUSH2 0x2DB DUP6 DUP3 DUP7 ADD PUSH2 0x293 JUMP JUMPDEST SWAP2 POP POP SWAP3 POP SWAP3 SWAP1 POP JUMP JUMPDEST PUSH2 0x2EE DUP2 PUSH2 0x26C JUMP JUMPDEST DUP3 MSTORE POP POP JUMP JUMPDEST PUSH0 PUSH1 0x20 DUP3 ADD SWAP1 POP PUSH2 0x307 PUSH0 DUP4 ADD DUP5 PUSH2 0x2E5 JUMP JUMPDEST SWAP3 SWAP2 POP POP JUMP JUMPDEST PUSH0 DUP3 DUP3 MSTORE PUSH1 0x20 DUP3 ADD SWAP1 POP SWAP3 SWAP2 POP POP JUMP JUMPDEST PUSH32 0x496E76616C696420425553442061646472657373000000000000000000000000 PUSH0 DUP3 ADD MSTORE POP JUMP JUMPDEST PUSH0 PUSH2 0x351 PUSH1 0x14 DUP4 PUSH2 0x30D JUMP JUMPDEST SWAP2 POP PUSH2 0x35C DUP3 PUSH2 0x31D JUMP JUMPDEST PUSH1 0x20 DUP3 ADD SWAP1 POP SWAP2 SWAP1 POP JUMP JUMPDEST PUSH0 PUSH1 0x20 DUP3 ADD SWAP1 POP DUP2 DUP2 SUB PUSH0 DUP4 ADD MSTORE PUSH2 0x37E DUP2 PUSH2 0x345 JUMP JUMPDEST SWAP1 POP SWAP2 SWAP1 POP JUMP JUMPDEST PUSH1 0x80 MLOAD PUSH2 0x1371 PUSH2 0x3B2 PUSH0 CODECOPY PUSH0 DUP2 DUP2 PUSH2 0x23B ADD MSTORE DUP2 DUP2 PUSH2 0x314 ADD MSTORE DUP2 DUP2 PUSH2 0x6AC ADD MSTORE PUSH2 0x926 ADD MSTORE PUSH2 0x1371 PUSH0 RETURN INVALID PUSH1 0x80 PUSH1 0x40 MSTORE CALLVALUE DUP1 ISZERO PUSH2 0xF JUMPI PUSH0 DUP1 REVERT JUMPDEST POP PUSH1 0x4 CALLDATASIZE LT PUSH2 0xB2 JUMPI PUSH0 CALLDATALOAD PUSH1 0xE0 SHR DUP1 PUSH4 0xA8FC30D4 GT PUSH2 0x6F JUMPI DUP1 PUSH4 0xA8FC30D4 EQ PUSH2 0x150 JUMPI DUP1 PUSH4 0xDE0E7014 EQ PUSH2 0x16E JUMPI DUP1 PUSH4 0xEBBEEC08 EQ PUSH2 0x18C JUMPI DUP1 PUSH4 0xEFFCE0D4 EQ PUSH2 0x1BD JUMPI DUP1 PUSH4 0xF046395A EQ PUSH2 0x1DB JUMPI DUP1 PUSH4 0xF2FDE38B EQ PUSH2 0x20C JUMPI PUSH2 0xB2 JUMP JUMPDEST DUP1 PUSH4 0x155DD5EE EQ PUSH2 0xB6 JUMPI DUP1 PUSH4 0x2210221A EQ PUSH2 0xD2 JUMPI DUP1 PUSH4 0x3ED620A4 EQ PUSH2 0xF0 JUMPI DUP1 PUSH4 0x49C7E639 EQ PUSH2 0x10C JUMPI DUP1 PUSH4 0x715018A6 EQ PUSH2 0x128 JUMPI DUP1 PUSH4 0x8DA5CB5B EQ PUSH2 0x132 JUMPI JUMPDEST PUSH0 DUP1 REVERT JUMPDEST PUSH2 0xD0 PUSH1 0x4 DUP1 CALLDATASIZE SUB DUP2 ADD SWAP1 PUSH2 0xCB SWAP2 SWAP1 PUSH2 0xC7F JUMP JUMPDEST PUSH2 0x228 JUMP JUMPDEST STOP JUMPDEST PUSH2 0xDA PUSH2 0x445 JUMP JUMPDEST PUSH1 0x40 MLOAD PUSH2 0xE7 SWAP2 SWAP1 PUSH2 0xCB9 JUMP JUMPDEST PUSH1 0x40 MLOAD DUP1 SWAP2 SUB SWAP1 RETURN JUMPDEST PUSH2 0x10A PUSH1 0x4 DUP1 CALLDATASIZE SUB DUP2 ADD SWAP1 PUSH2 0x105 SWAP2 SWAP1 PUSH2 0xCD2 JUMP JUMPDEST PUSH2 0x44B JUMP JUMPDEST STOP JUMPDEST PUSH2 0x126 PUSH1 0x4 DUP1 CALLDATASIZE SUB DUP2 ADD SWAP1 PUSH2 0x121 SWAP2 SWAP1 PUSH2 0xD45 JUMP JUMPDEST PUSH2 0x4A8 JUMP JUMPDEST STOP JUMPDEST PUSH2 0x130 PUSH2 0x8E4 JUMP JUMPDEST STOP JUMPDEST PUSH2 0x13A PUSH2 0x8F7 JUMP JUMPDEST PUSH1 0x40 MLOAD PUSH2 0x147 SWAP2 SWAP1 PUSH2 0xDAF JUMP JUMPDEST PUSH1 0x40 MLOAD DUP1 SWAP2 SUB SWAP1 RETURN JUMPDEST PUSH2 0x158 PUSH2 0x91E JUMP JUMPDEST PUSH1 0x40 MLOAD PUSH2 0x165 SWAP2 SWAP1 PUSH2 0xCB9 JUMP JUMPDEST PUSH1 0x40 MLOAD DUP1 SWAP2 SUB SWAP1 RETURN JUMPDEST PUSH2 0x176 PUSH2 0x924 JUMP JUMPDEST PUSH1 0x40 MLOAD PUSH2 0x183 SWAP2 SWAP1 PUSH2 0xE23 JUMP JUMPDEST PUSH1 0x40 MLOAD DUP1 SWAP2 SUB SWAP1 RETURN JUMPDEST PUSH2 0x1A6 PUSH1 0x4 DUP1 CALLDATASIZE SUB DUP2 ADD SWAP1 PUSH2 0x1A1 SWAP2 SWAP1 PUSH2 0xE66 JUMP JUMPDEST PUSH2 0x948 JUMP JUMPDEST PUSH1 0x40 MLOAD PUSH2 0x1B4 SWAP3 SWAP2 SWAP1 PUSH2 0xF04 JUMP JUMPDEST PUSH1 0x40 MLOAD DUP1 SWAP2 SUB SWAP1 RETURN JUMPDEST PUSH2 0x1C5 PUSH2 0x9EB JUMP JUMPDEST PUSH1 0x40 MLOAD PUSH2 0x1D2 SWAP2 SWAP1 PUSH2 0xCB9 JUMP JUMPDEST PUSH1 0x40 MLOAD DUP1 SWAP2 SUB SWAP1 RETURN JUMPDEST PUSH2 0x1F5 PUSH1 0x4 DUP1 CALLDATASIZE SUB DUP2 ADD SWAP1 PUSH2 0x1F0 SWAP2 SWAP1 PUSH2 0xE66 JUMP JUMPDEST PUSH2 0x9F1 JUMP JUMPDEST PUSH1 0x40 MLOAD PUSH2 0x203 SWAP3 SWAP2 SWAP1 PUSH2 0xF04 JUMP JUMPDEST PUSH1 0x40 MLOAD DUP1 SWAP2 SUB SWAP1 RETURN JUMPDEST PUSH2 0x226 PUSH1 0x4 DUP1 CALLDATASIZE SUB DUP2 ADD SWAP1 PUSH2 0x221 SWAP2 SWAP1 PUSH2 0xE66 JUMP JUMPDEST PUSH2 0xA1D JUMP JUMPDEST STOP JUMPDEST PUSH2 0x230 PUSH2 0xAA1 JUMP JUMPDEST PUSH2 0x238 PUSH2 0xB28 JUMP JUMPDEST DUP1 PUSH32 0x0 PUSH20 0xFFFFFFFFFFFFFFFFFFFFFFFFFFFFFFFFFFFFFFFF AND PUSH4 0x70A08231 ADDRESS PUSH1 0x40 MLOAD DUP3 PUSH4 0xFFFFFFFF AND PUSH1 0xE0 SHL DUP2 MSTORE PUSH1 0x4 ADD PUSH2 0x292 SWAP2 SWAP1 PUSH2 0xDAF JUMP JUMPDEST PUSH1 0x20 PUSH1 0x40 MLOAD DUP1 DUP4 SUB DUP2 DUP7 GAS STATICCALL ISZERO DUP1 ISZERO PUSH2 0x2AD JUMPI RETURNDATASIZE PUSH0 DUP1 RETURNDATACOPY RETURNDATASIZE PUSH0 REVERT JUMPDEST POP POP POP POP PUSH1 0x40 MLOAD RETURNDATASIZE PUSH1 0x1F NOT PUSH1 0x1F DUP3 ADD AND DUP3 ADD DUP1 PUSH1 0x40 MSTORE POP DUP2 ADD SWAP1 PUSH2 0x2D1 SWAP2 SWAP1 PUSH2 0xF3F JUMP JUMPDEST LT ISZERO PUSH2 0x312 JUMPI PUSH1 0x40 MLOAD PUSH32 0x8C379A000000000000000000000000000000000000000000000000000000000 DUP2 MSTORE PUSH1 0x4 ADD PUSH2 0x309 SWAP1 PUSH2 0xFC4 JUMP JUMPDEST PUSH1 0x40 MLOAD DUP1 SWAP2 SUB SWAP1 REVERT JUMPDEST PUSH32 0x0 PUSH20 0xFFFFFFFFFFFFFFFFFFFFFFFFFFFFFFFFFFFFFFFF AND PUSH4 0xA9059CBB CALLER DUP4 PUSH1 0x40 MLOAD DUP4 PUSH4 0xFFFFFFFF AND PUSH1 0xE0 SHL DUP2 MSTORE PUSH1 0x4 ADD PUSH2 0x36D SWAP3 SWAP2 SWAP1 PUSH2 0xFE2 JUMP JUMPDEST PUSH1 0x20 PUSH1 0x40 MLOAD DUP1 DUP4 SUB DUP2 PUSH0 DUP8 GAS CALL ISZERO DUP1 ISZERO PUSH2 0x389 JUMPI RETURNDATASIZE PUSH0 DUP1 RETURNDATACOPY RETURNDATASIZE PUSH0 REVERT JUMPDEST POP POP POP POP PUSH1 0x40 MLOAD RETURNDATASIZE PUSH1 0x1F NOT PUSH1 0x1F DUP3 ADD AND DUP3 ADD DUP1 PUSH1 0x40 MSTORE POP DUP2 ADD SWAP1 PUSH2 0x3AD SWAP2 SWAP1 PUSH2 0x103E JUMP JUMPDEST PUSH2 0x3EC JUMPI PUSH1 0x40 MLOAD PUSH32 0x8C379A000000000000000000000000000000000000000000000000000000000 DUP2 MSTORE PUSH1 0x4 ADD PUSH2 0x3E3 SWAP1 PUSH2 0x10B3 JUMP JUMPDEST PUSH1 0x40 MLOAD DUP1 SWAP2 SUB SWAP1 REVERT JUMPDEST CALLER PUSH20 0xFFFFFFFFFFFFFFFFFFFFFFFFFFFFFFFFFFFFFFFF AND PUSH32 0xEAFF4B37086828766AD3268786972C0CD24259D4C87A80F9D3963A3C3D999B0D DUP3 PUSH1 0x40 MLOAD PUSH2 0x432 SWAP2 SWAP1 PUSH2 0xCB9 JUMP JUMPDEST PUSH1 0x40 MLOAD DUP1 SWAP2 SUB SWAP1 LOG2 PUSH2 0x442 PUSH2 0xB77 JUMP JUMPDEST POP JUMP JUMPDEST PUSH1 0x3 SLOAD DUP2 JUMP JUMPDEST PUSH2 0x453 PUSH2 0xAA1 JUMP JUMPDEST DUP3 PUSH1 0x3 DUP2 SWAP1 SSTORE POP DUP2 PUSH1 0x4 DUP2 SWAP1 SSTORE POP DUP1 PUSH1 0x5 DUP2 SWAP1 SSTORE POP PUSH32 0xA6B830B74E52D7D1140E76252F225DC7BED28782519845600BBD3182341DC115 DUP4 DUP4 DUP4 PUSH1 0x40 MLOAD PUSH2 0x49B SWAP4 SWAP3 SWAP2 SWAP1 PUSH2 0x10D1 JUMP JUMPDEST PUSH1 0x40 MLOAD DUP1 SWAP2 SUB SWAP1 LOG1 POP POP POP JUMP JUMPDEST PUSH2 0x4B0 PUSH2 0xB28 JUMP JUMPDEST PUSH0 PUSH1 0x3 DUP2 GT ISZERO PUSH2 0x4C3 JUMPI PUSH2 0x4C2 PUSH2 0xE91 JUMP JUMPDEST JUMPDEST DUP2 PUSH1 0x3 DUP2 GT ISZERO PUSH2 0x4D6 JUMPI PUSH2 0x4D5 PUSH2 0xE91 JUMP JUMPDEST JUMPDEST SUB PUSH2 0x516 JUMPI PUSH1 0x40 MLOAD PUSH32 0x8C379A000000000000000000000000000000000000000000000000000000000 DUP2 MSTORE PUSH1 0x4 ADD PUSH2 0x50D SWAP1 PUSH2 0x1150 JUMP JUMPDEST PUSH1 0x40 MLOAD DUP1 SWAP2 SUB SWAP1 REVERT JUMPDEST PUSH0 PUSH1 0x2 PUSH0 CALLER PUSH20 0xFFFFFFFFFFFFFFFFFFFFFFFFFFFFFFFFFFFFFFFF AND PUSH20 0xFFFFFFFFFFFFFFFFFFFFFFFFFFFFFFFFFFFFFFFF AND DUP2 MSTORE PUSH1 0x20 ADD SWAP1 DUP2 MSTORE PUSH1 0x20 ADD PUSH0 KECCAK256 SWAP1 POP PUSH0 PUSH1 0x3 DUP2 GT ISZERO PUSH2 0x569 JUMPI PUSH2 0x568 PUSH2 0xE91 JUMP JUMPDEST JUMPDEST DUP2 PUSH0 ADD PUSH0 SWAP1 SLOAD SWAP1 PUSH2 0x100 EXP SWAP1 DIV PUSH1 0xFF AND PUSH1 0x3 DUP2 GT ISZERO PUSH2 0x58B JUMPI PUSH2 0x58A PUSH2 0xE91 JUMP JUMPDEST JUMPDEST EQ DUP1 PUSH2 0x59B JUMPI POP DUP1 PUSH1 0x1 ADD SLOAD TIMESTAMP LT ISZERO JUMPDEST PUSH2 0x5DA JUMPI PUSH1 0x40 MLOAD PUSH32 0x8C379A000000000000000000000000000000000000000000000000000000000 DUP2 MSTORE PUSH1 0x4 ADD PUSH2 0x5D1 SWAP1 PUSH2 0x11B8 JUMP JUMPDEST PUSH1 0x40 MLOAD DUP1 SWAP2 SUB SWAP1 REVERT JUMPDEST PUSH0 DUP1 PUSH1 0x1 PUSH1 0x3 DUP2 GT ISZERO PUSH2 0x5F0 JUMPI PUSH2 0x5EF PUSH2 0xE91 JUMP JUMPDEST JUMPDEST DUP5 PUSH1 0x3 DUP2 GT ISZERO PUSH2 0x603 JUMPI PUSH2 0x602 PUSH2 0xE91 JUMP JUMPDEST JUMPDEST SUB PUSH2 0x618 JUMPI PUSH1 0x3 SLOAD SWAP2 POP PUSH3 0x278D00 SWAP1 POP PUSH2 0x6AA JUMP JUMPDEST PUSH1 0x2 PUSH1 0x3 DUP2 GT ISZERO PUSH2 0x62C JUMPI PUSH2 0x62B PUSH2 0xE91 JUMP JUMPDEST JUMPDEST DUP5 PUSH1 0x3 DUP2 GT ISZERO PUSH2 0x63F JUMPI PUSH2 0x63E PUSH2 0xE91 JUMP JUMPDEST JUMPDEST SUB PUSH2 0x654 JUMPI PUSH1 0x4 SLOAD SWAP2 POP PUSH3 0xED4E00 SWAP1 POP PUSH2 0x6A9 JUMP JUMPDEST PUSH1 0x3 DUP1 DUP2 GT ISZERO PUSH2 0x667 JUMPI PUSH2 0x666 PUSH2 0xE91 JUMP JUMPDEST JUMPDEST DUP5 PUSH1 0x3 DUP2 GT ISZERO PUSH2 0x67A JUMPI PUSH2 0x679 PUSH2 0xE91 JUMP JUMPDEST JUMPDEST SUB PUSH2 0x6A8 JUMPI PUSH1 0x5 SLOAD SWAP2 POP PUSH32 0xFFFFFFFFFFFFFFFFFFFFFFFFFFFFFFFFFFFFFFFFFFFFFFFFFFFFFFFFFFFFFFFF SWAP1 POP JUMPDEST JUMPDEST JUMPDEST PUSH32 0x0 PUSH20 0xFFFFFFFFFFFFFFFFFFFFFFFFFFFFFFFFFFFFFFFF AND PUSH4 0x23B872DD CALLER ADDRESS DUP6 PUSH1 0x40 MLOAD DUP5 PUSH4 0xFFFFFFFF AND PUSH1 0xE0 SHL DUP2 MSTORE PUSH1 0x4 ADD PUSH2 0x707 SWAP4 SWAP3 SWAP2 SWAP1 PUSH2 0x11D6 JUMP JUMPDEST PUSH1 0x20 PUSH1 0x40 MLOAD DUP1 DUP4 SUB DUP2 PUSH0 DUP8 GAS CALL ISZERO DUP1 ISZERO PUSH2 0x723 JUMPI RETURNDATASIZE PUSH0 DUP1 RETURNDATACOPY RETURNDATASIZE PUSH0 REVERT JUMPDEST POP POP POP POP PUSH1 0x40 MLOAD RETURNDATASIZE PUSH1 0x1F NOT PUSH1 0x1F DUP3 ADD AND DUP3 ADD DUP1 PUSH1 0x40 MSTORE POP DUP2 ADD SWAP1 PUSH2 0x747 SWAP2 SWAP1 PUSH2 0x103E JUMP JUMPDEST PUSH2 0x786 JUMPI PUSH1 0x40 MLOAD PUSH32 0x8C379A000000000000000000000000000000000000000000000000000000000 DUP2 MSTORE PUSH1 0x4 ADD PUSH2 0x77D SWAP1 PUSH2 0x1255 JUMP JUMPDEST PUSH1 0x40 MLOAD DUP1 SWAP2 SUB SWAP1 REVERT JUMPDEST PUSH0 PUSH1 0x3 DUP1 DUP2 GT ISZERO PUSH2 0x79A JUMPI PUSH2 0x799 PUSH2 0xE91 JUMP JUMPDEST JUMPDEST DUP6 PUSH1 0x3 DUP2 GT ISZERO PUSH2 0x7AD JUMPI PUSH2 0x7AC PUSH2 0xE91 JUMP JUMPDEST JUMPDEST EQ PUSH2 0x7C3 JUMPI DUP2 TIMESTAMP PUSH2 0x7BE SWAP2 SWAP1 PUSH2 0x12A0 JUMP JUMPDEST PUSH2 0x7E5 JUMP JUMPDEST PUSH32 0xFFFFFFFFFFFFFFFFFFFFFFFFFFFFFFFFFFFFFFFFFFFFFFFFFFFFFFFFFFFFFFFF JUMPDEST SWAP1 POP PUSH1 0x40 MLOAD DUP1 PUSH1 0x40 ADD PUSH1 0x40 MSTORE DUP1 DUP7 PUSH1 0x3 DUP2 GT ISZERO PUSH2 0x805 JUMPI PUSH2 0x804 PUSH2 0xE91 JUMP JUMPDEST JUMPDEST DUP2 MSTORE PUSH1 0x20 ADD DUP3 DUP2 MSTORE POP PUSH1 0x2 PUSH0 CALLER PUSH20 0xFFFFFFFFFFFFFFFFFFFFFFFFFFFFFFFFFFFFFFFF AND PUSH20 0xFFFFFFFFFFFFFFFFFFFFFFFFFFFFFFFFFFFFFFFF AND DUP2 MSTORE PUSH1 0x20 ADD SWAP1 DUP2 MSTORE PUSH1 0x20 ADD PUSH0 KECCAK256 PUSH0 DUP3 ADD MLOAD DUP2 PUSH0 ADD PUSH0 PUSH2 0x100 EXP DUP2 SLOAD DUP2 PUSH1 0xFF MUL NOT AND SWAP1 DUP4 PUSH1 0x3 DUP2 GT ISZERO PUSH2 0x873 JUMPI PUSH2 0x872 PUSH2 0xE91 JUMP JUMPDEST JUMPDEST MUL OR SWAP1 SSTORE POP PUSH1 0x20 DUP3 ADD MLOAD DUP2 PUSH1 0x1 ADD SSTORE SWAP1 POP POP CALLER PUSH20 0xFFFFFFFFFFFFFFFFFFFFFFFFFFFFFFFFFFFFFFFF AND PUSH32 0x44F95A2D17727B5B87E4F23D70278B59A2B0B285289CC9021CAC8CDBA4797B7 DUP7 DUP4 PUSH1 0x40 MLOAD PUSH2 0x8CD SWAP3 SWAP2 SWAP1 PUSH2 0xF04 JUMP JUMPDEST PUSH1 0x40 MLOAD DUP1 SWAP2 SUB SWAP1 LOG2 POP POP POP POP PUSH2 0x8E1 PUSH2 0xB77 JUMP JUMPDEST POP JUMP JUMPDEST PUSH2 0x8EC PUSH2 0xAA1 JUMP JUMPDEST PUSH2 0x8F5 PUSH0 PUSH2 0xB80 JUMP JUMPDEST JUMP JUMPDEST PUSH0 DUP1 PUSH0 SWAP1 SLOAD SWAP1 PUSH2 0x100 EXP SWAP1 DIV PUSH20 0xFFFFFFFFFFFFFFFFFFFFFFFFFFFFFFFFFFFFFFFF AND SWAP1 POP SWAP1 JUMP JUMPDEST PUSH1 0x4 SLOAD DUP2 JUMP JUMPDEST PUSH32 0x0 DUP2 JUMP JUMPDEST PUSH0 DUP1 PUSH0 PUSH1 0x2 PUSH0 DUP6 PUSH20 0xFFFFFFFFFFFFFFFFFFFFFFFFFFFFFFFFFFFFFFFF AND PUSH20 0xFFFFFFFFFFFFFFFFFFFFFFFFFFFFFFFFFFFFFFFF AND DUP2 MSTORE PUSH1 0x20 ADD SWAP1 DUP2 MSTORE PUSH1 0x20 ADD PUSH0 KECCAK256 PUSH1 0x40 MLOAD DUP1 PUSH1 0x40 ADD PUSH1 0x40 MSTORE SWAP1 DUP2 PUSH0 DUP3 ADD PUSH0 SWAP1 SLOAD SWAP1 PUSH2 0x100 EXP SWAP1 DIV PUSH1 0xFF AND PUSH1 0x3 DUP2 GT ISZERO PUSH2 0x9B6 JUMPI PUSH2 0x9B5 PUSH2 0xE91 JUMP JUMPDEST JUMPDEST PUSH1 0x3 DUP2 GT ISZERO PUSH2 0x9C8 JUMPI PUSH2 0x9C7 PUSH2 0xE91 JUMP JUMPDEST JUMPDEST DUP2 MSTORE PUSH1 0x20 ADD PUSH1 0x1 DUP3 ADD SLOAD DUP2 MSTORE POP POP SWAP1 POP DUP1 PUSH0 ADD MLOAD DUP2 PUSH1 0x20 ADD MLOAD SWAP3 POP SWAP3 POP POP SWAP2 POP SWAP2 JUMP JUMPDEST PUSH1 0x5 SLOAD DUP2 JUMP JUMPDEST PUSH1 0x2 PUSH1 0x20 MSTORE DUP1 PUSH0 MSTORE PUSH1 0x40 PUSH0 KECCAK256 PUSH0 SWAP2 POP SWAP1 POP DUP1 PUSH0 ADD PUSH0 SWAP1 SLOAD SWAP1 PUSH2 0x100 EXP SWAP1 DIV PUSH1 0xFF AND SWAP1 DUP1 PUSH1 0x1 ADD SLOAD SWAP1 POP DUP3 JUMP JUMPDEST PUSH2 0xA25 PUSH2 0xAA1 JUMP JUMPDEST PUSH0 PUSH20 0xFFFFFFFFFFFFFFFFFFFFFFFFFFFFFFFFFFFFFFFF AND DUP2 PUSH20 0xFFFFFFFFFFFFFFFFFFFFFFFFFFFFFFFFFFFFFFFF AND SUB PUSH2 0xA95 JUMPI PUSH0 PUSH1 0x40 MLOAD PUSH32 0x1E4FBDF700000000000000000000000000000000000000000000000000000000 DUP2 MSTORE PUSH1 0x4 ADD PUSH2 0xA8C SWAP2 SWAP1 PUSH2 0xDAF JUMP JUMPDEST PUSH1 0x40 MLOAD DUP1 SWAP2 SUB SWAP1 REVERT JUMPDEST PUSH2 0xA9E DUP2 PUSH2 0xB80 JUMP JUMPDEST POP JUMP JUMPDEST PUSH2 0xAA9 PUSH2 0xC41 JUMP JUMPDEST PUSH20 0xFFFFFFFFFFFFFFFFFFFFFFFFFFFFFFFFFFFFFFFF AND PUSH2 0xAC7 PUSH2 0x8F7 JUMP JUMPDEST PUSH20 0xFFFFFFFFFFFFFFFFFFFFFFFFFFFFFFFFFFFFFFFF AND EQ PUSH2 0xB26 JUMPI PUSH2 0xAEA PUSH2 0xC41 JUMP JUMPDEST PUSH1 0x40 MLOAD PUSH32 0x118CDAA700000000000000000000000000000000000000000000000000000000 DUP2 MSTORE PUSH1 0x4 ADD PUSH2 0xB1D SWAP2 SWAP1 PUSH2 0xDAF JUMP JUMPDEST PUSH1 0x40 MLOAD DUP1 SWAP2 SUB SWAP1 REVERT JUMPDEST JUMP JUMPDEST PUSH1 0x2 PUSH1 0x1 SLOAD SUB PUSH2 0xB6D JUMPI PUSH1 0x40 MLOAD PUSH32 0x8C379A000000000000000000000000000000000000000000000000000000000 DUP2 MSTORE PUSH1 0x4 ADD PUSH2 0xB64 SWAP1 PUSH2 0x131D JUMP JUMPDEST PUSH1 0x40 MLOAD DUP1 SWAP2 SUB SWAP1 REVERT JUMPDEST PUSH1 0x2 PUSH1 0x1 DUP2 SWAP1 SSTORE POP JUMP JUMPDEST PUSH1 0x1 DUP1 DUP2 SWAP1 SSTORE POP JUMP JUMPDEST PUSH0 DUP1 PUSH0 SWAP1 SLOAD SWAP1 PUSH2 0x100 EXP SWAP1 DIV PUSH20 0xFFFFFFFFFFFFFFFFFFFFFFFFFFFFFFFFFFFFFFFF AND SWAP1 POP DUP2 PUSH0 DUP1 PUSH2 0x100 EXP DUP2 SLOAD DUP2 PUSH20 0xFFFFFFFFFFFFFFFFFFFFFFFFFFFFFFFFFFFFFFFF MUL NOT AND SWAP1 DUP4 PUSH20 0xFFFFFFFFFFFFFFFFFFFFFFFFFFFFFFFFFFFFFFFF AND MUL OR SWAP1 SSTORE POP DUP2 PUSH20 0xFFFFFFFFFFFFFFFFFFFFFFFFFFFFFFFFFFFFFFFF AND DUP2 PUSH20 0xFFFFFFFFFFFFFFFFFFFFFFFFFFFFFFFFFFFFFFFF AND PUSH32 0x8BE0079C531659141344CD1FD0A4F28419497F9722A3DAAFE3B4186F6B6457E0 PUSH1 0x40 MLOAD PUSH1 0x40 MLOAD DUP1 SWAP2 SUB SWAP1 LOG3 POP POP JUMP JUMPDEST PUSH0 CALLER SWAP1 POP SWAP1 JUMP JUMPDEST PUSH0 DUP1 REVERT JUMPDEST PUSH0 DUP2 SWAP1 POP SWAP2 SWAP1 POP JUMP JUMPDEST PUSH2 0xC5E DUP2 PUSH2 0xC4C JUMP JUMPDEST DUP2 EQ PUSH2 0xC68 JUMPI PUSH0 DUP1 REVERT JUMPDEST POP JUMP JUMPDEST PUSH0 DUP2 CALLDATALOAD SWAP1 POP PUSH2 0xC79 DUP2 PUSH2 0xC55 JUMP JUMPDEST SWAP3 SWAP2 POP POP JUMP JUMPDEST PUSH0 PUSH1 0x20 DUP3 DUP5 SUB SLT ISZERO PUSH2 0xC94 JUMPI PUSH2 0xC93 PUSH2 0xC48 JUMP JUMPDEST JUMPDEST PUSH0 PUSH2 0xCA1 DUP5 DUP3 DUP6 ADD PUSH2 0xC6B JUMP JUMPDEST SWAP2 POP POP SWAP3 SWAP2 POP POP JUMP JUMPDEST PUSH2 0xCB3 DUP2 PUSH2 0xC4C JUMP JUMPDEST DUP3 MSTORE POP POP JUMP JUMPDEST PUSH0 PUSH1 0x20 DUP3 ADD SWAP1 POP PUSH2 0xCCC PUSH0 DUP4 ADD DUP5 PUSH2 0xCAA JUMP JUMPDEST SWAP3 SWAP2 POP POP JUMP JUMPDEST PUSH0 DUP1 PUSH0 PUSH1 0x60 DUP5 DUP7 SUB SLT ISZERO PUSH2 0xCE9 JUMPI PUSH2 0xCE8 PUSH2 0xC48 JUMP JUMPDEST JUMPDEST PUSH0 PUSH2 0xCF6 DUP7 DUP3 DUP8 ADD PUSH2 0xC6B JUMP JUMPDEST SWAP4 POP POP PUSH1 0x20 PUSH2 0xD07 DUP7 DUP3 DUP8 ADD PUSH2 0xC6B JUMP JUMPDEST SWAP3 POP POP PUSH1 0x40 PUSH2 0xD18 DUP7 DUP3 DUP8 ADD PUSH2 0xC6B JUMP JUMPDEST SWAP2 POP POP SWAP3 POP SWAP3 POP SWAP3 JUMP JUMPDEST PUSH1 0x4 DUP2 LT PUSH2 0xD2E JUMPI PUSH0 DUP1 REVERT JUMPDEST POP JUMP JUMPDEST PUSH0 DUP2 CALLDATALOAD SWAP1 POP PUSH2 0xD3F DUP2 PUSH2 0xD22 JUMP JUMPDEST SWAP3 SWAP2 POP POP JUMP JUMPDEST PUSH0 PUSH1 0x20 DUP3 DUP5 SUB SLT ISZERO PUSH2 0xD5A JUMPI PUSH2 0xD59 PUSH2 0xC48 JUMP JUMPDEST JUMPDEST PUSH0 PUSH2 0xD67 DUP5 DUP3 DUP6 ADD PUSH2 0xD31 JUMP JUMPDEST SWAP2 POP POP SWAP3 SWAP2 POP POP JUMP JUMPDEST PUSH0 PUSH20 0xFFFFFFFFFFFFFFFFFFFFFFFFFFFFFFFFFFFFFFFF DUP3 AND SWAP1 POP SWAP2 SWAP1 POP JUMP JUMPDEST PUSH0 PUSH2 0xD99 DUP3 PUSH2 0xD70 JUMP JUMPDEST SWAP1 POP SWAP2 SWAP1 POP JUMP JUMPDEST PUSH2 0xDA9 DUP2 PUSH2 0xD8F JUMP JUMPDEST DUP3 MSTORE POP POP JUMP JUMPDEST PUSH0 PUSH1 0x20 DUP3 ADD SWAP1 POP PUSH2 0xDC2 PUSH0 DUP4 ADD DUP5 PUSH2 0xDA0 JUMP JUMPDEST SWAP3 SWAP2 POP POP JUMP JUMPDEST PUSH0 DUP2 SWAP1 POP SWAP2 SWAP1 POP JUMP JUMPDEST PUSH0 PUSH2 0xDEB PUSH2 0xDE6 PUSH2 0xDE1 DUP5 PUSH2 0xD70 JUMP JUMPDEST PUSH2 0xDC8 JUMP JUMPDEST PUSH2 0xD70 JUMP JUMPDEST SWAP1 POP SWAP2 SWAP1 POP JUMP JUMPDEST PUSH0 PUSH2 0xDFC DUP3 PUSH2 0xDD1 JUMP JUMPDEST SWAP1 POP SWAP2 SWAP1 POP JUMP JUMPDEST PUSH0 PUSH2 0xE0D DUP3 PUSH2 0xDF2 JUMP JUMPDEST SWAP1 POP SWAP2 SWAP1 POP JUMP JUMPDEST PUSH2 0xE1D DUP2 PUSH2 0xE03 JUMP JUMPDEST DUP3 MSTORE POP POP JUMP JUMPDEST PUSH0 PUSH1 0x20 DUP3 ADD SWAP1 POP PUSH2 0xE36 PUSH0 DUP4 ADD DUP5 PUSH2 0xE14 JUMP JUMPDEST SWAP3 SWAP2 POP POP JUMP JUMPDEST PUSH2 0xE45 DUP2 PUSH2 0xD8F JUMP JUMPDEST DUP2 EQ PUSH2 0xE4F JUMPI PUSH0 DUP1 REVERT JUMPDEST POP JUMP JUMPDEST PUSH0 DUP2 CALLDATALOAD SWAP1 POP PUSH2 0xE60 DUP2 PUSH2 0xE3C JUMP JUMPDEST SWAP3 SWAP2 POP POP JUMP JUMPDEST PUSH0 PUSH1 0x20 DUP3 DUP5 SUB SLT ISZERO PUSH2 0xE7B JUMPI PUSH2 0xE7A PUSH2 0xC48 JUMP JUMPDEST JUMPDEST PUSH0 PUSH2 0xE88 DUP5 DUP3 DUP6 ADD PUSH2 0xE52 JUMP JUMPDEST SWAP2 POP POP SWAP3 SWAP2 POP POP JUMP JUMPDEST PUSH32 0x4E487B7100000000000000000000000000000000000000000000000000000000 PUSH0 MSTORE PUSH1 0x21 PUSH1 0x4 MSTORE PUSH1 0x24 PUSH0 REVERT JUMPDEST PUSH1 0x4 DUP2 LT PUSH2 0xECF JUMPI PUSH2 0xECE PUSH2 0xE91 JUMP JUMPDEST JUMPDEST POP JUMP JUMPDEST PUSH0 DUP2 SWAP1 POP PUSH2 0xEDF DUP3 PUSH2 0xEBE JUMP JUMPDEST SWAP2 SWAP1 POP JUMP JUMPDEST PUSH0 PUSH2 0xEEE DUP3 PUSH2 0xED2 JUMP JUMPDEST SWAP1 POP SWAP2 SWAP1 POP JUMP JUMPDEST PUSH2 0xEFE DUP2 PUSH2 0xEE4 JUMP JUMPDEST DUP3 MSTORE POP POP JUMP JUMPDEST PUSH0 PUSH1 0x40 DUP3 ADD SWAP1 POP PUSH2 0xF17 PUSH0 DUP4 ADD DUP6 PUSH2 0xEF5 JUMP JUMPDEST PUSH2 0xF24 PUSH1 0x20 DUP4 ADD DUP5 PUSH2 0xCAA JUMP JUMPDEST SWAP4 SWAP3 POP POP POP JUMP JUMPDEST PUSH0 DUP2 MLOAD SWAP1 POP PUSH2 0xF39 DUP2 PUSH2 0xC55 JUMP JUMPDEST SWAP3 SWAP2 POP POP JUMP JUMPDEST PUSH0 PUSH1 0x20 DUP3 DUP5 SUB SLT ISZERO PUSH2 0xF54 JUMPI PUSH2 0xF53 PUSH2 0xC48 JUMP JUMPDEST JUMPDEST PUSH0 PUSH2 0xF61 DUP5 DUP3 DUP6 ADD PUSH2 0xF2B JUMP JUMPDEST SWAP2 POP POP SWAP3 SWAP2 POP POP JUMP JUMPDEST PUSH0 DUP3 DUP3 MSTORE PUSH1 0x20 DUP3 ADD SWAP1 POP SWAP3 SWAP2 POP POP JUMP JUMPDEST PUSH32 0x496E73756666696369656E7420636F6E74726163742062616C616E6365000000 PUSH0 DUP3 ADD MSTORE POP JUMP JUMPDEST PUSH0 PUSH2 0xFAE PUSH1 0x1D DUP4 PUSH2 0xF6A JUMP JUMPDEST SWAP2 POP PUSH2 0xFB9 DUP3 PUSH2 0xF7A JUMP JUMPDEST PUSH1 0x20 DUP3 ADD SWAP1 POP SWAP2 SWAP1 POP JUMP JUMPDEST PUSH0 PUSH1 0x20 DUP3 ADD SWAP1 POP DUP2 DUP2 SUB PUSH0 DUP4 ADD MSTORE PUSH2 0xFDB DUP2 PUSH2 0xFA2 JUMP JUMPDEST SWAP1 POP SWAP2 SWAP1 POP JUMP JUMPDEST PUSH0 PUSH1 0x40 DUP3 ADD SWAP1 POP PUSH2 0xFF5 PUSH0 DUP4 ADD DUP6 PUSH2 0xDA0 JUMP JUMPDEST PUSH2 0x1002 PUSH1 0x20 DUP4 ADD DUP5 PUSH2 0xCAA JUMP JUMPDEST SWAP4 SWAP3 POP POP POP JUMP JUMPDEST PUSH0 DUP2 ISZERO ISZERO SWAP1 POP SWAP2 SWAP1 POP JUMP JUMPDEST PUSH2 0x101D DUP2 PUSH2 0x1009 JUMP JUMPDEST DUP2 EQ PUSH2 0x1027 JUMPI PUSH0 DUP1 REVERT JUMPDEST POP JUMP JUMPDEST PUSH0 DUP2 MLOAD SWAP1 POP PUSH2 0x1038 DUP2 PUSH2 0x1014 JUMP JUMPDEST SWAP3 SWAP2 POP POP JUMP JUMPDEST PUSH0 PUSH1 0x20 DUP3 DUP5 SUB SLT ISZERO PUSH2 0x1053 JUMPI PUSH2 0x1052 PUSH2 0xC48 JUMP JUMPDEST JUMPDEST PUSH0 PUSH2 0x1060 DUP5 DUP3 DUP6 ADD PUSH2 0x102A JUMP JUMPDEST SWAP2 POP POP SWAP3 SWAP2 POP POP JUMP JUMPDEST PUSH32 0x5769746864726177616C206661696C6564000000000000000000000000000000 PUSH0 DUP3 ADD MSTORE POP JUMP JUMPDEST PUSH0 PUSH2 0x109D PUSH1 0x11 DUP4 PUSH2 0xF6A JUMP JUMPDEST SWAP2 POP PUSH2 0x10A8 DUP3 PUSH2 0x1069 JUMP JUMPDEST PUSH1 0x20 DUP3 ADD SWAP1 POP SWAP2 SWAP1 POP JUMP JUMPDEST PUSH0 PUSH1 0x20 DUP3 ADD SWAP1 POP DUP2 DUP2 SUB PUSH0 DUP4 ADD MSTORE PUSH2 0x10CA DUP2 PUSH2 0x1091 JUMP JUMPDEST SWAP1 POP SWAP2 SWAP1 POP JUMP JUMPDEST PUSH0 PUSH1 0x60 DUP3 ADD SWAP1 POP PUSH2 0x10E4 PUSH0 DUP4 ADD DUP7 PUSH2 0xCAA JUMP JUMPDEST PUSH2 0x10F1 PUSH1 0x20 DUP4 ADD DUP6 PUSH2 0xCAA JUMP JUMPDEST PUSH2 0x10FE PUSH1 0x40 DUP4 ADD DUP5 PUSH2 0xCAA JUMP JUMPDEST SWAP5 SWAP4 POP POP POP POP JUMP JUMPDEST PUSH32 0x496E76616C696420706C616E0000000000000000000000000000000000000000 PUSH0 DUP3 ADD MSTORE POP JUMP JUMPDEST PUSH0 PUSH2 0x113A PUSH1 0xC DUP4 PUSH2 0xF6A JUMP JUMPDEST SWAP2 POP PUSH2 0x1145 DUP3 PUSH2 0x1106 JUMP JUMPDEST PUSH1 0x20 DUP3 ADD SWAP1 POP SWAP2 SWAP1 POP JUMP JUMPDEST PUSH0 PUSH1 0x20 DUP3 ADD SWAP1 POP DUP2 DUP2 SUB PUSH0 DUP4 ADD MSTORE PUSH2 0x1167 DUP2 PUSH2 0x112E JUMP JUMPDEST SWAP1 POP SWAP2 SWAP1 POP JUMP JUMPDEST PUSH32 0x4578697374696E672061637469766520737562736372697074696F6E00000000 PUSH0 DUP3 ADD MSTORE POP JUMP JUMPDEST PUSH0 PUSH2 0x11A2 PUSH1 0x1C DUP4 PUSH2 0xF6A JUMP JUMPDEST SWAP2 POP PUSH2 0x11AD DUP3 PUSH2 0x116E JUMP JUMPDEST PUSH1 0x20 DUP3 ADD SWAP1 POP SWAP2 SWAP1 POP JUMP JUMPDEST PUSH0 PUSH1 0x20 DUP3 ADD SWAP1 POP DUP2 DUP2 SUB PUSH0 DUP4 ADD MSTORE PUSH2 0x11CF DUP2 PUSH2 0x1196 JUMP JUMPDEST SWAP1 POP SWAP2 SWAP1 POP JUMP JUMPDEST PUSH0 PUSH1 0x60 DUP3 ADD SWAP1 POP PUSH2 0x11E9 PUSH0 DUP4 ADD DUP7 PUSH2 0xDA0 JUMP JUMPDEST PUSH2 0x11F6 PUSH1 0x20 DUP4 ADD DUP6 PUSH2 0xDA0 JUMP JUMPDEST PUSH2 0x1203 PUSH1 0x40 DUP4 ADD DUP5 PUSH2 0xCAA JUMP JUMPDEST SWAP5 SWAP4 POP POP POP POP JUMP JUMPDEST PUSH32 0x5061796D656E74206661696C6564000000000000000000000000000000000000 PUSH0 DUP3 ADD MSTORE POP JUMP JUMPDEST PUSH0 PUSH2 0x123F PUSH1 0xE DUP4 PUSH2 0xF6A JUMP JUMPDEST SWAP2 POP PUSH2 0x124A DUP3 PUSH2 0x120B JUMP JUMPDEST PUSH1 0x20 DUP3 ADD SWAP1 POP SWAP2 SWAP1 POP JUMP JUMPDEST PUSH0 PUSH1 0x20 DUP3 ADD SWAP1 POP DUP2 DUP2 SUB PUSH0 DUP4 ADD MSTORE PUSH2 0x126C DUP2 PUSH2 0x1233 JUMP JUMPDEST SWAP1 POP SWAP2 SWAP1 POP JUMP JUMPDEST PUSH32 0x4E487B7100000000000000000000000000000000000000000000000000000000 PUSH0 MSTORE PUSH1 0x11 PUSH1 0x4 MSTORE PUSH1 0x24 PUSH0 REVERT JUMPDEST PUSH0 PUSH2 0x12AA DUP3 PUSH2 0xC4C JUMP JUMPDEST SWAP2 POP PUSH2 0x12B5 DUP4 PUSH2 0xC4C JUMP JUMPDEST SWAP3 POP DUP3 DUP3 ADD SWAP1 POP DUP1 DUP3 GT ISZERO PUSH2 0x12CD JUMPI PUSH2 0x12CC PUSH2 0x1273 JUMP JUMPDEST JUMPDEST SWAP3 SWAP2 POP POP JUMP JUMPDEST PUSH32 0x5265656E7472616E637947756172643A207265656E7472616E742063616C6C00 PUSH0 DUP3 ADD MSTORE POP JUMP JUMPDEST PUSH0 PUSH2 0x1307 PUSH1 0x1F DUP4 PUSH2 0xF6A JUMP JUMPDEST SWAP2 POP PUSH2 0x1312 DUP3 PUSH2 0x12D3 JUMP JUMPDEST PUSH1 0x20 DUP3 ADD SWAP1 POP SWAP2 SWAP1 POP JUMP JUMPDEST PUSH0 PUSH1 0x20 DUP3 ADD SWAP1 POP DUP2 DUP2 SUB PUSH0 DUP4 ADD MSTORE PUSH2 0x1334 DUP2 PUSH2 0x12FB JUMP JUMPDEST SWAP1 POP SWAP2 SWAP1 POP JUMP INVALID LOG2 PUSH5 0x6970667358 0x22 SLT KECCAK256 DUP12 0xE9 0xE1 0xA5 CODESIZE 0xE9 PUSH31 0x103D809665A3D11EE43D6A5608B2545B5CB4A316A443908FF564736F6C6343 STOP ADDMOD BYTE STOP CALLER "
	},
	"abi": [
		{
			"inputs": [
				{
					"internalType": "address",
					"name": "_busdToken",
					"type": "address"
				},
				{
					"internalType": "address",
					"name": "_initialOwner",
					"type": "address"
				}
			],
			"stateMutability": "nonpayable",
			"type": "constructor"
		},
		{
			"inputs": [
				{
					"internalType": "address",
					"name": "owner",
					"type": "address"
				}
			],
			"name": "OwnableInvalidOwner",
			"type": "error"
		},
		{
			"inputs": [
				{
					"internalType": "address",
					"name": "account",
					"type": "address"
				}
			],
			"name": "OwnableUnauthorizedAccount",
			"type": "error"
		},
		{
			"anonymous": false,
			"inputs": [
				{
					"indexed": true,
					"internalType": "address",
					"name": "owner",
					"type": "address"
				},
				{
					"indexed": false,
					"internalType": "uint256",
					"name": "amount",
					"type": "uint256"
				}
			],
			"name": "FundsWithdrawn",
			"type": "event"
		},
		{
			"anonymous": false,
			"inputs": [
				{
					"indexed": true,
					"internalType": "address",
					"name": "previousOwner",
					"type": "address"
				},
				{
					"indexed": true,
					"internalType": "address",
					"name": "newOwner",
					"type": "address"
				}
			],
			"name": "OwnershipTransferred",
			"type": "event"
		},
		{
			"anonymous": false,
			"inputs": [
				{
					"indexed": false,
					"internalType": "uint256",
					"name": "newBusinessMonthly",
					"type": "uint256"
				},
				{
					"indexed": false,
					"internalType": "uint256",
					"name": "newFirstSixMonths",
					"type": "uint256"
				},
				{
					"indexed": false,
					"internalType": "uint256",
					"name": "newFirstLifetime",
					"type": "uint256"
				}
			],
			"name": "PricesUpdated",
			"type": "event"
		},
		{
			"anonymous": false,
			"inputs": [
				{
					"indexed": true,
					"internalType": "address",
					"name": "user",
					"type": "address"
				},
				{
					"indexed": false,
					"internalType": "enum FlySkySafeSubscription.PlanType",
					"name": "plan",
					"type": "uint8"
				},
				{
					"indexed": false,
					"internalType": "uint256",
					"name": "expiry",
					"type": "uint256"
				}
			],
			"name": "Subscribed",
			"type": "event"
		},
		{
			"inputs": [],
			"name": "busdToken",
			"outputs": [
				{
					"internalType": "contract IERC20",
					"name": "",
					"type": "address"
				}
			],
			"stateMutability": "view",
			"type": "function"
		},
		{
			"inputs": [
				{
					"internalType": "address",
					"name": "user",
					"type": "address"
				}
			],
			"name": "getUserSubscription",
			"outputs": [
				{
					"internalType": "enum FlySkySafeSubscription.PlanType",
					"name": "plan",
					"type": "uint8"
				},
				{
					"internalType": "uint256",
					"name": "expiry",
					"type": "uint256"
				}
			],
			"stateMutability": "view",
			"type": "function"
		},
		{
			"inputs": [],
			"name": "owner",
			"outputs": [
				{
					"internalType": "address",
					"name": "",
					"type": "address"
				}
			],
			"stateMutability": "view",
			"type": "function"
		},
		{
			"inputs": [],
			"name": "priceBusinessMonthly",
			"outputs": [
				{
					"internalType": "uint256",
					"name": "",
					"type": "uint256"
				}
			],
			"stateMutability": "view",
			"type": "function"
		},
		{
			"inputs": [],
			"name": "priceFirstLifetime",
			"outputs": [
				{
					"internalType": "uint256",
					"name": "",
					"type": "uint256"
				}
			],
			"stateMutability": "view",
			"type": "function"
		},
		{
			"inputs": [],
			"name": "priceFirstSixMonths",
			"outputs": [
				{
					"internalType": "uint256",
					"name": "",
					"type": "uint256"
				}
			],
			"stateMutability": "view",
			"type": "function"
		},
		{
			"inputs": [],
			"name": "renounceOwnership",
			"outputs": [],
			"stateMutability": "nonpayable",
			"type": "function"
		},
		{
			"inputs": [
				{
					"internalType": "enum FlySkySafeSubscription.PlanType",
					"name": "plan",
					"type": "uint8"
				}
			],
			"name": "subscribe",
			"outputs": [],
			"stateMutability": "nonpayable",
			"type": "function"
		},
		{
			"inputs": [
				{
					"internalType": "address",
					"name": "",
					"type": "address"
				}
			],
			"name": "subscriptions",
			"outputs": [
				{
					"internalType": "enum FlySkySafeSubscription.PlanType",
					"name": "plan",
					"type": "uint8"
				},
				{
					"internalType": "uint256",
					"name": "expiry",
					"type": "uint256"
				}
			],
			"stateMutability": "view",
			"type": "function"
		},
		{
			"inputs": [
				{
					"internalType": "address",
					"name": "newOwner",
					"type": "address"
				}
			],
			"name": "transferOwnership",
			"outputs": [],
			"stateMutability": "nonpayable",
			"type": "function"
		},
		{
			"inputs": [
				{
					"internalType": "uint256",
					"name": "newBusinessMonthly",
					"type": "uint256"
				},
				{
					"internalType": "uint256",
					"name": "newFirstSixMonths",
					"type": "uint256"
				},
				{
					"internalType": "uint256",
					"name": "newFirstLifetime",
					"type": "uint256"
				}
			],
			"name": "updatePrices",
			"outputs": [],
			"stateMutability": "nonpayable",
			"type": "function"
		},
		{
			"inputs": [
				{
					"internalType": "uint256",
					"name": "amount",
					"type": "uint256"
				}
			],
			"name": "withdrawFunds",
			"outputs": [],
			"stateMutability": "nonpayable",
			"type": "function"
		}
	],
	"storageLayout": {
		"storage": [
			{
				"astId": 8,
				"contract": "FlySkySafeSubscription.sol:FlySkySafeSubscription",
				"label": "_owner",
				"offset": 0,
				"slot": "0",
				"type": "t_address"
			},
			{
				"astId": 158,
				"contract": "FlySkySafeSubscription.sol:FlySkySafeSubscription",
				"label": "_status",
				"offset": 0,
				"slot": "1",
				"type": "t_uint256"
			},
			{
				"astId": 348,
				"contract": "FlySkySafeSubscription.sol:FlySkySafeSubscription",
				"label": "subscriptions",
				"offset": 0,
				"slot": "2",
				"type": "t_mapping(t_address,t_struct(Subscription)343_storage)"
			},
			{
				"astId": 355,
				"contract": "FlySkySafeSubscription.sol:FlySkySafeSubscription",
				"label": "priceBusinessMonthly",
				"offset": 0,
				"slot": "3",
				"type": "t_uint256"
			},
			{
				"astId": 362,
				"contract": "FlySkySafeSubscription.sol:FlySkySafeSubscription",
				"label": "priceFirstSixMonths",
				"offset": 0,
				"slot": "4",
				"type": "t_uint256"
			},
			{
				"astId": 369,
				"contract": "FlySkySafeSubscription.sol:FlySkySafeSubscription",
				"label": "priceFirstLifetime",
				"offset": 0,
				"slot": "5",
				"type": "t_uint256"
			}
		],
		"types": {
			"t_address": {
				"encoding": "inplace",
				"label": "address",
				"numberOfBytes": "20"
			},
			"t_enum(PlanType)337": {
				"encoding": "inplace",
				"label": "enum FlySkySafeSubscription.PlanType",
				"numberOfBytes": "1"
			},
			"t_mapping(t_address,t_struct(Subscription)343_storage)": {
				"encoding": "mapping",
				"key": "t_address",
				"label": "mapping(address => struct FlySkySafeSubscription.Subscription)",
				"numberOfBytes": "32",
				"value": "t_struct(Subscription)343_storage"
			},
			"t_struct(Subscription)343_storage": {
				"encoding": "inplace",
				"label": "struct FlySkySafeSubscription.Subscription",
				"members": [
					{
						"astId": 340,
						"contract": "FlySkySafeSubscription.sol:FlySkySafeSubscription",
						"label": "plan",
						"offset": 0,
						"slot": "0",
						"type": "t_enum(PlanType)337"
					},
					{
						"astId": 342,
						"contract": "FlySkySafeSubscription.sol:FlySkySafeSubscription",
						"label": "expiry",
						"offset": 0,
						"slot": "1",
						"type": "t_uint256"
					}
				],
				"numberOfBytes": "64"
			},
			"t_uint256": {
				"encoding": "inplace",
				"label": "uint256",
				"numberOfBytes": "32"
			}
		}
	},
	"web3Deploy": "var _busdToken = /* var of type address here */ ;\nvar _initialOwner = /* var of type address here */ ;\nvar flyskysafesubscriptionContract = new web3.eth.Contract([{\"inputs\":[{\"internalType\":\"address\",\"name\":\"_busdToken\",\"type\":\"address\"},{\"internalType\":\"address\",\"name\":\"_initialOwner\",\"type\":\"address\"}],\"stateMutability\":\"nonpayable\",\"type\":\"constructor\"},{\"inputs\":[{\"internalType\":\"address\",\"name\":\"owner\",\"type\":\"address\"}],\"name\":\"OwnableInvalidOwner\",\"type\":\"error\"},{\"inputs\":[{\"internalType\":\"address\",\"name\":\"account\",\"type\":\"address\"}],\"name\":\"OwnableUnauthorizedAccount\",\"type\":\"error\"},{\"anonymous\":false,\"inputs\":[{\"indexed\":true,\"internalType\":\"address\",\"name\":\"owner\",\"type\":\"address\"},{\"indexed\":false,\"internalType\":\"uint256\",\"name\":\"amount\",\"type\":\"uint256\"}],\"name\":\"FundsWithdrawn\",\"type\":\"event\"},{\"anonymous\":false,\"inputs\":[{\"indexed\":true,\"internalType\":\"address\",\"name\":\"previousOwner\",\"type\":\"address\"},{\"indexed\":true,\"internalType\":\"address\",\"name\":\"newOwner\",\"type\":\"address\"}],\"name\":\"OwnershipTransferred\",\"type\":\"event\"},{\"anonymous\":false,\"inputs\":[{\"indexed\":false,\"internalType\":\"uint256\",\"name\":\"newBusinessMonthly\",\"type\":\"uint256\"},{\"indexed\":false,\"internalType\":\"uint256\",\"name\":\"newFirstSixMonths\",\"type\":\"uint256\"},{\"indexed\":false,\"internalType\":\"uint256\",\"name\":\"newFirstLifetime\",\"type\":\"uint256\"}],\"name\":\"PricesUpdated\",\"type\":\"event\"},{\"anonymous\":false,\"inputs\":[{\"indexed\":true,\"internalType\":\"address\",\"name\":\"user\",\"type\":\"address\"},{\"indexed\":false,\"internalType\":\"enum FlySkySafeSubscription.PlanType\",\"name\":\"plan\",\"type\":\"uint8\"},{\"indexed\":false,\"internalType\":\"uint256\",\"name\":\"expiry\",\"type\":\"uint256\"}],\"name\":\"Subscribed\",\"type\":\"event\"},{\"inputs\":[],\"name\":\"busdToken\",\"outputs\":[{\"internalType\":\"contract IERC20\",\"name\":\"\",\"type\":\"address\"}],\"stateMutability\":\"view\",\"type\":\"function\"},{\"inputs\":[{\"internalType\":\"address\",\"name\":\"user\",\"type\":\"address\"}],\"name\":\"getUserSubscription\",\"outputs\":[{\"internalType\":\"enum FlySkySafeSubscription.PlanType\",\"name\":\"plan\",\"type\":\"uint8\"},{\"internalType\":\"uint256\",\"name\":\"expiry\",\"type\":\"uint256\"}],\"stateMutability\":\"view\",\"type\":\"function\"},{\"inputs\":[],\"name\":\"owner\",\"outputs\":[{\"internalType\":\"address\",\"name\":\"\",\"type\":\"address\"}],\"stateMutability\":\"view\",\"type\":\"function\"},{\"inputs\":[],\"name\":\"priceBusinessMonthly\",\"outputs\":[{\"internalType\":\"uint256\",\"name\":\"\",\"type\":\"uint256\"}],\"stateMutability\":\"view\",\"type\":\"function\"},{\"inputs\":[],\"name\":\"priceFirstLifetime\",\"outputs\":[{\"internalType\":\"uint256\",\"name\":\"\",\"type\":\"uint256\"}],\"stateMutability\":\"view\",\"type\":\"function\"},{\"inputs\":[],\"name\":\"priceFirstSixMonths\",\"outputs\":[{\"internalType\":\"uint256\",\"name\":\"\",\"type\":\"uint256\"}],\"stateMutability\":\"view\",\"type\":\"function\"},{\"inputs\":[],\"name\":\"renounceOwnership\",\"outputs\":[],\"stateMutability\":\"nonpayable\",\"type\":\"function\"},{\"inputs\":[{\"internalType\":\"enum FlySkySafeSubscription.PlanType\",\"name\":\"plan\",\"type\":\"uint8\"}],\"name\":\"subscribe\",\"outputs\":[],\"stateMutability\":\"nonpayable\",\"type\":\"function\"},{\"inputs\":[{\"internalType\":\"address\",\"name\":\"\",\"type\":\"address\"}],\"name\":\"subscriptions\",\"outputs\":[{\"internalType\":\"enum FlySkySafeSubscription.PlanType\",\"name\":\"plan\",\"type\":\"uint8\"},{\"internalType\":\"uint256\",\"name\":\"expiry\",\"type\":\"uint256\"}],\"stateMutability\":\"view\",\"type\":\"function\"},{\"inputs\":[{\"internalType\":\"address\",\"name\":\"newOwner\",\"type\":\"address\"}],\"name\":\"transferOwnership\",\"outputs\":[],\"stateMutability\":\"nonpayable\",\"type\":\"function\"},{\"inputs\":[{\"internalType\":\"uint256\",\"name\":\"newBusinessMonthly\",\"type\":\"uint256\"},{\"internalType\":\"uint256\",\"name\":\"newFirstSixMonths\",\"type\":\"uint256\"},{\"internalType\":\"uint256\",\"name\":\"newFirstLifetime\",\"type\":\"uint256\"}],\"name\":\"updatePrices\",\"outputs\":[],\"stateMutability\":\"nonpayable\",\"type\":\"function\"},{\"inputs\":[{\"internalType\":\"uint256\",\"name\":\"amount\",\"type\":\"uint256\"}],\"name\":\"withdrawFunds\",\"outputs\":[],\"stateMutability\":\"nonpayable\",\"type\":\"function\"}]);\nvar flyskysafesubscription = flyskysafesubscriptionContract.deploy({\n     data: '0x60a0604052678ac7230489e800006003556802a802f8630a24000060045568055de6a779bbac0000600555348015610035575f80fd5b50604051611723380380611723833981810160405281019061005791906102a7565b805f73ffffffffffffffffffffffffffffffffffffffff168173ffffffffffffffffffffffffffffffffffffffff16036100c8575f6040517f1e4fbdf70000000000000000000000000000000000000000000000000000000081526004016100bf91906102f4565b60405180910390fd5b6100d78161018860201b60201c565b50600180819055505f73ffffffffffffffffffffffffffffffffffffffff168273ffffffffffffffffffffffffffffffffffffffff160361014d576040517f08c379a000000000000000000000000000000000000000000000000000000000815260040161014490610367565b60405180910390fd5b8173ffffffffffffffffffffffffffffffffffffffff1660808173ffffffffffffffffffffffffffffffffffffffff16815250505050610385565b5f805f9054906101000a900473ffffffffffffffffffffffffffffffffffffffff169050815f806101000a81548173ffffffffffffffffffffffffffffffffffffffff021916908373ffffffffffffffffffffffffffffffffffffffff1602179055508173ffffffffffffffffffffffffffffffffffffffff168173ffffffffffffffffffffffffffffffffffffffff167f8be0079c531659141344cd1fd0a4f28419497f9722a3daafe3b4186f6b6457e060405160405180910390a35050565b5f80fd5b5f73ffffffffffffffffffffffffffffffffffffffff82169050919050565b5f6102768261024d565b9050919050565b6102868161026c565b8114610290575f80fd5b50565b5f815190506102a18161027d565b92915050565b5f80604083850312156102bd576102bc610249565b5b5f6102ca85828601610293565b92505060206102db85828601610293565b9150509250929050565b6102ee8161026c565b82525050565b5f6020820190506103075f8301846102e5565b92915050565b5f82825260208201905092915050565b7f496e76616c6964204255534420616464726573730000000000000000000000005f82015250565b5f61035160148361030d565b915061035c8261031d565b602082019050919050565b5f6020820190508181035f83015261037e81610345565b9050919050565b6080516113716103b25f395f818161023b01528181610314015281816106ac015261092601526113715ff3fe608060405234801561000f575f80fd5b50600436106100b2575f3560e01c8063a8fc30d41161006f578063a8fc30d414610150578063de0e70141461016e578063ebbeec081461018c578063effce0d4146101bd578063f046395a146101db578063f2fde38b1461020c576100b2565b8063155dd5ee146100b65780632210221a146100d25780633ed620a4146100f057806349c7e6391461010c578063715018a6146101285780638da5cb5b14610132575b5f80fd5b6100d060048036038101906100cb9190610c7f565b610228565b005b6100da610445565b6040516100e79190610cb9565b60405180910390f35b61010a60048036038101906101059190610cd2565b61044b565b005b61012660048036038101906101219190610d45565b6104a8565b005b6101306108e4565b005b61013a6108f7565b6040516101479190610daf565b60405180910390f35b61015861091e565b6040516101659190610cb9565b60405180910390f35b610176610924565b6040516101839190610e23565b60405180910390f35b6101a660048036038101906101a19190610e66565b610948565b6040516101b4929190610f04565b60405180910390f35b6101c56109eb565b6040516101d29190610cb9565b60405180910390f35b6101f560048036038101906101f09190610e66565b6109f1565b604051610203929190610f04565b60405180910390f35b61022660048036038101906102219190610e66565b610a1d565b005b610230610aa1565b610238610b28565b807f000000000000000000000000000000000000000000000000000000000000000073ffffffffffffffffffffffffffffffffffffffff166370a08231306040518263ffffffff1660e01b81526004016102929190610daf565b602060405180830381865afa1580156102ad573d5f803e3d5ffd5b505050506040513d601f19601f820116820180604052508101906102d19190610f3f565b1015610312576040517f08c379a000000000000000000000000000000000000000000000000000000000815260040161030990610fc4565b60405180910390fd5b7f000000000000000000000000000000000000000000000000000000000000000073ffffffffffffffffffffffffffffffffffffffff1663a9059cbb33836040518363ffffffff1660e01b815260040161036d929190610fe2565b6020604051808303815f875af1158015610389573d5f803e3d5ffd5b505050506040513d601f19601f820116820180604052508101906103ad919061103e565b6103ec576040517f08c379a00000000000000000000000000000000000000000000000000000000081526004016103e3906110b3565b60405180910390fd5b3373ffffffffffffffffffffffffffffffffffffffff167feaff4b37086828766ad3268786972c0cd24259d4c87a80f9d3963a3c3d999b0d826040516104329190610cb9565b60405180910390a2610442610b77565b50565b60035481565b610453610aa1565b8260038190555081600481905550806005819055507fa6b830b74e52d7d1140e76252f225dc7bed28782519845600bbd3182341dc11583838360405161049b939291906110d1565b60405180910390a1505050565b6104b0610b28565b5f60038111156104c3576104c2610e91565b5b8160038111156104d6576104d5610e91565b5b03610516576040517f08c379a000000000000000000000000000000000000000000000000000000000815260040161050d90611150565b60405180910390fd5b5f60025f3373ffffffffffffffffffffffffffffffffffffffff1673ffffffffffffffffffffffffffffffffffffffff1681526020019081526020015f2090505f600381111561056957610568610e91565b5b815f015f9054906101000a900460ff16600381111561058b5761058a610e91565b5b148061059b575080600101544210155b6105da576040517f08c379a00000000000000000000000000000000000000000000000000000000081526004016105d1906111b8565b60405180910390fd5b5f80600160038111156105f0576105ef610e91565b5b84600381111561060357610602610e91565b5b0361061857600354915062278d0090506106aa565b6002600381111561062c5761062b610e91565b5b84600381111561063f5761063e610e91565b5b0361065457600454915062ed4e0090506106a9565b60038081111561066757610666610e91565b5b84600381111561067a57610679610e91565b5b036106a85760055491507fffffffffffffffffffffffffffffffffffffffffffffffffffffffffffffffff90505b5b5b7f000000000000000000000000000000000000000000000000000000000000000073ffffffffffffffffffffffffffffffffffffffff166323b872dd3330856040518463ffffffff1660e01b8152600401610707939291906111d6565b6020604051808303815f875af1158015610723573d5f803e3d5ffd5b505050506040513d601f19601f82011682018060405250810190610747919061103e565b610786576040517f08c379a000000000000000000000000000000000000000000000000000000000815260040161077d90611255565b60405180910390fd5b5f60038081111561079a57610799610e91565b5b8560038111156107ad576107ac610e91565b5b146107c35781426107be91906112a0565b6107e5565b7fffffffffffffffffffffffffffffffffffffffffffffffffffffffffffffffff5b9050604051806040016040528086600381111561080557610804610e91565b5b81526020018281525060025f3373ffffffffffffffffffffffffffffffffffffffff1673ffffffffffffffffffffffffffffffffffffffff1681526020019081526020015f205f820151815f015f6101000a81548160ff0219169083600381111561087357610872610e91565b5b0217905550602082015181600101559050503373ffffffffffffffffffffffffffffffffffffffff167f044f95a2d17727b5b87e4f23d70278b59a2b0b285289cc9021cac8cdba4797b786836040516108cd929190610f04565b60405180910390a2505050506108e1610b77565b50565b6108ec610aa1565b6108f55f610b80565b565b5f805f9054906101000a900473ffffffffffffffffffffffffffffffffffffffff16905090565b60045481565b7f000000000000000000000000000000000000000000000000000000000000000081565b5f805f60025f8573ffffffffffffffffffffffffffffffffffffffff1673ffffffffffffffffffffffffffffffffffffffff1681526020019081526020015f206040518060400160405290815f82015f9054906101000a900460ff1660038111156109b6576109b5610e91565b5b60038111156109c8576109c7610e91565b5b81526020016001820154815250509050805f015181602001519250925050915091565b60055481565b6002602052805f5260405f205f91509050805f015f9054906101000a900460ff16908060010154905082565b610a25610aa1565b5f73ffffffffffffffffffffffffffffffffffffffff168173ffffffffffffffffffffffffffffffffffffffff1603610a95575f6040517f1e4fbdf7000000000000000000000000000000000000000000000000000000008152600401610a8c9190610daf565b60405180910390fd5b610a9e81610b80565b50565b610aa9610c41565b73ffffffffffffffffffffffffffffffffffffffff16610ac76108f7565b73ffffffffffffffffffffffffffffffffffffffff1614610b2657610aea610c41565b6040517f118cdaa7000000000000000000000000000000000000000000000000000000008152600401610b1d9190610daf565b60405180910390fd5b565b600260015403610b6d576040517f08c379a0000000000000000000000000000000000000000000000000000000008152600401610b649061131d565b60405180910390fd5b6002600181905550565b60018081905550565b5f805f9054906101000a900473ffffffffffffffffffffffffffffffffffffffff169050815f806101000a81548173ffffffffffffffffffffffffffffffffffffffff021916908373ffffffffffffffffffffffffffffffffffffffff1602179055508173ffffffffffffffffffffffffffffffffffffffff168173ffffffffffffffffffffffffffffffffffffffff167f8be0079c531659141344cd1fd0a4f28419497f9722a3daafe3b4186f6b6457e060405160405180910390a35050565b5f33905090565b5f80fd5b5f819050919050565b610c5e81610c4c565b8114610c68575f80fd5b50565b5f81359050610c7981610c55565b92915050565b5f60208284031215610c9457610c93610c48565b5b5f610ca184828501610c6b565b91505092915050565b610cb381610c4c565b82525050565b5f602082019050610ccc5f830184610caa565b92915050565b5f805f60608486031215610ce957610ce8610c48565b5b5f610cf686828701610c6b565b9350506020610d0786828701610c6b565b9250506040610d1886828701610c6b565b9150509250925092565b60048110610d2e575f80fd5b50565b5f81359050610d3f81610d22565b92915050565b5f60208284031215610d5a57610d59610c48565b5b5f610d6784828501610d31565b91505092915050565b5f73ffffffffffffffffffffffffffffffffffffffff82169050919050565b5f610d9982610d70565b9050919050565b610da981610d8f565b82525050565b5f602082019050610dc25f830184610da0565b92915050565b5f819050919050565b5f610deb610de6610de184610d70565b610dc8565b610d70565b9050919050565b5f610dfc82610dd1565b9050919050565b5f610e0d82610df2565b9050919050565b610e1d81610e03565b82525050565b5f602082019050610e365f830184610e14565b92915050565b610e4581610d8f565b8114610e4f575f80fd5b50565b5f81359050610e6081610e3c565b92915050565b5f60208284031215610e7b57610e7a610c48565b5b5f610e8884828501610e52565b91505092915050565b7f4e487b71000000000000000000000000000000000000000000000000000000005f52602160045260245ffd5b60048110610ecf57610ece610e91565b5b50565b5f819050610edf82610ebe565b919050565b5f610eee82610ed2565b9050919050565b610efe81610ee4565b82525050565b5f604082019050610f175f830185610ef5565b610f246020830184610caa565b9392505050565b5f81519050610f3981610c55565b92915050565b5f60208284031215610f5457610f53610c48565b5b5f610f6184828501610f2b565b91505092915050565b5f82825260208201905092915050565b7f496e73756666696369656e7420636f6e74726163742062616c616e63650000005f82015250565b5f610fae601d83610f6a565b9150610fb982610f7a565b602082019050919050565b5f6020820190508181035f830152610fdb81610fa2565b9050919050565b5f604082019050610ff55f830185610da0565b6110026020830184610caa565b9392505050565b5f8115159050919050565b61101d81611009565b8114611027575f80fd5b50565b5f8151905061103881611014565b92915050565b5f6020828403121561105357611052610c48565b5b5f6110608482850161102a565b91505092915050565b7f5769746864726177616c206661696c65640000000000000000000000000000005f82015250565b5f61109d601183610f6a565b91506110a882611069565b602082019050919050565b5f6020820190508181035f8301526110ca81611091565b9050919050565b5f6060820190506110e45f830186610caa565b6110f16020830185610caa565b6110fe6040830184610caa565b949350505050565b7f496e76616c696420706c616e00000000000000000000000000000000000000005f82015250565b5f61113a600c83610f6a565b915061114582611106565b602082019050919050565b5f6020820190508181035f8301526111678161112e565b9050919050565b7f4578697374696e672061637469766520737562736372697074696f6e000000005f82015250565b5f6111a2601c83610f6a565b91506111ad8261116e565b602082019050919050565b5f6020820190508181035f8301526111cf81611196565b9050919050565b5f6060820190506111e95f830186610da0565b6111f66020830185610da0565b6112036040830184610caa565b949350505050565b7f5061796d656e74206661696c65640000000000000000000000000000000000005f82015250565b5f61123f600e83610f6a565b915061124a8261120b565b602082019050919050565b5f6020820190508181035f83015261126c81611233565b9050919050565b7f4e487b71000000000000000000000000000000000000000000000000000000005f52601160045260245ffd5b5f6112aa82610c4c565b91506112b583610c4c565b92508282019050808211156112cd576112cc611273565b5b92915050565b7f5265656e7472616e637947756172643a207265656e7472616e742063616c6c005f82015250565b5f611307601f83610f6a565b9150611312826112d3565b602082019050919050565b5f6020820190508181035f830152611334816112fb565b905091905056fea26469706673582212208be9e1a538e97e103d809665a3d11ee43d6a5608b2545b5cb4a316a443908ff564736f6c634300081a0033', \n     arguments: [\n          _busdToken,\n          _initialOwner,\n     ]\n}).send({\n     from: web3.eth.accounts[0], \n     gas: '4700000'\n   }, function (e, contract){\n    console.log(e, contract);\n    if (typeof contract.address !== 'undefined') {\n         console.log('Contract mined! address: ' + contract.address + ' transactionHash: ' + contract.transactionHash);\n    }\n })",
	"functionHashes": {
		"de0e7014": "busdToken()",
		"ebbeec08": "getUserSubscription(address)",
		"8da5cb5b": "owner()",
		"2210221a": "priceBusinessMonthly()",
		"effce0d4": "priceFirstLifetime()",
		"a8fc30d4": "priceFirstSixMonths()",
		"715018a6": "renounceOwnership()",
		"49c7e639": "subscribe(uint8)",
		"f046395a": "subscriptions(address)",
		"f2fde38b": "transferOwnership(address)",
		"3ed620a4": "updatePrices(uint256,uint256,uint256)",
		"155dd5ee": "withdrawFunds(uint256)"
	},
	"gasEstimates": {
		"Creation": {
			"codeDepositCost": "995400",
			"executionCost": "infinite",
			"totalCost": "infinite"
		},
		"External": {
			"busdToken()": "infinite",
			"getUserSubscription(address)": "5365",
			"owner()": "2626",
			"priceBusinessMonthly()": "2448",
			"priceFirstLifetime()": "2491",
			"priceFirstSixMonths()": "2425",
			"renounceOwnership()": "infinite",
			"subscribe(uint8)": "infinite",
			"subscriptions(address)": "5243",
			"transferOwnership(address)": "infinite",
			"updatePrices(uint256,uint256,uint256)": "infinite",
			"withdrawFunds(uint256)": "infinite"
		}
	},
	"devdoc": {
		"errors": {
			"OwnableInvalidOwner(address)": [
				{
					"details": "The owner is not a valid owner account. (eg. `address(0)`)"
				}
			],
			"OwnableUnauthorizedAccount(address)": [
				{
					"details": "The caller account is not authorized to perform an operation."
				}
			]
		},
		"kind": "dev",
		"methods": {
			"owner()": {
				"details": "Returns the address of the current owner."
			},
			"renounceOwnership()": {
				"details": "Leaves the contract without owner. It will not be possible to call `onlyOwner` functions. Can only be called by the current owner. NOTE: Renouncing ownership will leave the contract without an owner, thereby disabling any functionality that is only available to the owner."
			},
			"transferOwnership(address)": {
				"details": "Transfers ownership of the contract to a new account (`newOwner`). Can only be called by the current owner."
			}
		},
		"version": 1
	},
	"userdoc": {
		"kind": "user",
		"methods": {},
		"version": 1
	},
	"Runtime Bytecode": {
		"immutableReferences": {
			"332": [
				{
					"length": 32,
					"start": 571
				},
				{
					"length": 32,
					"start": 788
				},
				{
					"length": 32,
					"start": 1708
				},
				{
					"length": 32,
					"start": 2342
				}
			]
		},
		"linkReferences": {},
		"object": "608060405234801561000f575f80fd5b50600436106100b2575f3560e01c8063a8fc30d41161006f578063a8fc30d414610150578063de0e70141461016e578063ebbeec081461018c578063effce0d4146101bd578063f046395a146101db578063f2fde38b1461020c576100b2565b8063155dd5ee146100b65780632210221a146100d25780633ed620a4146100f057806349c7e6391461010c578063715018a6146101285780638da5cb5b14610132575b5f80fd5b6100d060048036038101906100cb9190610c7f565b610228565b005b6100da610445565b6040516100e79190610cb9565b60405180910390f35b61010a60048036038101906101059190610cd2565b61044b565b005b61012660048036038101906101219190610d45565b6104a8565b005b6101306108e4565b005b61013a6108f7565b6040516101479190610daf565b60405180910390f35b61015861091e565b6040516101659190610cb9565b60405180910390f35b610176610924565b6040516101839190610e23565b60405180910390f35b6101a660048036038101906101a19190610e66565b610948565b6040516101b4929190610f04565b60405180910390f35b6101c56109eb565b6040516101d29190610cb9565b60405180910390f35b6101f560048036038101906101f09190610e66565b6109f1565b604051610203929190610f04565b60405180910390f35b61022660048036038101906102219190610e66565b610a1d565b005b610230610aa1565b610238610b28565b807f000000000000000000000000000000000000000000000000000000000000000073ffffffffffffffffffffffffffffffffffffffff166370a08231306040518263ffffffff1660e01b81526004016102929190610daf565b602060405180830381865afa1580156102ad573d5f803e3d5ffd5b505050506040513d601f19601f820116820180604052508101906102d19190610f3f565b1015610312576040517f08c379a000000000000000000000000000000000000000000000000000000000815260040161030990610fc4565b60405180910390fd5b7f000000000000000000000000000000000000000000000000000000000000000073ffffffffffffffffffffffffffffffffffffffff1663a9059cbb33836040518363ffffffff1660e01b815260040161036d929190610fe2565b6020604051808303815f875af1158015610389573d5f803e3d5ffd5b505050506040513d601f19601f820116820180604052508101906103ad919061103e565b6103ec576040517f08c379a00000000000000000000000000000000000000000000000000000000081526004016103e3906110b3565b60405180910390fd5b3373ffffffffffffffffffffffffffffffffffffffff167feaff4b37086828766ad3268786972c0cd24259d4c87a80f9d3963a3c3d999b0d826040516104329190610cb9565b60405180910390a2610442610b77565b50565b60035481565b610453610aa1565b8260038190555081600481905550806005819055507fa6b830b74e52d7d1140e76252f225dc7bed28782519845600bbd3182341dc11583838360405161049b939291906110d1565b60405180910390a1505050565b6104b0610b28565b5f60038111156104c3576104c2610e91565b5b8160038111156104d6576104d5610e91565b5b03610516576040517f08c379a000000000000000000000000000000000000000000000000000000000815260040161050d90611150565b60405180910390fd5b5f60025f3373ffffffffffffffffffffffffffffffffffffffff1673ffffffffffffffffffffffffffffffffffffffff1681526020019081526020015f2090505f600381111561056957610568610e91565b5b815f015f9054906101000a900460ff16600381111561058b5761058a610e91565b5b148061059b575080600101544210155b6105da576040517f08c379a00000000000000000000000000000000000000000000000000000000081526004016105d1906111b8565b60405180910390fd5b5f80600160038111156105f0576105ef610e91565b5b84600381111561060357610602610e91565b5b0361061857600354915062278d0090506106aa565b6002600381111561062c5761062b610e91565b5b84600381111561063f5761063e610e91565b5b0361065457600454915062ed4e0090506106a9565b60038081111561066757610666610e91565b5b84600381111561067a57610679610e91565b5b036106a85760055491507fffffffffffffffffffffffffffffffffffffffffffffffffffffffffffffffff90505b5b5b7f000000000000000000000000000000000000000000000000000000000000000073ffffffffffffffffffffffffffffffffffffffff166323b872dd3330856040518463ffffffff1660e01b8152600401610707939291906111d6565b6020604051808303815f875af1158015610723573d5f803e3d5ffd5b505050506040513d601f19601f82011682018060405250810190610747919061103e565b610786576040517f08c379a000000000000000000000000000000000000000000000000000000000815260040161077d90611255565b60405180910390fd5b5f60038081111561079a57610799610e91565b5b8560038111156107ad576107ac610e91565b5b146107c35781426107be91906112a0565b6107e5565b7fffffffffffffffffffffffffffffffffffffffffffffffffffffffffffffffff5b9050604051806040016040528086600381111561080557610804610e91565b5b81526020018281525060025f3373ffffffffffffffffffffffffffffffffffffffff1673ffffffffffffffffffffffffffffffffffffffff1681526020019081526020015f205f820151815f015f6101000a81548160ff0219169083600381111561087357610872610e91565b5b0217905550602082015181600101559050503373ffffffffffffffffffffffffffffffffffffffff167f044f95a2d17727b5b87e4f23d70278b59a2b0b285289cc9021cac8cdba4797b786836040516108cd929190610f04565b60405180910390a2505050506108e1610b77565b50565b6108ec610aa1565b6108f55f610b80565b565b5f805f9054906101000a900473ffffffffffffffffffffffffffffffffffffffff16905090565b60045481565b7f000000000000000000000000000000000000000000000000000000000000000081565b5f805f60025f8573ffffffffffffffffffffffffffffffffffffffff1673ffffffffffffffffffffffffffffffffffffffff1681526020019081526020015f206040518060400160405290815f82015f9054906101000a900460ff1660038111156109b6576109b5610e91565b5b60038111156109c8576109c7610e91565b5b81526020016001820154815250509050805f015181602001519250925050915091565b60055481565b6002602052805f5260405f205f91509050805f015f9054906101000a900460ff16908060010154905082565b610a25610aa1565b5f73ffffffffffffffffffffffffffffffffffffffff168173ffffffffffffffffffffffffffffffffffffffff1603610a95575f6040517f1e4fbdf7000000000000000000000000000000000000000000000000000000008152600401610a8c9190610daf565b60405180910390fd5b610a9e81610b80565b50565b610aa9610c41565b73ffffffffffffffffffffffffffffffffffffffff16610ac76108f7565b73ffffffffffffffffffffffffffffffffffffffff1614610b2657610aea610c41565b6040517f118cdaa7000000000000000000000000000000000000000000000000000000008152600401610b1d9190610daf565b60405180910390fd5b565b600260015403610b6d576040517f08c379a0000000000000000000000000000000000000000000000000000000008152600401610b649061131d565b60405180910390fd5b6002600181905550565b60018081905550565b5f805f9054906101000a900473ffffffffffffffffffffffffffffffffffffffff169050815f806101000a81548173ffffffffffffffffffffffffffffffffffffffff021916908373ffffffffffffffffffffffffffffffffffffffff1602179055508173ffffffffffffffffffffffffffffffffffffffff168173ffffffffffffffffffffffffffffffffffffffff167f8be0079c531659141344cd1fd0a4f28419497f9722a3daafe3b4186f6b6457e060405160405180910390a35050565b5f33905090565b5f80fd5b5f819050919050565b610c5e81610c4c565b8114610c68575f80fd5b50565b5f81359050610c7981610c55565b92915050565b5f60208284031215610c9457610c93610c48565b5b5f610ca184828501610c6b565b91505092915050565b610cb381610c4c565b82525050565b5f602082019050610ccc5f830184610caa565b92915050565b5f805f60608486031215610ce957610ce8610c48565b5b5f610cf686828701610c6b565b9350506020610d0786828701610c6b565b9250506040610d1886828701610c6b565b9150509250925092565b60048110610d2e575f80fd5b50565b5f81359050610d3f81610d22565b92915050565b5f60208284031215610d5a57610d59610c48565b5b5f610d6784828501610d31565b91505092915050565b5f73ffffffffffffffffffffffffffffffffffffffff82169050919050565b5f610d9982610d70565b9050919050565b610da981610d8f565b82525050565b5f602082019050610dc25f830184610da0565b92915050565b5f819050919050565b5f610deb610de6610de184610d70565b610dc8565b610d70565b9050919050565b5f610dfc82610dd1565b9050919050565b5f610e0d82610df2565b9050919050565b610e1d81610e03565b82525050565b5f602082019050610e365f830184610e14565b92915050565b610e4581610d8f565b8114610e4f575f80fd5b50565b5f81359050610e6081610e3c565b92915050565b5f60208284031215610e7b57610e7a610c48565b5b5f610e8884828501610e52565b91505092915050565b7f4e487b71000000000000000000000000000000000000000000000000000000005f52602160045260245ffd5b60048110610ecf57610ece610e91565b5b50565b5f819050610edf82610ebe565b919050565b5f610eee82610ed2565b9050919050565b610efe81610ee4565b82525050565b5f604082019050610f175f830185610ef5565b610f246020830184610caa565b9392505050565b5f81519050610f3981610c55565b92915050565b5f60208284031215610f5457610f53610c48565b5b5f610f6184828501610f2b565b91505092915050565b5f82825260208201905092915050565b7f496e73756666696369656e7420636f6e74726163742062616c616e63650000005f82015250565b5f610fae601d83610f6a565b9150610fb982610f7a565b602082019050919050565b5f6020820190508181035f830152610fdb81610fa2565b9050919050565b5f604082019050610ff55f830185610da0565b6110026020830184610caa565b9392505050565b5f8115159050919050565b61101d81611009565b8114611027575f80fd5b50565b5f8151905061103881611014565b92915050565b5f6020828403121561105357611052610c48565b5b5f6110608482850161102a565b91505092915050565b7f5769746864726177616c206661696c65640000000000000000000000000000005f82015250565b5f61109d601183610f6a565b91506110a882611069565b602082019050919050565b5f6020820190508181035f8301526110ca81611091565b9050919050565b5f6060820190506110e45f830186610caa565b6110f16020830185610caa565b6110fe6040830184610caa565b949350505050565b7f496e76616c696420706c616e00000000000000000000000000000000000000005f82015250565b5f61113a600c83610f6a565b915061114582611106565b602082019050919050565b5f6020820190508181035f8301526111678161112e565b9050919050565b7f4578697374696e672061637469766520737562736372697074696f6e000000005f82015250565b5f6111a2601c83610f6a565b91506111ad8261116e565b602082019050919050565b5f6020820190508181035f8301526111cf81611196565b9050919050565b5f6060820190506111e95f830186610da0565b6111f66020830185610da0565b6112036040830184610caa565b949350505050565b7f5061796d656e74206661696c65640000000000000000000000000000000000005f82015250565b5f61123f600e83610f6a565b915061124a8261120b565b602082019050919050565b5f6020820190508181035f83015261126c81611233565b9050919050565b7f4e487b71000000000000000000000000000000000000000000000000000000005f52601160045260245ffd5b5f6112aa82610c4c565b91506112b583610c4c565b92508282019050808211156112cd576112cc611273565b5b92915050565b7f5265656e7472616e637947756172643a207265656e7472616e742063616c6c005f82015250565b5f611307601f83610f6a565b9150611312826112d3565b602082019050919050565b5f6020820190508181035f830152611334816112fb565b905091905056fea26469706673582212208be9e1a538e97e103d809665a3d11ee43d6a5608b2545b5cb4a316a443908ff564736f6c634300081a0033",
		"opcodes": "PUSH1 0x80 PUSH1 0x40 MSTORE CALLVALUE DUP1 ISZERO PUSH2 0xF JUMPI PUSH0 DUP1 REVERT JUMPDEST POP PUSH1 0x4 CALLDATASIZE LT PUSH2 0xB2 JUMPI PUSH0 CALLDATALOAD PUSH1 0xE0 SHR DUP1 PUSH4 0xA8FC30D4 GT PUSH2 0x6F JUMPI DUP1 PUSH4 0xA8FC30D4 EQ PUSH2 0x150 JUMPI DUP1 PUSH4 0xDE0E7014 EQ PUSH2 0x16E JUMPI DUP1 PUSH4 0xEBBEEC08 EQ PUSH2 0x18C JUMPI DUP1 PUSH4 0xEFFCE0D4 EQ PUSH2 0x1BD JUMPI DUP1 PUSH4 0xF046395A EQ PUSH2 0x1DB JUMPI DUP1 PUSH4 0xF2FDE38B EQ PUSH2 0x20C JUMPI PUSH2 0xB2 JUMP JUMPDEST DUP1 PUSH4 0x155DD5EE EQ PUSH2 0xB6 JUMPI DUP1 PUSH4 0x2210221A EQ PUSH2 0xD2 JUMPI DUP1 PUSH4 0x3ED620A4 EQ PUSH2 0xF0 JUMPI DUP1 PUSH4 0x49C7E639 EQ PUSH2 0x10C JUMPI DUP1 PUSH4 0x715018A6 EQ PUSH2 0x128 JUMPI DUP1 PUSH4 0x8DA5CB5B EQ PUSH2 0x132 JUMPI JUMPDEST PUSH0 DUP1 REVERT JUMPDEST PUSH2 0xD0 PUSH1 0x4 DUP1 CALLDATASIZE SUB DUP2 ADD SWAP1 PUSH2 0xCB SWAP2 SWAP1 PUSH2 0xC7F JUMP JUMPDEST PUSH2 0x228 JUMP JUMPDEST STOP JUMPDEST PUSH2 0xDA PUSH2 0x445 JUMP JUMPDEST PUSH1 0x40 MLOAD PUSH2 0xE7 SWAP2 SWAP1 PUSH2 0xCB9 JUMP JUMPDEST PUSH1 0x40 MLOAD DUP1 SWAP2 SUB SWAP1 RETURN JUMPDEST PUSH2 0x10A PUSH1 0x4 DUP1 CALLDATASIZE SUB DUP2 ADD SWAP1 PUSH2 0x105 SWAP2 SWAP1 PUSH2 0xCD2 JUMP JUMPDEST PUSH2 0x44B JUMP JUMPDEST STOP JUMPDEST PUSH2 0x126 PUSH1 0x4 DUP1 CALLDATASIZE SUB DUP2 ADD SWAP1 PUSH2 0x121 SWAP2 SWAP1 PUSH2 0xD45 JUMP JUMPDEST PUSH2 0x4A8 JUMP JUMPDEST STOP JUMPDEST PUSH2 0x130 PUSH2 0x8E4 JUMP JUMPDEST STOP JUMPDEST PUSH2 0x13A PUSH2 0x8F7 JUMP JUMPDEST PUSH1 0x40 MLOAD PUSH2 0x147 SWAP2 SWAP1 PUSH2 0xDAF JUMP JUMPDEST PUSH1 0x40 MLOAD DUP1 SWAP2 SUB SWAP1 RETURN JUMPDEST PUSH2 0x158 PUSH2 0x91E JUMP JUMPDEST PUSH1 0x40 MLOAD PUSH2 0x165 SWAP2 SWAP1 PUSH2 0xCB9 JUMP JUMPDEST PUSH1 0x40 MLOAD DUP1 SWAP2 SUB SWAP1 RETURN JUMPDEST PUSH2 0x176 PUSH2 0x924 JUMP JUMPDEST PUSH1 0x40 MLOAD PUSH2 0x183 SWAP2 SWAP1 PUSH2 0xE23 JUMP JUMPDEST PUSH1 0x40 MLOAD DUP1 SWAP2 SUB SWAP1 RETURN JUMPDEST PUSH2 0x1A6 PUSH1 0x4 DUP1 CALLDATASIZE SUB DUP2 ADD SWAP1 PUSH2 0x1A1 SWAP2 SWAP1 PUSH2 0xE66 JUMP JUMPDEST PUSH2 0x948 JUMP JUMPDEST PUSH1 0x40 MLOAD PUSH2 0x1B4 SWAP3 SWAP2 SWAP1 PUSH2 0xF04 JUMP JUMPDEST PUSH1 0x40 MLOAD DUP1 SWAP2 SUB SWAP1 RETURN JUMPDEST PUSH2 0x1C5 PUSH2 0x9EB JUMP JUMPDEST PUSH1 0x40 MLOAD PUSH2 0x1D2 SWAP2 SWAP1 PUSH2 0xCB9 JUMP JUMPDEST PUSH1 0x40 MLOAD DUP1 SWAP2 SUB SWAP1 RETURN JUMPDEST PUSH2 0x1F5 PUSH1 0x4 DUP1 CALLDATASIZE SUB DUP2 ADD SWAP1 PUSH2 0x1F0 SWAP2 SWAP1 PUSH2 0xE66 JUMP JUMPDEST PUSH2 0x9F1 JUMP JUMPDEST PUSH1 0x40 MLOAD PUSH2 0x203 SWAP3 SWAP2 SWAP1 PUSH2 0xF04 JUMP JUMPDEST PUSH1 0x40 MLOAD DUP1 SWAP2 SUB SWAP1 RETURN JUMPDEST PUSH2 0x226 PUSH1 0x4 DUP1 CALLDATASIZE SUB DUP2 ADD SWAP1 PUSH2 0x221 SWAP2 SWAP1 PUSH2 0xE66 JUMP JUMPDEST PUSH2 0xA1D JUMP JUMPDEST STOP JUMPDEST PUSH2 0x230 PUSH2 0xAA1 JUMP JUMPDEST PUSH2 0x238 PUSH2 0xB28 JUMP JUMPDEST DUP1 PUSH32 0x0 PUSH20 0xFFFFFFFFFFFFFFFFFFFFFFFFFFFFFFFFFFFFFFFF AND PUSH4 0x70A08231 ADDRESS PUSH1 0x40 MLOAD DUP3 PUSH4 0xFFFFFFFF AND PUSH1 0xE0 SHL DUP2 MSTORE PUSH1 0x4 ADD PUSH2 0x292 SWAP2 SWAP1 PUSH2 0xDAF JUMP JUMPDEST PUSH1 0x20 PUSH1 0x40 MLOAD DUP1 DUP4 SUB DUP2 DUP7 GAS STATICCALL ISZERO DUP1 ISZERO PUSH2 0x2AD JUMPI RETURNDATASIZE PUSH0 DUP1 RETURNDATACOPY RETURNDATASIZE PUSH0 REVERT JUMPDEST POP POP POP POP PUSH1 0x40 MLOAD RETURNDATASIZE PUSH1 0x1F NOT PUSH1 0x1F DUP3 ADD AND DUP3 ADD DUP1 PUSH1 0x40 MSTORE POP DUP2 ADD SWAP1 PUSH2 0x2D1 SWAP2 SWAP1 PUSH2 0xF3F JUMP JUMPDEST LT ISZERO PUSH2 0x312 JUMPI PUSH1 0x40 MLOAD PUSH32 0x8C379A000000000000000000000000000000000000000000000000000000000 DUP2 MSTORE PUSH1 0x4 ADD PUSH2 0x309 SWAP1 PUSH2 0xFC4 JUMP JUMPDEST PUSH1 0x40 MLOAD DUP1 SWAP2 SUB SWAP1 REVERT JUMPDEST PUSH32 0x0 PUSH20 0xFFFFFFFFFFFFFFFFFFFFFFFFFFFFFFFFFFFFFFFF AND PUSH4 0xA9059CBB CALLER DUP4 PUSH1 0x40 MLOAD DUP4 PUSH4 0xFFFFFFFF AND PUSH1 0xE0 SHL DUP2 MSTORE PUSH1 0x4 ADD PUSH2 0x36D SWAP3 SWAP2 SWAP1 PUSH2 0xFE2 JUMP JUMPDEST PUSH1 0x20 PUSH1 0x40 MLOAD DUP1 DUP4 SUB DUP2 PUSH0 DUP8 GAS CALL ISZERO DUP1 ISZERO PUSH2 0x389 JUMPI RETURNDATASIZE PUSH0 DUP1 RETURNDATACOPY RETURNDATASIZE PUSH0 REVERT JUMPDEST POP POP POP POP PUSH1 0x40 MLOAD RETURNDATASIZE PUSH1 0x1F NOT PUSH1 0x1F DUP3 ADD AND DUP3 ADD DUP1 PUSH1 0x40 MSTORE POP DUP2 ADD SWAP1 PUSH2 0x3AD SWAP2 SWAP1 PUSH2 0x103E JUMP JUMPDEST PUSH2 0x3EC JUMPI PUSH1 0x40 MLOAD PUSH32 0x8C379A000000000000000000000000000000000000000000000000000000000 DUP2 MSTORE PUSH1 0x4 ADD PUSH2 0x3E3 SWAP1 PUSH2 0x10B3 JUMP JUMPDEST PUSH1 0x40 MLOAD DUP1 SWAP2 SUB SWAP1 REVERT JUMPDEST CALLER PUSH20 0xFFFFFFFFFFFFFFFFFFFFFFFFFFFFFFFFFFFFFFFF AND PUSH32 0xEAFF4B37086828766AD3268786972C0CD24259D4C87A80F9D3963A3C3D999B0D DUP3 PUSH1 0x40 MLOAD PUSH2 0x432 SWAP2 SWAP1 PUSH2 0xCB9 JUMP JUMPDEST PUSH1 0x40 MLOAD DUP1 SWAP2 SUB SWAP1 LOG2 PUSH2 0x442 PUSH2 0xB77 JUMP JUMPDEST POP JUMP JUMPDEST PUSH1 0x3 SLOAD DUP2 JUMP JUMPDEST PUSH2 0x453 PUSH2 0xAA1 JUMP JUMPDEST DUP3 PUSH1 0x3 DUP2 SWAP1 SSTORE POP DUP2 PUSH1 0x4 DUP2 SWAP1 SSTORE POP DUP1 PUSH1 0x5 DUP2 SWAP1 SSTORE POP PUSH32 0xA6B830B74E52D7D1140E76252F225DC7BED28782519845600BBD3182341DC115 DUP4 DUP4 DUP4 PUSH1 0x40 MLOAD PUSH2 0x49B SWAP4 SWAP3 SWAP2 SWAP1 PUSH2 0x10D1 JUMP JUMPDEST PUSH1 0x40 MLOAD DUP1 SWAP2 SUB SWAP1 LOG1 POP POP POP JUMP JUMPDEST PUSH2 0x4B0 PUSH2 0xB28 JUMP JUMPDEST PUSH0 PUSH1 0x3 DUP2 GT ISZERO PUSH2 0x4C3 JUMPI PUSH2 0x4C2 PUSH2 0xE91 JUMP JUMPDEST JUMPDEST DUP2 PUSH1 0x3 DUP2 GT ISZERO PUSH2 0x4D6 JUMPI PUSH2 0x4D5 PUSH2 0xE91 JUMP JUMPDEST JUMPDEST SUB PUSH2 0x516 JUMPI PUSH1 0x40 MLOAD PUSH32 0x8C379A000000000000000000000000000000000000000000000000000000000 DUP2 MSTORE PUSH1 0x4 ADD PUSH2 0x50D SWAP1 PUSH2 0x1150 JUMP JUMPDEST PUSH1 0x40 MLOAD DUP1 SWAP2 SUB SWAP1 REVERT JUMPDEST PUSH0 PUSH1 0x2 PUSH0 CALLER PUSH20 0xFFFFFFFFFFFFFFFFFFFFFFFFFFFFFFFFFFFFFFFF AND PUSH20 0xFFFFFFFFFFFFFFFFFFFFFFFFFFFFFFFFFFFFFFFF AND DUP2 MSTORE PUSH1 0x20 ADD SWAP1 DUP2 MSTORE PUSH1 0x20 ADD PUSH0 KECCAK256 SWAP1 POP PUSH0 PUSH1 0x3 DUP2 GT ISZERO PUSH2 0x569 JUMPI PUSH2 0x568 PUSH2 0xE91 JUMP JUMPDEST JUMPDEST DUP2 PUSH0 ADD PUSH0 SWAP1 SLOAD SWAP1 PUSH2 0x100 EXP SWAP1 DIV PUSH1 0xFF AND PUSH1 0x3 DUP2 GT ISZERO PUSH2 0x58B JUMPI PUSH2 0x58A PUSH2 0xE91 JUMP JUMPDEST JUMPDEST EQ DUP1 PUSH2 0x59B JUMPI POP DUP1 PUSH1 0x1 ADD SLOAD TIMESTAMP LT ISZERO JUMPDEST PUSH2 0x5DA JUMPI PUSH1 0x40 MLOAD PUSH32 0x8C379A000000000000000000000000000000000000000000000000000000000 DUP2 MSTORE PUSH1 0x4 ADD PUSH2 0x5D1 SWAP1 PUSH2 0x11B8 JUMP JUMPDEST PUSH1 0x40 MLOAD DUP1 SWAP2 SUB SWAP1 REVERT JUMPDEST PUSH0 DUP1 PUSH1 0x1 PUSH1 0x3 DUP2 GT ISZERO PUSH2 0x5F0 JUMPI PUSH2 0x5EF PUSH2 0xE91 JUMP JUMPDEST JUMPDEST DUP5 PUSH1 0x3 DUP2 GT ISZERO PUSH2 0x603 JUMPI PUSH2 0x602 PUSH2 0xE91 JUMP JUMPDEST JUMPDEST SUB PUSH2 0x618 JUMPI PUSH1 0x3 SLOAD SWAP2 POP PUSH3 0x278D00 SWAP1 POP PUSH2 0x6AA JUMP JUMPDEST PUSH1 0x2 PUSH1 0x3 DUP2 GT ISZERO PUSH2 0x62C JUMPI PUSH2 0x62B PUSH2 0xE91 JUMP JUMPDEST JUMPDEST DUP5 PUSH1 0x3 DUP2 GT ISZERO PUSH2 0x63F JUMPI PUSH2 0x63E PUSH2 0xE91 JUMP JUMPDEST JUMPDEST SUB PUSH2 0x654 JUMPI PUSH1 0x4 SLOAD SWAP2 POP PUSH3 0xED4E00 SWAP1 POP PUSH2 0x6A9 JUMP JUMPDEST PUSH1 0x3 DUP1 DUP2 GT ISZERO PUSH2 0x667 JUMPI PUSH2 0x666 PUSH2 0xE91 JUMP JUMPDEST JUMPDEST DUP5 PUSH1 0x3 DUP2 GT ISZERO PUSH2 0x67A JUMPI PUSH2 0x679 PUSH2 0xE91 JUMP JUMPDEST JUMPDEST SUB PUSH2 0x6A8 JUMPI PUSH1 0x5 SLOAD SWAP2 POP PUSH32 0xFFFFFFFFFFFFFFFFFFFFFFFFFFFFFFFFFFFFFFFFFFFFFFFFFFFFFFFFFFFFFFFF SWAP1 POP JUMPDEST JUMPDEST JUMPDEST PUSH32 0x0 PUSH20 0xFFFFFFFFFFFFFFFFFFFFFFFFFFFFFFFFFFFFFFFF AND PUSH4 0x23B872DD CALLER ADDRESS DUP6 PUSH1 0x40 MLOAD DUP5 PUSH4 0xFFFFFFFF AND PUSH1 0xE0 SHL DUP2 MSTORE PUSH1 0x4 ADD PUSH2 0x707 SWAP4 SWAP3 SWAP2 SWAP1 PUSH2 0x11D6 JUMP JUMPDEST PUSH1 0x20 PUSH1 0x40 MLOAD DUP1 DUP4 SUB DUP2 PUSH0 DUP8 GAS CALL ISZERO DUP1 ISZERO PUSH2 0x723 JUMPI RETURNDATASIZE PUSH0 DUP1 RETURNDATACOPY RETURNDATASIZE PUSH0 REVERT JUMPDEST POP POP POP POP PUSH1 0x40 MLOAD RETURNDATASIZE PUSH1 0x1F NOT PUSH1 0x1F DUP3 ADD AND DUP3 ADD DUP1 PUSH1 0x40 MSTORE POP DUP2 ADD SWAP1 PUSH2 0x747 SWAP2 SWAP1 PUSH2 0x103E JUMP JUMPDEST PUSH2 0x786 JUMPI PUSH1 0x40 MLOAD PUSH32 0x8C379A000000000000000000000000000000000000000000000000000000000 DUP2 MSTORE PUSH1 0x4 ADD PUSH2 0x77D SWAP1 PUSH2 0x1255 JUMP JUMPDEST PUSH1 0x40 MLOAD DUP1 SWAP2 SUB SWAP1 REVERT JUMPDEST PUSH0 PUSH1 0x3 DUP1 DUP2 GT ISZERO PUSH2 0x79A JUMPI PUSH2 0x799 PUSH2 0xE91 JUMP JUMPDEST JUMPDEST DUP6 PUSH1 0x3 DUP2 GT ISZERO PUSH2 0x7AD JUMPI PUSH2 0x7AC PUSH2 0xE91 JUMP JUMPDEST JUMPDEST EQ PUSH2 0x7C3 JUMPI DUP2 TIMESTAMP PUSH2 0x7BE SWAP2 SWAP1 PUSH2 0x12A0 JUMP JUMPDEST PUSH2 0x7E5 JUMP JUMPDEST PUSH32 0xFFFFFFFFFFFFFFFFFFFFFFFFFFFFFFFFFFFFFFFFFFFFFFFFFFFFFFFFFFFFFFFF JUMPDEST SWAP1 POP PUSH1 0x40 MLOAD DUP1 PUSH1 0x40 ADD PUSH1 0x40 MSTORE DUP1 DUP7 PUSH1 0x3 DUP2 GT ISZERO PUSH2 0x805 JUMPI PUSH2 0x804 PUSH2 0xE91 JUMP JUMPDEST JUMPDEST DUP2 MSTORE PUSH1 0x20 ADD DUP3 DUP2 MSTORE POP PUSH1 0x2 PUSH0 CALLER PUSH20 0xFFFFFFFFFFFFFFFFFFFFFFFFFFFFFFFFFFFFFFFF AND PUSH20 0xFFFFFFFFFFFFFFFFFFFFFFFFFFFFFFFFFFFFFFFF AND DUP2 MSTORE PUSH1 0x20 ADD SWAP1 DUP2 MSTORE PUSH1 0x20 ADD PUSH0 KECCAK256 PUSH0 DUP3 ADD MLOAD DUP2 PUSH0 ADD PUSH0 PUSH2 0x100 EXP DUP2 SLOAD DUP2 PUSH1 0xFF MUL NOT AND SWAP1 DUP4 PUSH1 0x3 DUP2 GT ISZERO PUSH2 0x873 JUMPI PUSH2 0x872 PUSH2 0xE91 JUMP JUMPDEST JUMPDEST MUL OR SWAP1 SSTORE POP PUSH1 0x20 DUP3 ADD MLOAD DUP2 PUSH1 0x1 ADD SSTORE SWAP1 POP POP CALLER PUSH20 0xFFFFFFFFFFFFFFFFFFFFFFFFFFFFFFFFFFFFFFFF AND PUSH32 0x44F95A2D17727B5B87E4F23D70278B59A2B0B285289CC9021CAC8CDBA4797B7 DUP7 DUP4 PUSH1 0x40 MLOAD PUSH2 0x8CD SWAP3 SWAP2 SWAP1 PUSH2 0xF04 JUMP JUMPDEST PUSH1 0x40 MLOAD DUP1 SWAP2 SUB SWAP1 LOG2 POP POP POP POP PUSH2 0x8E1 PUSH2 0xB77 JUMP JUMPDEST POP JUMP JUMPDEST PUSH2 0x8EC PUSH2 0xAA1 JUMP JUMPDEST PUSH2 0x8F5 PUSH0 PUSH2 0xB80 JUMP JUMPDEST JUMP JUMPDEST PUSH0 DUP1 PUSH0 SWAP1 SLOAD SWAP1 PUSH2 0x100 EXP SWAP1 DIV PUSH20 0xFFFFFFFFFFFFFFFFFFFFFFFFFFFFFFFFFFFFFFFF AND SWAP1 POP SWAP1 JUMP JUMPDEST PUSH1 0x4 SLOAD DUP2 JUMP JUMPDEST PUSH32 0x0 DUP2 JUMP JUMPDEST PUSH0 DUP1 PUSH0 PUSH1 0x2 PUSH0 DUP6 PUSH20 0xFFFFFFFFFFFFFFFFFFFFFFFFFFFFFFFFFFFFFFFF AND PUSH20 0xFFFFFFFFFFFFFFFFFFFFFFFFFFFFFFFFFFFFFFFF AND DUP2 MSTORE PUSH1 0x20 ADD SWAP1 DUP2 MSTORE PUSH1 0x20 ADD PUSH0 KECCAK256 PUSH1 0x40 MLOAD DUP1 PUSH1 0x40 ADD PUSH1 0x40 MSTORE SWAP1 DUP2 PUSH0 DUP3 ADD PUSH0 SWAP1 SLOAD SWAP1 PUSH2 0x100 EXP SWAP1 DIV PUSH1 0xFF AND PUSH1 0x3 DUP2 GT ISZERO PUSH2 0x9B6 JUMPI PUSH2 0x9B5 PUSH2 0xE91 JUMP JUMPDEST JUMPDEST PUSH1 0x3 DUP2 GT ISZERO PUSH2 0x9C8 JUMPI PUSH2 0x9C7 PUSH2 0xE91 JUMP JUMPDEST JUMPDEST DUP2 MSTORE PUSH1 0x20 ADD PUSH1 0x1 DUP3 ADD SLOAD DUP2 MSTORE POP POP SWAP1 POP DUP1 PUSH0 ADD MLOAD DUP2 PUSH1 0x20 ADD MLOAD SWAP3 POP SWAP3 POP POP SWAP2 POP SWAP2 JUMP JUMPDEST PUSH1 0x5 SLOAD DUP2 JUMP JUMPDEST PUSH1 0x2 PUSH1 0x20 MSTORE DUP1 PUSH0 MSTORE PUSH1 0x40 PUSH0 KECCAK256 PUSH0 SWAP2 POP SWAP1 POP DUP1 PUSH0 ADD PUSH0 SWAP1 SLOAD SWAP1 PUSH2 0x100 EXP SWAP1 DIV PUSH1 0xFF AND SWAP1 DUP1 PUSH1 0x1 ADD SLOAD SWAP1 POP DUP3 JUMP JUMPDEST PUSH2 0xA25 PUSH2 0xAA1 JUMP JUMPDEST PUSH0 PUSH20 0xFFFFFFFFFFFFFFFFFFFFFFFFFFFFFFFFFFFFFFFF AND DUP2 PUSH20 0xFFFFFFFFFFFFFFFFFFFFFFFFFFFFFFFFFFFFFFFF AND SUB PUSH2 0xA95 JUMPI PUSH0 PUSH1 0x40 MLOAD PUSH32 0x1E4FBDF700000000000000000000000000000000000000000000000000000000 DUP2 MSTORE PUSH1 0x4 ADD PUSH2 0xA8C SWAP2 SWAP1 PUSH2 0xDAF JUMP JUMPDEST PUSH1 0x40 MLOAD DUP1 SWAP2 SUB SWAP1 REVERT JUMPDEST PUSH2 0xA9E DUP2 PUSH2 0xB80 JUMP JUMPDEST POP JUMP JUMPDEST PUSH2 0xAA9 PUSH2 0xC41 JUMP JUMPDEST PUSH20 0xFFFFFFFFFFFFFFFFFFFFFFFFFFFFFFFFFFFFFFFF AND PUSH2 0xAC7 PUSH2 0x8F7 JUMP JUMPDEST PUSH20 0xFFFFFFFFFFFFFFFFFFFFFFFFFFFFFFFFFFFFFFFF AND EQ PUSH2 0xB26 JUMPI PUSH2 0xAEA PUSH2 0xC41 JUMP JUMPDEST PUSH1 0x40 MLOAD PUSH32 0x118CDAA700000000000000000000000000000000000000000000000000000000 DUP2 MSTORE PUSH1 0x4 ADD PUSH2 0xB1D SWAP2 SWAP1 PUSH2 0xDAF JUMP JUMPDEST PUSH1 0x40 MLOAD DUP1 SWAP2 SUB SWAP1 REVERT JUMPDEST JUMP JUMPDEST PUSH1 0x2 PUSH1 0x1 SLOAD SUB PUSH2 0xB6D JUMPI PUSH1 0x40 MLOAD PUSH32 0x8C379A000000000000000000000000000000000000000000000000000000000 DUP2 MSTORE PUSH1 0x4 ADD PUSH2 0xB64 SWAP1 PUSH2 0x131D JUMP JUMPDEST PUSH1 0x40 MLOAD DUP1 SWAP2 SUB SWAP1 REVERT JUMPDEST PUSH1 0x2 PUSH1 0x1 DUP2 SWAP1 SSTORE POP JUMP JUMPDEST PUSH1 0x1 DUP1 DUP2 SWAP1 SSTORE POP JUMP JUMPDEST PUSH0 DUP1 PUSH0 SWAP1 SLOAD SWAP1 PUSH2 0x100 EXP SWAP1 DIV PUSH20 0xFFFFFFFFFFFFFFFFFFFFFFFFFFFFFFFFFFFFFFFF AND SWAP1 POP DUP2 PUSH0 DUP1 PUSH2 0x100 EXP DUP2 SLOAD DUP2 PUSH20 0xFFFFFFFFFFFFFFFFFFFFFFFFFFFFFFFFFFFFFFFF MUL NOT AND SWAP1 DUP4 PUSH20 0xFFFFFFFFFFFFFFFFFFFFFFFFFFFFFFFFFFFFFFFF AND MUL OR SWAP1 SSTORE POP DUP2 PUSH20 0xFFFFFFFFFFFFFFFFFFFFFFFFFFFFFFFFFFFFFFFF AND DUP2 PUSH20 0xFFFFFFFFFFFFFFFFFFFFFFFFFFFFFFFFFFFFFFFF AND PUSH32 0x8BE0079C531659141344CD1FD0A4F28419497F9722A3DAAFE3B4186F6B6457E0 PUSH1 0x40 MLOAD PUSH1 0x40 MLOAD DUP1 SWAP2 SUB SWAP1 LOG3 POP POP JUMP JUMPDEST PUSH0 CALLER SWAP1 POP SWAP1 JUMP JUMPDEST PUSH0 DUP1 REVERT JUMPDEST PUSH0 DUP2 SWAP1 POP SWAP2 SWAP1 POP JUMP JUMPDEST PUSH2 0xC5E DUP2 PUSH2 0xC4C JUMP JUMPDEST DUP2 EQ PUSH2 0xC68 JUMPI PUSH0 DUP1 REVERT JUMPDEST POP JUMP JUMPDEST PUSH0 DUP2 CALLDATALOAD SWAP1 POP PUSH2 0xC79 DUP2 PUSH2 0xC55 JUMP JUMPDEST SWAP3 SWAP2 POP POP JUMP JUMPDEST PUSH0 PUSH1 0x20 DUP3 DUP5 SUB SLT ISZERO PUSH2 0xC94 JUMPI PUSH2 0xC93 PUSH2 0xC48 JUMP JUMPDEST JUMPDEST PUSH0 PUSH2 0xCA1 DUP5 DUP3 DUP6 ADD PUSH2 0xC6B JUMP JUMPDEST SWAP2 POP POP SWAP3 SWAP2 POP POP JUMP JUMPDEST PUSH2 0xCB3 DUP2 PUSH2 0xC4C JUMP JUMPDEST DUP3 MSTORE POP POP JUMP JUMPDEST PUSH0 PUSH1 0x20 DUP3 ADD SWAP1 POP PUSH2 0xCCC PUSH0 DUP4 ADD DUP5 PUSH2 0xCAA JUMP JUMPDEST SWAP3 SWAP2 POP POP JUMP JUMPDEST PUSH0 DUP1 PUSH0 PUSH1 0x60 DUP5 DUP7 SUB SLT ISZERO PUSH2 0xCE9 JUMPI PUSH2 0xCE8 PUSH2 0xC48 JUMP JUMPDEST JUMPDEST PUSH0 PUSH2 0xCF6 DUP7 DUP3 DUP8 ADD PUSH2 0xC6B JUMP JUMPDEST SWAP4 POP POP PUSH1 0x20 PUSH2 0xD07 DUP7 DUP3 DUP8 ADD PUSH2 0xC6B JUMP JUMPDEST SWAP3 POP POP PUSH1 0x40 PUSH2 0xD18 DUP7 DUP3 DUP8 ADD PUSH2 0xC6B JUMP JUMPDEST SWAP2 POP POP SWAP3 POP SWAP3 POP SWAP3 JUMP JUMPDEST PUSH1 0x4 DUP2 LT PUSH2 0xD2E JUMPI PUSH0 DUP1 REVERT JUMPDEST POP JUMP JUMPDEST PUSH0 DUP2 CALLDATALOAD SWAP1 POP PUSH2 0xD3F DUP2 PUSH2 0xD22 JUMP JUMPDEST SWAP3 SWAP2 POP POP JUMP JUMPDEST PUSH0 PUSH1 0x20 DUP3 DUP5 SUB SLT ISZERO PUSH2 0xD5A JUMPI PUSH2 0xD59 PUSH2 0xC48 JUMP JUMPDEST JUMPDEST PUSH0 PUSH2 0xD67 DUP5 DUP3 DUP6 ADD PUSH2 0xD31 JUMP JUMPDEST SWAP2 POP POP SWAP3 SWAP2 POP POP JUMP JUMPDEST PUSH0 PUSH20 0xFFFFFFFFFFFFFFFFFFFFFFFFFFFFFFFFFFFFFFFF DUP3 AND SWAP1 POP SWAP2 SWAP1 POP JUMP JUMPDEST PUSH0 PUSH2 0xD99 DUP3 PUSH2 0xD70 JUMP JUMPDEST SWAP1 POP SWAP2 SWAP1 POP JUMP JUMPDEST PUSH2 0xDA9 DUP2 PUSH2 0xD8F JUMP JUMPDEST DUP3 MSTORE POP POP JUMP JUMPDEST PUSH0 PUSH1 0x20 DUP3 ADD SWAP1 POP PUSH2 0xDC2 PUSH0 DUP4 ADD DUP5 PUSH2 0xDA0 JUMP JUMPDEST SWAP3 SWAP2 POP POP JUMP JUMPDEST PUSH0 DUP2 SWAP1 POP SWAP2 SWAP1 POP JUMP JUMPDEST PUSH0 PUSH2 0xDEB PUSH2 0xDE6 PUSH2 0xDE1 DUP5 PUSH2 0xD70 JUMP JUMPDEST PUSH2 0xDC8 JUMP JUMPDEST PUSH2 0xD70 JUMP JUMPDEST SWAP1 POP SWAP2 SWAP1 POP JUMP JUMPDEST PUSH0 PUSH2 0xDFC DUP3 PUSH2 0xDD1 JUMP JUMPDEST SWAP1 POP SWAP2 SWAP1 POP JUMP JUMPDEST PUSH0 PUSH2 0xE0D DUP3 PUSH2 0xDF2 JUMP JUMPDEST SWAP1 POP SWAP2 SWAP1 POP JUMP JUMPDEST PUSH2 0xE1D DUP2 PUSH2 0xE03 JUMP JUMPDEST DUP3 MSTORE POP POP JUMP JUMPDEST PUSH0 PUSH1 0x20 DUP3 ADD SWAP1 POP PUSH2 0xE36 PUSH0 DUP4 ADD DUP5 PUSH2 0xE14 JUMP JUMPDEST SWAP3 SWAP2 POP POP JUMP JUMPDEST PUSH2 0xE45 DUP2 PUSH2 0xD8F JUMP JUMPDEST DUP2 EQ PUSH2 0xE4F JUMPI PUSH0 DUP1 REVERT JUMPDEST POP JUMP JUMPDEST PUSH0 DUP2 CALLDATALOAD SWAP1 POP PUSH2 0xE60 DUP2 PUSH2 0xE3C JUMP JUMPDEST SWAP3 SWAP2 POP POP JUMP JUMPDEST PUSH0 PUSH1 0x20 DUP3 DUP5 SUB SLT ISZERO PUSH2 0xE7B JUMPI PUSH2 0xE7A PUSH2 0xC48 JUMP JUMPDEST JUMPDEST PUSH0 PUSH2 0xE88 DUP5 DUP3 DUP6 ADD PUSH2 0xE52 JUMP JUMPDEST SWAP2 POP POP SWAP3 SWAP2 POP POP JUMP JUMPDEST PUSH32 0x4E487B7100000000000000000000000000000000000000000000000000000000 PUSH0 MSTORE PUSH1 0x21 PUSH1 0x4 MSTORE PUSH1 0x24 PUSH0 REVERT JUMPDEST PUSH1 0x4 DUP2 LT PUSH2 0xECF JUMPI PUSH2 0xECE PUSH2 0xE91 JUMP JUMPDEST JUMPDEST POP JUMP JUMPDEST PUSH0 DUP2 SWAP1 POP PUSH2 0xEDF DUP3 PUSH2 0xEBE JUMP JUMPDEST SWAP2 SWAP1 POP JUMP JUMPDEST PUSH0 PUSH2 0xEEE DUP3 PUSH2 0xED2 JUMP JUMPDEST SWAP1 POP SWAP2 SWAP1 POP JUMP JUMPDEST PUSH2 0xEFE DUP2 PUSH2 0xEE4 JUMP JUMPDEST DUP3 MSTORE POP POP JUMP JUMPDEST PUSH0 PUSH1 0x40 DUP3 ADD SWAP1 POP PUSH2 0xF17 PUSH0 DUP4 ADD DUP6 PUSH2 0xEF5 JUMP JUMPDEST PUSH2 0xF24 PUSH1 0x20 DUP4 ADD DUP5 PUSH2 0xCAA JUMP JUMPDEST SWAP4 SWAP3 POP POP POP JUMP JUMPDEST PUSH0 DUP2 MLOAD SWAP1 POP PUSH2 0xF39 DUP2 PUSH2 0xC55 JUMP JUMPDEST SWAP3 SWAP2 POP POP JUMP JUMPDEST PUSH0 PUSH1 0x20 DUP3 DUP5 SUB SLT ISZERO PUSH2 0xF54 JUMPI PUSH2 0xF53 PUSH2 0xC48 JUMP JUMPDEST JUMPDEST PUSH0 PUSH2 0xF61 DUP5 DUP3 DUP6 ADD PUSH2 0xF2B JUMP JUMPDEST SWAP2 POP POP SWAP3 SWAP2 POP POP JUMP JUMPDEST PUSH0 DUP3 DUP3 MSTORE PUSH1 0x20 DUP3 ADD SWAP1 POP SWAP3 SWAP2 POP POP JUMP JUMPDEST PUSH32 0x496E73756666696369656E7420636F6E74726163742062616C616E6365000000 PUSH0 DUP3 ADD MSTORE POP JUMP JUMPDEST PUSH0 PUSH2 0xFAE PUSH1 0x1D DUP4 PUSH2 0xF6A JUMP JUMPDEST SWAP2 POP PUSH2 0xFB9 DUP3 PUSH2 0xF7A JUMP JUMPDEST PUSH1 0x20 DUP3 ADD SWAP1 POP SWAP2 SWAP1 POP JUMP JUMPDEST PUSH0 PUSH1 0x20 DUP3 ADD SWAP1 POP DUP2 DUP2 SUB PUSH0 DUP4 ADD MSTORE PUSH2 0xFDB DUP2 PUSH2 0xFA2 JUMP JUMPDEST SWAP1 POP SWAP2 SWAP1 POP JUMP JUMPDEST PUSH0 PUSH1 0x40 DUP3 ADD SWAP1 POP PUSH2 0xFF5 PUSH0 DUP4 ADD DUP6 PUSH2 0xDA0 JUMP JUMPDEST PUSH2 0x1002 PUSH1 0x20 DUP4 ADD DUP5 PUSH2 0xCAA JUMP JUMPDEST SWAP4 SWAP3 POP POP POP JUMP JUMPDEST PUSH0 DUP2 ISZERO ISZERO SWAP1 POP SWAP2 SWAP1 POP JUMP JUMPDEST PUSH2 0x101D DUP2 PUSH2 0x1009 JUMP JUMPDEST DUP2 EQ PUSH2 0x1027 JUMPI PUSH0 DUP1 REVERT JUMPDEST POP JUMP JUMPDEST PUSH0 DUP2 MLOAD SWAP1 POP PUSH2 0x1038 DUP2 PUSH2 0x1014 JUMP JUMPDEST SWAP3 SWAP2 POP POP JUMP JUMPDEST PUSH0 PUSH1 0x20 DUP3 DUP5 SUB SLT ISZERO PUSH2 0x1053 JUMPI PUSH2 0x1052 PUSH2 0xC48 JUMP JUMPDEST JUMPDEST PUSH0 PUSH2 0x1060 DUP5 DUP3 DUP6 ADD PUSH2 0x102A JUMP JUMPDEST SWAP2 POP POP SWAP3 SWAP2 POP POP JUMP JUMPDEST PUSH32 0x5769746864726177616C206661696C6564000000000000000000000000000000 PUSH0 DUP3 ADD MSTORE POP JUMP JUMPDEST PUSH0 PUSH2 0x109D PUSH1 0x11 DUP4 PUSH2 0xF6A JUMP JUMPDEST SWAP2 POP PUSH2 0x10A8 DUP3 PUSH2 0x1069 JUMP JUMPDEST PUSH1 0x20 DUP3 ADD SWAP1 POP SWAP2 SWAP1 POP JUMP JUMPDEST PUSH0 PUSH1 0x20 DUP3 ADD SWAP1 POP DUP2 DUP2 SUB PUSH0 DUP4 ADD MSTORE PUSH2 0x10CA DUP2 PUSH2 0x1091 JUMP JUMPDEST SWAP1 POP SWAP2 SWAP1 POP JUMP JUMPDEST PUSH0 PUSH1 0x60 DUP3 ADD SWAP1 POP PUSH2 0x10E4 PUSH0 DUP4 ADD DUP7 PUSH2 0xCAA JUMP JUMPDEST PUSH2 0x10F1 PUSH1 0x20 DUP4 ADD DUP6 PUSH2 0xCAA JUMP JUMPDEST PUSH2 0x10FE PUSH1 0x40 DUP4 ADD DUP5 PUSH2 0xCAA JUMP JUMPDEST SWAP5 SWAP4 POP POP POP POP JUMP JUMPDEST PUSH32 0x496E76616C696420706C616E0000000000000000000000000000000000000000 PUSH0 DUP3 ADD MSTORE POP JUMP JUMPDEST PUSH0 PUSH2 0x113A PUSH1 0xC DUP4 PUSH2 0xF6A JUMP JUMPDEST SWAP2 POP PUSH2 0x1145 DUP3 PUSH2 0x1106 JUMP JUMPDEST PUSH1 0x20 DUP3 ADD SWAP1 POP SWAP2 SWAP1 POP JUMP JUMPDEST PUSH0 PUSH1 0x20 DUP3 ADD SWAP1 POP DUP2 DUP2 SUB PUSH0 DUP4 ADD MSTORE PUSH2 0x1167 DUP2 PUSH2 0x112E JUMP JUMPDEST SWAP1 POP SWAP2 SWAP1 POP JUMP JUMPDEST PUSH32 0x4578697374696E672061637469766520737562736372697074696F6E00000000 PUSH0 DUP3 ADD MSTORE POP JUMP JUMPDEST PUSH0 PUSH2 0x11A2 PUSH1 0x1C DUP4 PUSH2 0xF6A JUMP JUMPDEST SWAP2 POP PUSH2 0x11AD DUP3 PUSH2 0x116E JUMP JUMPDEST PUSH1 0x20 DUP3 ADD SWAP1 POP SWAP2 SWAP1 POP JUMP JUMPDEST PUSH0 PUSH1 0x20 DUP3 ADD SWAP1 POP DUP2 DUP2 SUB PUSH0 DUP4 ADD MSTORE PUSH2 0x11CF DUP2 PUSH2 0x1196 JUMP JUMPDEST SWAP1 POP SWAP2 SWAP1 POP JUMP JUMPDEST PUSH0 PUSH1 0x60 DUP3 ADD SWAP1 POP PUSH2 0x11E9 PUSH0 DUP4 ADD DUP7 PUSH2 0xDA0 JUMP JUMPDEST PUSH2 0x11F6 PUSH1 0x20 DUP4 ADD DUP6 PUSH2 0xDA0 JUMP JUMPDEST PUSH2 0x1203 PUSH1 0x40 DUP4 ADD DUP5 PUSH2 0xCAA JUMP JUMPDEST SWAP5 SWAP4 POP POP POP POP JUMP JUMPDEST PUSH32 0x5061796D656E74206661696C6564000000000000000000000000000000000000 PUSH0 DUP3 ADD MSTORE POP JUMP JUMPDEST PUSH0 PUSH2 0x123F PUSH1 0xE DUP4 PUSH2 0xF6A JUMP JUMPDEST SWAP2 POP PUSH2 0x124A DUP3 PUSH2 0x120B JUMP JUMPDEST PUSH1 0x20 DUP3 ADD SWAP1 POP SWAP2 SWAP1 POP JUMP JUMPDEST PUSH0 PUSH1 0x20 DUP3 ADD SWAP1 POP DUP2 DUP2 SUB PUSH0 DUP4 ADD MSTORE PUSH2 0x126C DUP2 PUSH2 0x1233 JUMP JUMPDEST SWAP1 POP SWAP2 SWAP1 POP JUMP JUMPDEST PUSH32 0x4E487B7100000000000000000000000000000000000000000000000000000000 PUSH0 MSTORE PUSH1 0x11 PUSH1 0x4 MSTORE PUSH1 0x24 PUSH0 REVERT JUMPDEST PUSH0 PUSH2 0x12AA DUP3 PUSH2 0xC4C JUMP JUMPDEST SWAP2 POP PUSH2 0x12B5 DUP4 PUSH2 0xC4C JUMP JUMPDEST SWAP3 POP DUP3 DUP3 ADD SWAP1 POP DUP1 DUP3 GT ISZERO PUSH2 0x12CD JUMPI PUSH2 0x12CC PUSH2 0x1273 JUMP JUMPDEST JUMPDEST SWAP3 SWAP2 POP POP JUMP JUMPDEST PUSH32 0x5265656E7472616E637947756172643A207265656E7472616E742063616C6C00 PUSH0 DUP3 ADD MSTORE POP JUMP JUMPDEST PUSH0 PUSH2 0x1307 PUSH1 0x1F DUP4 PUSH2 0xF6A JUMP JUMPDEST SWAP2 POP PUSH2 0x1312 DUP3 PUSH2 0x12D3 JUMP JUMPDEST PUSH1 0x20 DUP3 ADD SWAP1 POP SWAP2 SWAP1 POP JUMP JUMPDEST PUSH0 PUSH1 0x20 DUP3 ADD SWAP1 POP DUP2 DUP2 SUB PUSH0 DUP4 ADD MSTORE PUSH2 0x1334 DUP2 PUSH2 0x12FB JUMP JUMPDEST SWAP1 POP SWAP2 SWAP1 POP JUMP INVALID LOG2 PUSH5 0x6970667358 0x22 SLT KECCAK256 DUP12 0xE9 0xE1 0xA5 CODESIZE 0xE9 PUSH31 0x103D809665A3D11EE43D6A5608B2545B5CB4A316A443908FF564736F6C6343 STOP ADDMOD BYTE STOP CALLER "
	},
	"Assembly": ".code\n  PUSH A0\t\t\tcontract FlySkySafeSubscriptio...\n  PUSH 40\t\t\tcontract FlySkySafeSubscriptio...\n  MSTORE \t\t\tcontract FlySkySafeSubscriptio...\n  PUSH 8AC7230489E80000\t\t\t10 * 10**18\n  PUSH 3\t\t\tuint256 public priceBusinessMo...\n  SSTORE \t\t\tuint256 public priceBusinessMo...\n  PUSH 2A802F8630A240000\t\t\t49 * 10**18\n  PUSH 4\t\t\tuint256 public priceFirstSixMo...\n  SSTORE \t\t\tuint256 public priceFirstSixMo...\n  PUSH 55DE6A779BBAC0000\t\t\t99 * 10**18\n  PUSH 5\t\t\tuint256 public priceFirstLifet...\n  SSTORE \t\t\tuint256 public priceFirstLifet...\n  CALLVALUE \t\t\tconstructor(address _busdToken...\n  DUP1 \t\t\tconstructor(address _busdToken...\n  ISZERO \t\t\tconstructor(address _busdToken...\n  PUSH [tag] 1\t\t\tconstructor(address _busdToken...\n  JUMPI \t\t\tconstructor(address _busdToken...\n  PUSH 0\t\t\tconstructor(address _busdToken...\n  DUP1 \t\t\tconstructor(address _busdToken...\n  REVERT \t\t\tconstructor(address _busdToken...\ntag 1\t\t\tconstructor(address _busdToken...\n  JUMPDEST \t\t\tconstructor(address _busdToken...\n  POP \t\t\tconstructor(address _busdToken...\n  PUSH 40\t\t\tconstructor(address _busdToken...\n  MLOAD \t\t\tconstructor(address _busdToken...\n  PUSHSIZE \t\t\tconstructor(address _busdToken...\n  CODESIZE \t\t\tconstructor(address _busdToken...\n  SUB \t\t\tconstructor(address _busdToken...\n  DUP1 \t\t\tconstructor(address _busdToken...\n  PUSHSIZE \t\t\tconstructor(address _busdToken...\n  DUP4 \t\t\tconstructor(address _busdToken...\n  CODECOPY \t\t\tconstructor(address _busdToken...\n  DUP2 \t\t\tconstructor(address _busdToken...\n  DUP2 \t\t\tconstructor(address _busdToken...\n  ADD \t\t\tconstructor(address _busdToken...\n  PUSH 40\t\t\tconstructor(address _busdToken...\n  MSTORE \t\t\tconstructor(address _busdToken...\n  DUP2 \t\t\tconstructor(address _busdToken...\n  ADD \t\t\tconstructor(address _busdToken...\n  SWAP1 \t\t\tconstructor(address _busdToken...\n  PUSH [tag] 2\t\t\tconstructor(address _busdToken...\n  SWAP2 \t\t\tconstructor(address _busdToken...\n  SWAP1 \t\t\tconstructor(address _busdToken...\n  PUSH [tag] 3\t\t\tconstructor(address _busdToken...\n  JUMP \t\t\tconstructor(address _busdToken...\ntag 2\t\t\tconstructor(address _busdToken...\n  JUMPDEST \t\t\tconstructor(address _busdToken...\n  DUP1 \t\t\t_initialOwner\n  PUSH 0\t\t\tu\n  PUSH FFFFFFFFFFFFFFFFFFFFFFFFFFFFFFFFFFFFFFFF\t\t\tReentrant {\\r\\n        requi\n  AND \t\t\tReentrant {\\r\\n        requi\n  DUP2 \t\t\tReentrant {\\r\n  PUSH FFFFFFFFFFFFFFFFFFFFFFFFFFFFFFFFFFFFFFFF\t\t\tReentrant {\\r\\n        requi\n  AND \t\t\tReentrant {\\r\\n        requi\n  SUB \t\t\tReentrant {\\r\\n        requi\n  PUSH [tag] 8\t\t\t nonReentrant {\\r\\n        req...\n  JUMPI \t\t\t nonReentrant {\\r\\n        req...\n  PUSH 0\t\t\t \n  PUSH 40\t\t\te, \"Invalid plan\");\\r\\n\\r\\n   ...\n  MLOAD \t\t\te, \"Invalid plan\");\\r\\n\\r\\n   ...\n  PUSH 1E4FBDF700000000000000000000000000000000000000000000000000000000\t\t\te, \"Invalid plan\");\\r\\n\\r\\n   ...\n  DUP2 \t\t\te, \"Invalid plan\");\\r\\n\\r\\n   ...\n  MSTORE \t\t\te, \"Invalid plan\");\\r\\n\\r\\n   ...\n  PUSH 4\t\t\te, \"Invalid plan\");\\r\\n\\r\\n   ...\n  ADD \t\t\te, \"Invalid plan\");\\r\\n\\r\\n   ...\n  PUSH [tag] 9\t\t\te, \"Invalid plan\");\\r\\n\\r\\n   ...\n  SWAP2 \t\t\te, \"Invalid plan\");\\r\\n\\r\\n   ...\n  SWAP1 \t\t\te, \"Invalid plan\");\\r\\n\\r\\n   ...\n  PUSH [tag] 10\t\t\te, \"Invalid plan\");\\r\\n\\r\\n   ...\n  JUMP \t\t\te, \"Invalid plan\");\\r\\n\\r\\n   ...\ntag 9\t\t\te, \"Invalid plan\");\\r\\n\\r\\n   ...\n  JUMPDEST \t\t\te, \"Invalid plan\");\\r\\n\\r\\n   ...\n  PUSH 40\t\t\te, \"Invalid plan\");\\r\\n\\r\\n   ...\n  MLOAD \t\t\te, \"Invalid plan\");\\r\\n\\r\\n   ...\n  DUP1 \t\t\te, \"Invalid plan\");\\r\\n\\r\\n   ...\n  SWAP2 \t\t\te, \"Invalid plan\");\\r\\n\\r\\n   ...\n  SUB \t\t\te, \"Invalid plan\");\\r\\n\\r\\n   ...\n  SWAP1 \t\t\te, \"Invalid plan\");\\r\\n\\r\\n   ...\n  REVERT \t\t\te, \"Invalid plan\");\\r\\n\\r\\n   ...\ntag 8\t\t\t nonReentrant {\\r\\n        req...\n  JUMPDEST \t\t\t nonReentrant {\\r\\n        req...\n  PUSH [tag] 11\t\t\t userSub = subscriptions[msg.s...\n  DUP2 \t\t\ttions[msg.se\n  PUSH [tag] 12\t\t\t userSub = subscri\n  PUSH 20\t\t\t userSub = subscri\n  SHL \t\t\t userSub = subscri\n  PUSH 20\t\t\t userSub = subscriptions[msg.s...\n  SHR \t\t\t userSub = subscriptions[msg.s...\n  JUMP \t\t\t userSub = subscriptions[msg.s...\ntag 11\t\t\t userSub = subscriptions[msg.s...\n  JUMPDEST \t\t\t userSub = subscriptions[msg.s...\n  POP \t\t\t  function subscribe(PlanType ...\n  PUSH 1\t\t\t \n  DUP1 \t\t\tration \n  DUP2 \t\t\tration = 180 days;\\r\\n  \n  SWAP1 \t\t\tration = 180 days;\\r\\n  \n  SSTORE \t\t\tration = 180 days;\\r\\n  \n  POP \t\t\tration = 180 days;\\r\\n  \n  PUSH 0\t\t\t0\n  PUSH FFFFFFFFFFFFFFFFFFFFFFFFFFFFFFFFFFFFFFFF\t\t\t_busdToken != address(0)\n  AND \t\t\t_busdToken != address(0)\n  DUP3 \t\t\t_busdToken\n  PUSH FFFFFFFFFFFFFFFFFFFFFFFFFFFFFFFFFFFFFFFF\t\t\t_busdToken != address(0)\n  AND \t\t\t_busdToken != address(0)\n  SUB \t\t\t_busdToken != address(0)\n  PUSH [tag] 15\t\t\trequire(_busdToken != address(...\n  JUMPI \t\t\trequire(_busdToken != address(...\n  PUSH 40\t\t\trequire(_busdToken != address(...\n  MLOAD \t\t\trequire(_busdToken != address(...\n  PUSH 8C379A000000000000000000000000000000000000000000000000000000000\t\t\trequire(_busdToken != address(...\n  DUP2 \t\t\trequire(_busdToken != address(...\n  MSTORE \t\t\trequire(_busdToken != address(...\n  PUSH 4\t\t\trequire(_busdToken != address(...\n  ADD \t\t\trequire(_busdToken != address(...\n  PUSH [tag] 16\t\t\trequire(_busdToken != address(...\n  SWAP1 \t\t\trequire(_busdToken != address(...\n  PUSH [tag] 17\t\t\trequire(_busdToken != address(...\n  JUMP \t\t\trequire(_busdToken != address(...\ntag 16\t\t\trequire(_busdToken != address(...\n  JUMPDEST \t\t\trequire(_busdToken != address(...\n  PUSH 40\t\t\trequire(_busdToken != address(...\n  MLOAD \t\t\trequire(_busdToken != address(...\n  DUP1 \t\t\trequire(_busdToken != address(...\n  SWAP2 \t\t\trequire(_busdToken != address(...\n  SUB \t\t\trequire(_busdToken != address(...\n  SWAP1 \t\t\trequire(_busdToken != address(...\n  REVERT \t\t\trequire(_busdToken != address(...\ntag 15\t\t\trequire(_busdToken != address(...\n  JUMPDEST \t\t\trequire(_busdToken != address(...\n  DUP2 \t\t\t_busdToken\n  PUSH FFFFFFFFFFFFFFFFFFFFFFFFFFFFFFFFFFFFFFFF\t\t\tbusdToken = IERC20(_busdToken)\n  AND \t\t\tbusdToken = IERC20(_busdToken)\n  PUSH 80\t\t\tbusdToken = IERC20(_busdToken)\n  DUP2 \t\t\tbusdToken = IERC20(_busdToken)\n  PUSH FFFFFFFFFFFFFFFFFFFFFFFFFFFFFFFFFFFFFFFF\t\t\tbusdToken = IERC20(_busdToken)\n  AND \t\t\tbusdToken = IERC20(_busdToken)\n  DUP2 \t\t\tbusdToken = IERC20(_busdToken)\n  MSTORE \t\t\tbusdToken = IERC20(_busdToken)\n  POP \t\t\tbusdToken = IERC20(_busdToken)\n  POP \t\t\tbusdToken = IERC20(_busdToken)\n  POP \t\t\tconstructor(address _busdToken...\n  POP \t\t\tconstructor(address _busdToken...\n  PUSH [tag] 18\t\t\tcontract FlySkySafeSubscriptio...\n  JUMP \t\t\tcontract FlySkySafeSubscriptio...\ntag 12\t\t\t.sender, amount), \"Withdrawal ...\n  JUMPDEST \t\t\t.sender, amount), \"Withdrawal ...\n  PUSH 0\t\t\tg.sender, amount\n  DUP1 \t\t\t\\n    }\n  PUSH 0\t\t\t\\n    }\n  SWAP1 \t\t\t\\n    }\n  SLOAD \t\t\t\\n    }\n  SWAP1 \t\t\t\\n    }\n  PUSH 100\t\t\t\\n    }\n  EXP \t\t\t\\n    }\n  SWAP1 \t\t\t\\n    }\n  DIV \t\t\t\\n    }\n  PUSH FFFFFFFFFFFFFFFFFFFFFFFFFFFFFFFFFFFFFFFF\t\t\t\\n    }\n  AND \t\t\t\\n    }\n  SWAP1 \t\t\tg.sender, amount);\\r\\n    }\n  POP \t\t\tg.sender, amount);\\r\\n    }\n  DUP2 \t\t\ttUserSub\n  PUSH 0\t\t\tnction\n  DUP1 \t\t\tnction\n  PUSH 100\t\t\tnction getUserSub\n  EXP \t\t\tnction getUserSub\n  DUP2 \t\t\tnction getUserSub\n  SLOAD \t\t\tnction getUserSub\n  DUP2 \t\t\tnction getUserSub\n  PUSH FFFFFFFFFFFFFFFFFFFFFFFFFFFFFFFFFFFFFFFF\t\t\tnction getUserSub\n  MUL \t\t\tnction getUserSub\n  NOT \t\t\tnction getUserSub\n  AND \t\t\tnction getUserSub\n  SWAP1 \t\t\tnction getUserSub\n  DUP4 \t\t\tnction getUserSub\n  PUSH FFFFFFFFFFFFFFFFFFFFFFFFFFFFFFFFFFFFFFFF\t\t\tnction getUserSub\n  AND \t\t\tnction getUserSub\n  MUL \t\t\tnction getUserSub\n  OR \t\t\tnction getUserSub\n  SWAP1 \t\t\tnction getUserSub\n  SSTORE \t\t\tnction getUserSub\n  POP \t\t\tnction getUserSub\n  DUP2 \t\t\t(PlanTyp\n  PUSH FFFFFFFFFFFFFFFFFFFFFFFFFFFFFFFFFFFFFFFF\t\t\tss user) external view returns...\n  AND \t\t\tss user) external view returns...\n  DUP2 \t\t\tw return\n  PUSH FFFFFFFFFFFFFFFFFFFFFFFFFFFFFFFFFFFFFFFF\t\t\tss user) external view returns...\n  AND \t\t\tss user) external view returns...\n  PUSH 8BE0079C531659141344CD1FD0A4F28419497F9722A3DAAFE3B4186F6B6457E0\t\t\tss user) external view returns...\n  PUSH 40\t\t\tss user) external view returns...\n  MLOAD \t\t\tss user) external view returns...\n  PUSH 40\t\t\tss user) external view returns...\n  MLOAD \t\t\tss user) external view returns...\n  DUP1 \t\t\tss user) external view returns...\n  SWAP2 \t\t\tss user) external view returns...\n  SUB \t\t\tss user) external view returns...\n  SWAP1 \t\t\tss user) external view returns...\n  LOG3 \t\t\tss user) external view returns...\n  POP \t\t\tthdrawn(msg.sender, amount);\\r...\n  POP \t\t\t.sender, amount), \"Withdrawal ...\n  JUMP \t\t\t.sender, amount), \"Withdrawal ...\ntag 21\t\t\tacts/access/Ownable.sol\";\\r\\ni...\n  JUMPDEST \t\t\tacts/access/Ownable.sol\";\\r\\ni...\n  PUSH 0\t\t\tl\n  DUP1 \t\t\tp\n  REVERT \t\t\t@openzeppeli\ntag 23\t\t\tToken;\\r\\n\\r\\n    enum PlanTyp...\n  JUMPDEST \t\t\tToken;\\r\\n\\r\\n    enum PlanTyp...\n  PUSH 0\t\t\tusiness\n  PUSH FFFFFFFFFFFFFFFFFFFFFFFFFFFFFFFFFFFFFFFF\t\t\tetime }\\r\\n\\r\\n    struct Subs...\n  DUP3 \t\t\tirstL\n  AND \t\t\ts, FirstLifetime }\\r\\n\\r\\n    ...\n  SWAP1 \t\t\trstSixMonths, FirstLifetime }\\...\n  POP \t\t\trstSixMonths, FirstLifetime }\\...\n  SWAP2 \t\t\tToken;\\r\\n\\r\\n    enum PlanTyp...\n  SWAP1 \t\t\tToken;\\r\\n\\r\\n    enum PlanTyp...\n  POP \t\t\tToken;\\r\\n\\r\\n    enum PlanTyp...\n  JUMP \t\t\tToken;\\r\\n\\r\\n    enum PlanTyp...\ntag 24\t\t\tplan;\\r\\n        uint256 expir...\n  JUMPDEST \t\t\tplan;\\r\\n        uint256 expir...\n  PUSH 0\t\t\t\\r\\n\\r\\n   \n  PUSH [tag] 37\t\t\tbscription) public subsc\n  DUP3 \t\t\t subs\n  PUSH [tag] 23\t\t\tbscription) public subsc\n  JUMP \t\t\tbscription) public subsc\ntag 37\t\t\tbscription) public subsc\n  JUMPDEST \t\t\tbscription) public subsc\n  SWAP1 \t\t\tdress => Subscription) public ...\n  POP \t\t\tdress => Subscription) public ...\n  SWAP2 \t\t\tplan;\\r\\n        uint256 expir...\n  SWAP1 \t\t\tplan;\\r\\n        uint256 expir...\n  POP \t\t\tplan;\\r\\n        uint256 expir...\n  JUMP \t\t\tplan;\\r\\n        uint256 expir...\ntag 25\t\t\t\\n    uint256 public priceBusi...\n  JUMPDEST \t\t\t\\n    uint256 public priceBusi...\n  PUSH [tag] 39\t\t\tint256 public priceFirst\n  DUP2 \t\t\teFirs\n  PUSH [tag] 24\t\t\tint256 public priceFirst\n  JUMP \t\t\tint256 public priceFirst\ntag 39\t\t\tint256 public priceFirst\n  JUMPDEST \t\t\tint256 public priceFirst\n  DUP2 \t\t\t\\r\\n   \n  EQ \t\t\tUSD\\r\\n    uint256 public pric...\n  PUSH [tag] 40\t\t\t8; // 10 BUSD\\r\\n    uint256 p...\n  JUMPI \t\t\t8; // 10 BUSD\\r\\n    uint256 p...\n  PUSH 0\t\t\t*\n  DUP1 \t\t\t4\n  REVERT \t\t\tnths = 49 * \ntag 40\t\t\t8; // 10 BUSD\\r\\n    uint256 p...\n  JUMPDEST \t\t\t8; // 10 BUSD\\r\\n    uint256 p...\n  POP \t\t\t\\n    uint256 public priceBusi...\n  JUMP \t\t\t\\n    uint256 public priceBusi...\ntag 26\t\t\tBUSD\\r\\n    uint256 public pri...\n  JUMPDEST \t\t\tBUSD\\r\\n    uint256 public pri...\n  PUSH 0\t\t\t; // \n  DUP2 \t\t\tribed(\n  MLOAD \t\t\t Subscribed(a\n  SWAP1 \t\t\t    event Subscribed(a\n  POP \t\t\t    event Subscribed(a\n  PUSH [tag] 42\t\t\tdexed user, PlanType plan, uin...\n  DUP2 \t\t\tuint2\n  PUSH [tag] 25\t\t\tdexed user, PlanType plan, uin...\n  JUMP \t\t\tdexed user, PlanType plan, uin...\ntag 42\t\t\tdexed user, PlanType plan, uin...\n  JUMPDEST \t\t\tdexed user, PlanType plan, uin...\n  SWAP3 \t\t\tBUSD\\r\\n    uint256 public pri...\n  SWAP2 \t\t\tBUSD\\r\\n    uint256 public pri...\n  POP \t\t\tBUSD\\r\\n    uint256 public pri...\n  POP \t\t\tBUSD\\r\\n    uint256 public pri...\n  JUMP \t\t\tBUSD\\r\\n    uint256 public pri...\ntag 3\t\t\t    event PricesUpdated(uint25...\n  JUMPDEST \t\t\t    event PricesUpdated(uint25...\n  PUSH 0\t\t\tuint25\n  DUP1 \t\t\tnewFir\n  PUSH 40\t\t\tes\n  DUP4 \t\t\tthdrawn(a\n  DUP6 \t\t\tt Funds\n  SUB \t\t\tevent FundsWithdrawn(ad\n  SLT \t\t\t    event FundsWithdrawn(addre...\n  ISZERO \t\t\t;\\r\\n    event FundsWithdrawn(...\n  PUSH [tag] 44\t\t\t;\\r\\n    event FundsWithdrawn(...\n  JUMPI \t\t\t;\\r\\n    event FundsWithdrawn(...\n  PUSH [tag] 45\t\t\tdexed owner, uint256 amount);\\...\n  PUSH [tag] 21\t\t\tdexed owner, uint256 amount);\\...\n  JUMP \t\t\tdexed owner, uint256 amount);\\...\ntag 45\t\t\tdexed owner, uint256 amount);\\...\n  JUMPDEST \t\t\tdexed owner, uint256 amount);\\...\ntag 44\t\t\t;\\r\\n    event FundsWithdrawn(...\n  JUMPDEST \t\t\t;\\r\\n    event FundsWithdrawn(...\n  PUSH 0\t\t\t \n  PUSH [tag] 46\t\t\t!= address(0), \"Invalid BUSD a...\n  DUP6 \t\t\ten = IE\n  DUP3 \t\t\t  busd\n  DUP7 \t\t\t\");\\r\\n    \n  ADD \t\t\tress\");\\r\\n        busdT\n  PUSH [tag] 26\t\t\t!= address(0), \"Invalid BUSD a...\n  JUMP \t\t\t!= address(0), \"Invalid BUSD a...\ntag 46\t\t\t!= address(0), \"Invalid BUSD a...\n  JUMPDEST \t\t\t!= address(0), \"Invalid BUSD a...\n  SWAP3 \t\t\tbusdToken != address(0), \"Inva...\n  POP \t\t\tbusdToken != address(0), \"Inva...\n  POP \t\t\t Ownable(_initialOwner) {\\r\\n ...\n  PUSH 20\t\t\t(P\n  PUSH [tag] 47\t\t\tonReentrant {\\r\\n        requi...\n  DUP6 \t\t\tnvalid \n  DUP3 \t\t\t.None,\n  DUP7 \t\t\t!= PlanTy\n  ADD \t\t\tlan != PlanType.None, \n  PUSH [tag] 26\t\t\tonReentrant {\\r\\n        requi...\n  JUMP \t\t\tonReentrant {\\r\\n        requi...\ntag 47\t\t\tonReentrant {\\r\\n        requi...\n  JUMPDEST \t\t\tonReentrant {\\r\\n        requi...\n  SWAP2 \t\t\texternal nonReentrant {\\r\\n   ...\n  POP \t\t\texternal nonReentrant {\\r\\n   ...\n  POP \t\t\t  }\\r\\n\\r\\n    function subscr...\n  SWAP3 \t\t\t    event PricesUpdated(uint25...\n  POP \t\t\t    event PricesUpdated(uint25...\n  SWAP3 \t\t\t    event PricesUpdated(uint25...\n  SWAP1 \t\t\t    event PricesUpdated(uint25...\n  POP \t\t\t    event PricesUpdated(uint25...\n  JUMP \t\t\t    event PricesUpdated(uint25...\ntag 27\t\t\tription storage userSub = subs...\n  JUMPDEST \t\t\tription storage userSub = subs...\n  PUSH [tag] 49\t\t\tlanType.None || block.ti\n  DUP2 \t\t\tock.t\n  PUSH [tag] 24\t\t\tlanType.None || block.ti\n  JUMP \t\t\tlanType.None || block.ti\ntag 49\t\t\tlanType.None || block.ti\n  JUMPDEST \t\t\tlanType.None || block.ti\n  DUP3 \t\t\t ==\n  MSTORE \t\t\tub.plan == PlanType.None || bl...\n  POP \t\t\tription storage userSub = subs...\n  POP \t\t\tription storage userSub = subs...\n  JUMP \t\t\tription storage userSub = subs...\ntag 10\t\t\terSub.expiry, \"Existing active...\n  JUMPDEST \t\t\terSub.expiry, \"Existing active...\n  PUSH 0\t\t\tatio\n  PUSH 20\t\t\t.B\n  DUP3 \t\t\t== PlanTy\n  ADD \t\t\tlan == PlanType.Bu\n  SWAP1 \t\t\t   if (plan == PlanType.Bu\n  POP \t\t\t   if (plan == PlanType.Bu\n  PUSH [tag] 51\t\t\thly) {\\r\\n            price = ...\n  PUSH 0\t\t\ti\n  DUP4 \t\t\t      dur\n  ADD \t\t\t          duratio\n  DUP5 \t\t\tthly;\\r\n  PUSH [tag] 27\t\t\thly) {\\r\\n            price = ...\n  JUMP \t\t\thly) {\\r\\n            price = ...\ntag 51\t\t\thly) {\\r\\n            price = ...\n  JUMPDEST \t\t\thly) {\\r\\n            price = ...\n  SWAP3 \t\t\terSub.expiry, \"Existing active...\n  SWAP2 \t\t\terSub.expiry, \"Existing active...\n  POP \t\t\terSub.expiry, \"Existing active...\n  POP \t\t\terSub.expiry, \"Existing active...\n  JUMP \t\t\terSub.expiry, \"Existing active...\ntag 28\t\t\t        } else if (plan == Pla...\n  JUMPDEST \t\t\t        } else if (plan == Pla...\n  PUSH 0\t\t\ttSixMonths;\n  DUP3 \t\t\t= 180 \n  DUP3 \t\t\ttio\n  MSTORE \t\t\t   duration = 180 d\n  PUSH 20\t\t\tPlan\n  DUP3 \t\t\tn =\n  ADD \t\t\t(plan == PlanT\n  SWAP1 \t\t\t     } else if (plan == PlanT\n  POP \t\t\t     } else if (plan == PlanT\n  SWAP3 \t\t\t        } else if (plan == Pla...\n  SWAP2 \t\t\t        } else if (plan == Pla...\n  POP \t\t\t        } else if (plan == Pla...\n  POP \t\t\t        } else if (plan == Pla...\n  JUMP \t\t\t        } else if (plan == Pla...\ntag 29\t\t\tetime) {\\r\\n            price ...\n  JUMPDEST \t\t\tetime) {\\r\\n            price ...\n  PUSH 496E76616C696420425553442061646472657373000000000000000000000000\t\t\trFrom(msg.sender, addr\n  PUSH 0\t\t\tn\n  DUP3 \t\t\token.t\n  ADD \t\t\tusdToken.trans\n  MSTORE \t\t\tquire(busdToken.transferFrom(m...\n  POP \t\t\tetime) {\\r\\n            price ...\n  JUMP \t\t\tetime) {\\r\\n            price ...\ntag 30\t\t\tce), \"Payment failed\");\\r\\n\\r\\...\n  JUMPDEST \t\t\tce), \"Payment failed\");\\r\\n\\r\\...\n  PUSH 0\t\t\tsub\n  PUSH [tag] 55\t\t\tder] = Subscription(plan, expi...\n  PUSH 14\t\t\tg.\n  DUP4 \t\t\ted(\n  PUSH [tag] 28\t\t\tder] = Subscription(plan, expi...\n  JUMP \t\t\tder] = Subscription(plan, expi...\ntag 55\t\t\tder] = Subscription(plan, expi...\n  JUMPDEST \t\t\tder] = Subscription(plan, expi...\n  SWAP2 \t\t\tmsg.sender] = Subscription(pla...\n  POP \t\t\tmsg.sender] = Subscription(pla...\n  PUSH [tag] 56\t\t\tan, expiry);\\r\\n    }\\r\\n\\r\\n ...\n  DUP3 \t\t\tirs\n  PUSH [tag] 29\t\t\tan, expiry);\\r\\n    }\\r\\n\\r\\n ...\n  JUMP \t\t\tan, expiry);\\r\\n    }\\r\\n\\r\\n ...\ntag 56\t\t\tan, expiry);\\r\\n    }\\r\\n\\r\\n ...\n  JUMPDEST \t\t\tan, expiry);\\r\\n    }\\r\\n\\r\\n ...\n  PUSH 20\t\t\tst\n  DUP3 \t\t\tewF\n  ADD \t\t\t56 newFirstL\n  SWAP1 \t\t\t, uint256 newFirstL\n  POP \t\t\t, uint256 newFirstL\n  SWAP2 \t\t\tce), \"Payment failed\");\\r\\n\\r\\...\n  SWAP1 \t\t\tce), \"Payment failed\");\\r\\n\\r\\...\n  POP \t\t\tce), \"Payment failed\");\\r\\n\\r\\...\n  JUMP \t\t\tce), \"Payment failed\");\\r\\n\\r\\...\ntag 17\t\t\ternal onlyOwner {\\r\\n        p...\n  JUMPDEST \t\t\ternal onlyOwner {\\r\\n        p...\n  PUSH 0\t\t\t;\\r\\n\\r\n  PUSH 20\t\t\tin\n  DUP3 \t\t\tated(newB\n  ADD \t\t\tsUpdated(newBusine\n  SWAP1 \t\t\tit PricesUpdated(newBusine\n  POP \t\t\tit PricesUpdated(newBusine\n  DUP2 \t\t\t);\\r\\n    }\n  DUP2 \t\t\tfeti\n  SUB \t\t\tstLifetime);\\r\\n    }\\r\n  PUSH 0\t\t\tw\n  DUP4 \t\t\txMonths, \n  ADD \t\t\tstSixMonths, newF\n  MSTORE \t\t\t newFirstSixMonths, newFirstLi...\n  PUSH [tag] 58\t\t\tthdrawFunds(uint256 amount) ex...\n  DUP2 \t\t\tInsu\n  PUSH [tag] 30\t\t\tthdrawFunds(uint256 amount) ex...\n  JUMP \t\t\tthdrawFunds(uint256 amount) ex...\ntag 58\t\t\tthdrawFunds(uint256 amount) ex...\n  JUMPDEST \t\t\tthdrawFunds(uint256 amount) ex...\n  SWAP1 \t\t\tction withdrawFunds(uint256 am...\n  POP \t\t\tction withdrawFunds(uint256 am...\n  SWAP2 \t\t\ternal onlyOwner {\\r\\n        p...\n  SWAP1 \t\t\ternal onlyOwner {\\r\\n        p...\n  POP \t\t\ternal onlyOwner {\\r\\n        p...\n  JUMP \t\t\ternal onlyOwner {\\r\\n        p...\ntag 18\t\t\tcontract FlySkySafeSubscriptio...\n  JUMPDEST \t\t\tcontract FlySkySafeSubscriptio...\n  PUSH 80\t\t\tcontract FlySkySafeSubscriptio...\n  MLOAD \t\t\tcontract FlySkySafeSubscriptio...\n  PUSH #[$] 0000000000000000000000000000000000000000000000000000000000000000\t\t\tcontract FlySkySafeSubscriptio...\n  PUSH [$] 0000000000000000000000000000000000000000000000000000000000000000\t\t\tcontract FlySkySafeSubscriptio...\n  PUSH 0\t\t\tcontract FlySkySafeSubscriptio...\n  CODECOPY \t\t\tcontract FlySkySafeSubscriptio...\n  PUSH 0\t\t\tcontract FlySkySafeSubscriptio...\n  ASSIGNIMMUTABLE 332\t\t\tcontract FlySkySafeSubscriptio...\n  PUSH #[$] 0000000000000000000000000000000000000000000000000000000000000000\t\t\tcontract FlySkySafeSubscriptio...\n  PUSH 0\t\t\tcontract FlySkySafeSubscriptio...\n  RETURN \t\t\tcontract FlySkySafeSubscriptio...\n.data\n  0:\n    .code\n      PUSH 80\t\t\tcontract FlySkySafeSubscriptio...\n      PUSH 40\t\t\tcontract FlySkySafeSubscriptio...\n      MSTORE \t\t\tcontract FlySkySafeSubscriptio...\n      CALLVALUE \t\t\tcontract FlySkySafeSubscriptio...\n      DUP1 \t\t\tcontract FlySkySafeSubscriptio...\n      ISZERO \t\t\tcontract FlySkySafeSubscriptio...\n      PUSH [tag] 1\t\t\tcontract FlySkySafeSubscriptio...\n      JUMPI \t\t\tcontract FlySkySafeSubscriptio...\n      PUSH 0\t\t\tcontract FlySkySafeSubscriptio...\n      DUP1 \t\t\tcontract FlySkySafeSubscriptio...\n      REVERT \t\t\tcontract FlySkySafeSubscriptio...\n    tag 1\t\t\tcontract FlySkySafeSubscriptio...\n      JUMPDEST \t\t\tcontract FlySkySafeSubscriptio...\n      POP \t\t\tcontract FlySkySafeSubscriptio...\n      PUSH 4\t\t\tcontract FlySkySafeSubscriptio...\n      CALLDATASIZE \t\t\tcontract FlySkySafeSubscriptio...\n      LT \t\t\tcontract FlySkySafeSubscriptio...\n      PUSH [tag] 2\t\t\tcontract FlySkySafeSubscriptio...\n      JUMPI \t\t\tcontract FlySkySafeSubscriptio...\n      PUSH 0\t\t\tcontract FlySkySafeSubscriptio...\n      CALLDATALOAD \t\t\tcontract FlySkySafeSubscriptio...\n      PUSH E0\t\t\tcontract FlySkySafeSubscriptio...\n      SHR \t\t\tcontract FlySkySafeSubscriptio...\n      DUP1 \t\t\tcontract FlySkySafeSubscriptio...\n      PUSH A8FC30D4\t\t\tcontract FlySkySafeSubscriptio...\n      GT \t\t\tcontract FlySkySafeSubscriptio...\n      PUSH [tag] 15\t\t\tcontract FlySkySafeSubscriptio...\n      JUMPI \t\t\tcontract FlySkySafeSubscriptio...\n      DUP1 \t\t\tcontract FlySkySafeSubscriptio...\n      PUSH A8FC30D4\t\t\tcontract FlySkySafeSubscriptio...\n      EQ \t\t\tcontract FlySkySafeSubscriptio...\n      PUSH [tag] 9\t\t\tcontract FlySkySafeSubscriptio...\n      JUMPI \t\t\tcontract FlySkySafeSubscriptio...\n      DUP1 \t\t\tcontract FlySkySafeSubscriptio...\n      PUSH DE0E7014\t\t\tcontract FlySkySafeSubscriptio...\n      EQ \t\t\tcontract FlySkySafeSubscriptio...\n      PUSH [tag] 10\t\t\tcontract FlySkySafeSubscriptio...\n      JUMPI \t\t\tcontract FlySkySafeSubscriptio...\n      DUP1 \t\t\tcontract FlySkySafeSubscriptio...\n      PUSH EBBEEC08\t\t\tcontract FlySkySafeSubscriptio...\n      EQ \t\t\tcontract FlySkySafeSubscriptio...\n      PUSH [tag] 11\t\t\tcontract FlySkySafeSubscriptio...\n      JUMPI \t\t\tcontract FlySkySafeSubscriptio...\n      DUP1 \t\t\tcontract FlySkySafeSubscriptio...\n      PUSH EFFCE0D4\t\t\tcontract FlySkySafeSubscriptio...\n      EQ \t\t\tcontract FlySkySafeSubscriptio...\n      PUSH [tag] 12\t\t\tcontract FlySkySafeSubscriptio...\n      JUMPI \t\t\tcontract FlySkySafeSubscriptio...\n      DUP1 \t\t\tcontract FlySkySafeSubscriptio...\n      PUSH F046395A\t\t\tcontract FlySkySafeSubscriptio...\n      EQ \t\t\tcontract FlySkySafeSubscriptio...\n      PUSH [tag] 13\t\t\tcontract FlySkySafeSubscriptio...\n      JUMPI \t\t\tcontract FlySkySafeSubscriptio...\n      DUP1 \t\t\tcontract FlySkySafeSubscriptio...\n      PUSH F2FDE38B\t\t\tcontract FlySkySafeSubscriptio...\n      EQ \t\t\tcontract FlySkySafeSubscriptio...\n      PUSH [tag] 14\t\t\tcontract FlySkySafeSubscriptio...\n      JUMPI \t\t\tcontract FlySkySafeSubscriptio...\n      PUSH [tag] 2\t\t\tcontract FlySkySafeSubscriptio...\n      JUMP \t\t\tcontract FlySkySafeSubscriptio...\n    tag 15\t\t\tcontract FlySkySafeSubscriptio...\n      JUMPDEST \t\t\tcontract FlySkySafeSubscriptio...\n      DUP1 \t\t\tcontract FlySkySafeSubscriptio...\n      PUSH 155DD5EE\t\t\tcontract FlySkySafeSubscriptio...\n      EQ \t\t\tcontract FlySkySafeSubscriptio...\n      PUSH [tag] 3\t\t\tcontract FlySkySafeSubscriptio...\n      JUMPI \t\t\tcontract FlySkySafeSubscriptio...\n      DUP1 \t\t\tcontract FlySkySafeSubscriptio...\n      PUSH 2210221A\t\t\tcontract FlySkySafeSubscriptio...\n      EQ \t\t\tcontract FlySkySafeSubscriptio...\n      PUSH [tag] 4\t\t\tcontract FlySkySafeSubscriptio...\n      JUMPI \t\t\tcontract FlySkySafeSubscriptio...\n      DUP1 \t\t\tcontract FlySkySafeSubscriptio...\n      PUSH 3ED620A4\t\t\tcontract FlySkySafeSubscriptio...\n      EQ \t\t\tcontract FlySkySafeSubscriptio...\n      PUSH [tag] 5\t\t\tcontract FlySkySafeSubscriptio...\n      JUMPI \t\t\tcontract FlySkySafeSubscriptio...\n      DUP1 \t\t\tcontract FlySkySafeSubscriptio...\n      PUSH 49C7E639\t\t\tcontract FlySkySafeSubscriptio...\n      EQ \t\t\tcontract FlySkySafeSubscriptio...\n      PUSH [tag] 6\t\t\tcontract FlySkySafeSubscriptio...\n      JUMPI \t\t\tcontract FlySkySafeSubscriptio...\n      DUP1 \t\t\tcontract FlySkySafeSubscriptio...\n      PUSH 715018A6\t\t\tcontract FlySkySafeSubscriptio...\n      EQ \t\t\tcontract FlySkySafeSubscriptio...\n      PUSH [tag] 7\t\t\tcontract FlySkySafeSubscriptio...\n      JUMPI \t\t\tcontract FlySkySafeSubscriptio...\n      DUP1 \t\t\tcontract FlySkySafeSubscriptio...\n      PUSH 8DA5CB5B\t\t\tcontract FlySkySafeSubscriptio...\n      EQ \t\t\tcontract FlySkySafeSubscriptio...\n      PUSH [tag] 8\t\t\tcontract FlySkySafeSubscriptio...\n      JUMPI \t\t\tcontract FlySkySafeSubscriptio...\n    tag 2\t\t\tcontract FlySkySafeSubscriptio...\n      JUMPDEST \t\t\tcontract FlySkySafeSubscriptio...\n      PUSH 0\t\t\tcontract FlySkySafeSubscriptio...\n      DUP1 \t\t\tcontract FlySkySafeSubscriptio...\n      REVERT \t\t\tcontract FlySkySafeSubscriptio...\n    tag 3\t\t\tfunction withdrawFunds(uint256...\n      JUMPDEST \t\t\tfunction withdrawFunds(uint256...\n      PUSH [tag] 16\t\t\tfunction withdrawFunds(uint256...\n      PUSH 4\t\t\tfunction withdrawFunds(uint256...\n      DUP1 \t\t\tfunction withdrawFunds(uint256...\n      CALLDATASIZE \t\t\tfunction withdrawFunds(uint256...\n      SUB \t\t\tfunction withdrawFunds(uint256...\n      DUP2 \t\t\tfunction withdrawFunds(uint256...\n      ADD \t\t\tfunction withdrawFunds(uint256...\n      SWAP1 \t\t\tfunction withdrawFunds(uint256...\n      PUSH [tag] 17\t\t\tfunction withdrawFunds(uint256...\n      SWAP2 \t\t\tfunction withdrawFunds(uint256...\n      SWAP1 \t\t\tfunction withdrawFunds(uint256...\n      PUSH [tag] 18\t\t\tfunction withdrawFunds(uint256...\n      JUMP \t\t\tfunction withdrawFunds(uint256...\n    tag 17\t\t\tfunction withdrawFunds(uint256...\n      JUMPDEST \t\t\tfunction withdrawFunds(uint256...\n      PUSH [tag] 19\t\t\tfunction withdrawFunds(uint256...\n      JUMP \t\t\tfunction withdrawFunds(uint256...\n    tag 16\t\t\tfunction withdrawFunds(uint256...\n      JUMPDEST \t\t\tfunction withdrawFunds(uint256...\n      STOP \t\t\tfunction withdrawFunds(uint256...\n    tag 4\t\t\tuint256 public priceBusinessMo...\n      JUMPDEST \t\t\tuint256 public priceBusinessMo...\n      PUSH [tag] 20\t\t\tuint256 public priceBusinessMo...\n      PUSH [tag] 21\t\t\tuint256 public priceBusinessMo...\n      JUMP \t\t\tuint256 public priceBusinessMo...\n    tag 20\t\t\tuint256 public priceBusinessMo...\n      JUMPDEST \t\t\tuint256 public priceBusinessMo...\n      PUSH 40\t\t\tuint256 public priceBusinessMo...\n      MLOAD \t\t\tuint256 public priceBusinessMo...\n      PUSH [tag] 22\t\t\tuint256 public priceBusinessMo...\n      SWAP2 \t\t\tuint256 public priceBusinessMo...\n      SWAP1 \t\t\tuint256 public priceBusinessMo...\n      PUSH [tag] 23\t\t\tuint256 public priceBusinessMo...\n      JUMP \t\t\tuint256 public priceBusinessMo...\n    tag 22\t\t\tuint256 public priceBusinessMo...\n      JUMPDEST \t\t\tuint256 public priceBusinessMo...\n      PUSH 40\t\t\tuint256 public priceBusinessMo...\n      MLOAD \t\t\tuint256 public priceBusinessMo...\n      DUP1 \t\t\tuint256 public priceBusinessMo...\n      SWAP2 \t\t\tuint256 public priceBusinessMo...\n      SUB \t\t\tuint256 public priceBusinessMo...\n      SWAP1 \t\t\tuint256 public priceBusinessMo...\n      RETURN \t\t\tuint256 public priceBusinessMo...\n    tag 5\t\t\tfunction updatePrices(uint256 ...\n      JUMPDEST \t\t\tfunction updatePrices(uint256 ...\n      PUSH [tag] 24\t\t\tfunction updatePrices(uint256 ...\n      PUSH 4\t\t\tfunction updatePrices(uint256 ...\n      DUP1 \t\t\tfunction updatePrices(uint256 ...\n      CALLDATASIZE \t\t\tfunction updatePrices(uint256 ...\n      SUB \t\t\tfunction updatePrices(uint256 ...\n      DUP2 \t\t\tfunction updatePrices(uint256 ...\n      ADD \t\t\tfunction updatePrices(uint256 ...\n      SWAP1 \t\t\tfunction updatePrices(uint256 ...\n      PUSH [tag] 25\t\t\tfunction updatePrices(uint256 ...\n      SWAP2 \t\t\tfunction updatePrices(uint256 ...\n      SWAP1 \t\t\tfunction updatePrices(uint256 ...\n      PUSH [tag] 26\t\t\tfunction updatePrices(uint256 ...\n      JUMP \t\t\tfunction updatePrices(uint256 ...\n    tag 25\t\t\tfunction updatePrices(uint256 ...\n      JUMPDEST \t\t\tfunction updatePrices(uint256 ...\n      PUSH [tag] 27\t\t\tfunction updatePrices(uint256 ...\n      JUMP \t\t\tfunction updatePrices(uint256 ...\n    tag 24\t\t\tfunction updatePrices(uint256 ...\n      JUMPDEST \t\t\tfunction updatePrices(uint256 ...\n      STOP \t\t\tfunction updatePrices(uint256 ...\n    tag 6\t\t\tfunction subscribe(PlanType pl...\n      JUMPDEST \t\t\tfunction subscribe(PlanType pl...\n      PUSH [tag] 28\t\t\tfunction subscribe(PlanType pl...\n      PUSH 4\t\t\tfunction subscribe(PlanType pl...\n      DUP1 \t\t\tfunction subscribe(PlanType pl...\n      CALLDATASIZE \t\t\tfunction subscribe(PlanType pl...\n      SUB \t\t\tfunction subscribe(PlanType pl...\n      DUP2 \t\t\tfunction subscribe(PlanType pl...\n      ADD \t\t\tfunction subscribe(PlanType pl...\n      SWAP1 \t\t\tfunction subscribe(PlanType pl...\n      PUSH [tag] 29\t\t\tfunction subscribe(PlanType pl...\n      SWAP2 \t\t\tfunction subscribe(PlanType pl...\n      SWAP1 \t\t\tfunction subscribe(PlanType pl...\n      PUSH [tag] 30\t\t\tfunction subscribe(PlanType pl...\n      JUMP \t\t\tfunction subscribe(PlanType pl...\n    tag 29\t\t\tfunction subscribe(PlanType pl...\n      JUMPDEST \t\t\tfunction subscribe(PlanType pl...\n      PUSH [tag] 31\t\t\tfunction subscribe(PlanType pl...\n      JUMP \t\t\tfunction subscribe(PlanType pl...\n    tag 28\t\t\tfunction subscribe(PlanType pl...\n      JUMPDEST \t\t\tfunction subscribe(PlanType pl...\n      STOP \t\t\tfunction subscribe(PlanType pl...\n    tag 7\t\t\tder, plan, expiry);\\r\\n    }\\r...\n      JUMPDEST \t\t\tder, plan, expiry);\\r\\n    }\\r...\n      PUSH [tag] 32\t\t\tder, plan, expiry);\\r\\n    }\\r...\n      PUSH [tag] 33\t\t\tder, plan, expiry);\\r\\n    }\\r...\n      JUMP \t\t\tder, plan, expiry);\\r\\n    }\\r...\n    tag 32\t\t\tder, plan, expiry);\\r\\n    }\\r...\n      JUMPDEST \t\t\tder, plan, expiry);\\r\\n    }\\r...\n      STOP \t\t\tder, plan, expiry);\\r\\n    }\\r...\n    tag 8\t\t\t        price = priceBusinessM...\n      JUMPDEST \t\t\t        price = priceBusinessM...\n      PUSH [tag] 34\t\t\t        price = priceBusinessM...\n      PUSH [tag] 35\t\t\t        price = priceBusinessM...\n      JUMP \t\t\t        price = priceBusinessM...\n    tag 34\t\t\t        price = priceBusinessM...\n      JUMPDEST \t\t\t        price = priceBusinessM...\n      PUSH 40\t\t\t        price = priceBusinessM...\n      MLOAD \t\t\t        price = priceBusinessM...\n      PUSH [tag] 36\t\t\t        price = priceBusinessM...\n      SWAP2 \t\t\t        price = priceBusinessM...\n      SWAP1 \t\t\t        price = priceBusinessM...\n      PUSH [tag] 37\t\t\t        price = priceBusinessM...\n      JUMP \t\t\t        price = priceBusinessM...\n    tag 36\t\t\t        price = priceBusinessM...\n      JUMPDEST \t\t\t        price = priceBusinessM...\n      PUSH 40\t\t\t        price = priceBusinessM...\n      MLOAD \t\t\t        price = priceBusinessM...\n      DUP1 \t\t\t        price = priceBusinessM...\n      SWAP2 \t\t\t        price = priceBusinessM...\n      SUB \t\t\t        price = priceBusinessM...\n      SWAP1 \t\t\t        price = priceBusinessM...\n      RETURN \t\t\t        price = priceBusinessM...\n    tag 9\t\t\tuint256 public priceFirstSixMo...\n      JUMPDEST \t\t\tuint256 public priceFirstSixMo...\n      PUSH [tag] 38\t\t\tuint256 public priceFirstSixMo...\n      PUSH [tag] 39\t\t\tuint256 public priceFirstSixMo...\n      JUMP \t\t\tuint256 public priceFirstSixMo...\n    tag 38\t\t\tuint256 public priceFirstSixMo...\n      JUMPDEST \t\t\tuint256 public priceFirstSixMo...\n      PUSH 40\t\t\tuint256 public priceFirstSixMo...\n      MLOAD \t\t\tuint256 public priceFirstSixMo...\n      PUSH [tag] 40\t\t\tuint256 public priceFirstSixMo...\n      SWAP2 \t\t\tuint256 public priceFirstSixMo...\n      SWAP1 \t\t\tuint256 public priceFirstSixMo...\n      PUSH [tag] 23\t\t\tuint256 public priceFirstSixMo...\n      JUMP \t\t\tuint256 public priceFirstSixMo...\n    tag 40\t\t\tuint256 public priceFirstSixMo...\n      JUMPDEST \t\t\tuint256 public priceFirstSixMo...\n      PUSH 40\t\t\tuint256 public priceFirstSixMo...\n      MLOAD \t\t\tuint256 public priceFirstSixMo...\n      DUP1 \t\t\tuint256 public priceFirstSixMo...\n      SWAP2 \t\t\tuint256 public priceFirstSixMo...\n      SUB \t\t\tuint256 public priceFirstSixMo...\n      SWAP1 \t\t\tuint256 public priceFirstSixMo...\n      RETURN \t\t\tuint256 public priceFirstSixMo...\n    tag 10\t\t\tIERC20 public immutable busdTo...\n      JUMPDEST \t\t\tIERC20 public immutable busdTo...\n      PUSH [tag] 41\t\t\tIERC20 public immutable busdTo...\n      PUSH [tag] 42\t\t\tIERC20 public immutable busdTo...\n      JUMP \t\t\tIERC20 public immutable busdTo...\n    tag 41\t\t\tIERC20 public immutable busdTo...\n      JUMPDEST \t\t\tIERC20 public immutable busdTo...\n      PUSH 40\t\t\tIERC20 public immutable busdTo...\n      MLOAD \t\t\tIERC20 public immutable busdTo...\n      PUSH [tag] 43\t\t\tIERC20 public immutable busdTo...\n      SWAP2 \t\t\tIERC20 public immutable busdTo...\n      SWAP1 \t\t\tIERC20 public immutable busdTo...\n      PUSH [tag] 44\t\t\tIERC20 public immutable busdTo...\n      JUMP \t\t\tIERC20 public immutable busdTo...\n    tag 43\t\t\tIERC20 public immutable busdTo...\n      JUMPDEST \t\t\tIERC20 public immutable busdTo...\n      PUSH 40\t\t\tIERC20 public immutable busdTo...\n      MLOAD \t\t\tIERC20 public immutable busdTo...\n      DUP1 \t\t\tIERC20 public immutable busdTo...\n      SWAP2 \t\t\tIERC20 public immutable busdTo...\n      SUB \t\t\tIERC20 public immutable busdTo...\n      SWAP1 \t\t\tIERC20 public immutable busdTo...\n      RETURN \t\t\tIERC20 public immutable busdTo...\n    tag 11\t\t\tfunction getUserSubscription(a...\n      JUMPDEST \t\t\tfunction getUserSubscription(a...\n      PUSH [tag] 45\t\t\tfunction getUserSubscription(a...\n      PUSH 4\t\t\tfunction getUserSubscription(a...\n      DUP1 \t\t\tfunction getUserSubscription(a...\n      CALLDATASIZE \t\t\tfunction getUserSubscription(a...\n      SUB \t\t\tfunction getUserSubscription(a...\n      DUP2 \t\t\tfunction getUserSubscription(a...\n      ADD \t\t\tfunction getUserSubscription(a...\n      SWAP1 \t\t\tfunction getUserSubscription(a...\n      PUSH [tag] 46\t\t\tfunction getUserSubscription(a...\n      SWAP2 \t\t\tfunction getUserSubscription(a...\n      SWAP1 \t\t\tfunction getUserSubscription(a...\n      PUSH [tag] 47\t\t\tfunction getUserSubscription(a...\n      JUMP \t\t\tfunction getUserSubscription(a...\n    tag 46\t\t\tfunction getUserSubscription(a...\n      JUMPDEST \t\t\tfunction getUserSubscription(a...\n      PUSH [tag] 48\t\t\tfunction getUserSubscription(a...\n      JUMP \t\t\tfunction getUserSubscription(a...\n    tag 45\t\t\tfunction getUserSubscription(a...\n      JUMPDEST \t\t\tfunction getUserSubscription(a...\n      PUSH 40\t\t\tfunction getUserSubscription(a...\n      MLOAD \t\t\tfunction getUserSubscription(a...\n      PUSH [tag] 49\t\t\tfunction getUserSubscription(a...\n      SWAP3 \t\t\tfunction getUserSubscription(a...\n      SWAP2 \t\t\tfunction getUserSubscription(a...\n      SWAP1 \t\t\tfunction getUserSubscription(a...\n      PUSH [tag] 50\t\t\tfunction getUserSubscription(a...\n      JUMP \t\t\tfunction getUserSubscription(a...\n    tag 49\t\t\tfunction getUserSubscription(a...\n      JUMPDEST \t\t\tfunction getUserSubscription(a...\n      PUSH 40\t\t\tfunction getUserSubscription(a...\n      MLOAD \t\t\tfunction getUserSubscription(a...\n      DUP1 \t\t\tfunction getUserSubscription(a...\n      SWAP2 \t\t\tfunction getUserSubscription(a...\n      SUB \t\t\tfunction getUserSubscription(a...\n      SWAP1 \t\t\tfunction getUserSubscription(a...\n      RETURN \t\t\tfunction getUserSubscription(a...\n    tag 12\t\t\tuint256 public priceFirstLifet...\n      JUMPDEST \t\t\tuint256 public priceFirstLifet...\n      PUSH [tag] 51\t\t\tuint256 public priceFirstLifet...\n      PUSH [tag] 52\t\t\tuint256 public priceFirstLifet...\n      JUMP \t\t\tuint256 public priceFirstLifet...\n    tag 51\t\t\tuint256 public priceFirstLifet...\n      JUMPDEST \t\t\tuint256 public priceFirstLifet...\n      PUSH 40\t\t\tuint256 public priceFirstLifet...\n      MLOAD \t\t\tuint256 public priceFirstLifet...\n      PUSH [tag] 53\t\t\tuint256 public priceFirstLifet...\n      SWAP2 \t\t\tuint256 public priceFirstLifet...\n      SWAP1 \t\t\tuint256 public priceFirstLifet...\n      PUSH [tag] 23\t\t\tuint256 public priceFirstLifet...\n      JUMP \t\t\tuint256 public priceFirstLifet...\n    tag 53\t\t\tuint256 public priceFirstLifet...\n      JUMPDEST \t\t\tuint256 public priceFirstLifet...\n      PUSH 40\t\t\tuint256 public priceFirstLifet...\n      MLOAD \t\t\tuint256 public priceFirstLifet...\n      DUP1 \t\t\tuint256 public priceFirstLifet...\n      SWAP2 \t\t\tuint256 public priceFirstLifet...\n      SUB \t\t\tuint256 public priceFirstLifet...\n      SWAP1 \t\t\tuint256 public priceFirstLifet...\n      RETURN \t\t\tuint256 public priceFirstLifet...\n    tag 13\t\t\tmapping(address => Subscriptio...\n      JUMPDEST \t\t\tmapping(address => Subscriptio...\n      PUSH [tag] 54\t\t\tmapping(address => Subscriptio...\n      PUSH 4\t\t\tmapping(address => Subscriptio...\n      DUP1 \t\t\tmapping(address => Subscriptio...\n      CALLDATASIZE \t\t\tmapping(address => Subscriptio...\n      SUB \t\t\tmapping(address => Subscriptio...\n      DUP2 \t\t\tmapping(address => Subscriptio...\n      ADD \t\t\tmapping(address => Subscriptio...\n      SWAP1 \t\t\tmapping(address => Subscriptio...\n      PUSH [tag] 55\t\t\tmapping(address => Subscriptio...\n      SWAP2 \t\t\tmapping(address => Subscriptio...\n      SWAP1 \t\t\tmapping(address => Subscriptio...\n      PUSH [tag] 47\t\t\tmapping(address => Subscriptio...\n      JUMP \t\t\tmapping(address => Subscriptio...\n    tag 55\t\t\tmapping(address => Subscriptio...\n      JUMPDEST \t\t\tmapping(address => Subscriptio...\n      PUSH [tag] 56\t\t\tmapping(address => Subscriptio...\n      JUMP \t\t\tmapping(address => Subscriptio...\n    tag 54\t\t\tmapping(address => Subscriptio...\n      JUMPDEST \t\t\tmapping(address => Subscriptio...\n      PUSH 40\t\t\tmapping(address => Subscriptio...\n      MLOAD \t\t\tmapping(address => Subscriptio...\n      PUSH [tag] 57\t\t\tmapping(address => Subscriptio...\n      SWAP3 \t\t\tmapping(address => Subscriptio...\n      SWAP2 \t\t\tmapping(address => Subscriptio...\n      SWAP1 \t\t\tmapping(address => Subscriptio...\n      PUSH [tag] 50\t\t\tmapping(address => Subscriptio...\n      JUMP \t\t\tmapping(address => Subscriptio...\n    tag 57\t\t\tmapping(address => Subscriptio...\n      JUMPDEST \t\t\tmapping(address => Subscriptio...\n      PUSH 40\t\t\tmapping(address => Subscriptio...\n      MLOAD \t\t\tmapping(address => Subscriptio...\n      DUP1 \t\t\tmapping(address => Subscriptio...\n      SWAP2 \t\t\tmapping(address => Subscriptio...\n      SUB \t\t\tmapping(address => Subscriptio...\n      SWAP1 \t\t\tmapping(address => Subscriptio...\n      RETURN \t\t\tmapping(address => Subscriptio...\n    tag 14\t\t\tixMonths;\\r\\n        priceFirs...\n      JUMPDEST \t\t\tixMonths;\\r\\n        priceFirs...\n      PUSH [tag] 58\t\t\tixMonths;\\r\\n        priceFirs...\n      PUSH 4\t\t\tixMonths;\\r\\n        priceFirs...\n      DUP1 \t\t\tixMonths;\\r\\n        priceFirs...\n      CALLDATASIZE \t\t\tixMonths;\\r\\n        priceFirs...\n      SUB \t\t\tixMonths;\\r\\n        priceFirs...\n      DUP2 \t\t\tixMonths;\\r\\n        priceFirs...\n      ADD \t\t\tixMonths;\\r\\n        priceFirs...\n      SWAP1 \t\t\tixMonths;\\r\\n        priceFirs...\n      PUSH [tag] 59\t\t\tixMonths;\\r\\n        priceFirs...\n      SWAP2 \t\t\tixMonths;\\r\\n        priceFirs...\n      SWAP1 \t\t\tixMonths;\\r\\n        priceFirs...\n      PUSH [tag] 47\t\t\tixMonths;\\r\\n        priceFirs...\n      JUMP \t\t\tixMonths;\\r\\n        priceFirs...\n    tag 59\t\t\tixMonths;\\r\\n        priceFirs...\n      JUMPDEST \t\t\tixMonths;\\r\\n        priceFirs...\n      PUSH [tag] 60\t\t\tixMonths;\\r\\n        priceFirs...\n      JUMP \t\t\tixMonths;\\r\\n        priceFirs...\n    tag 58\t\t\tixMonths;\\r\\n        priceFirs...\n      JUMPDEST \t\t\tixMonths;\\r\\n        priceFirs...\n      STOP \t\t\tixMonths;\\r\\n        priceFirs...\n    tag 19\t\t\tfunction withdrawFunds(uint256...\n      JUMPDEST \t\t\tfunction withdrawFunds(uint256...\n      PUSH [tag] 62\t\t\t\\n        uint\n      PUSH [tag] 63\t\t\t\\n        ui\n      JUMP \t\t\t\\n        uint\n    tag 62\t\t\t\\n        uint\n      JUMPDEST \t\t\t\\n        uint\n      PUSH [tag] 65\t\t\t\\n        emit Subscri\n      PUSH [tag] 66\t\t\t\\n        emit Subsc\n      JUMP \t\t\t\\n        emit Subscri\n    tag 65\t\t\t\\n        emit Subscri\n      JUMPDEST \t\t\t\\n        emit Subscri\n      DUP1 \t\t\tamount\n      PUSHIMMUTABLE 332\t\t\tbusdToken\n      PUSH FFFFFFFFFFFFFFFFFFFFFFFFFFFFFFFFFFFFFFFF\t\t\tbusdToken.balanceOf\n      AND \t\t\tbusdToken.balanceOf\n      PUSH 70A08231\t\t\tbusdToken.balanceOf\n      ADDRESS \t\t\tthis\n      PUSH 40\t\t\tbusdToken.balanceOf(address(th...\n      MLOAD \t\t\tbusdToken.balanceOf(address(th...\n      DUP3 \t\t\tbusdToken.balanceOf(address(th...\n      PUSH FFFFFFFF\t\t\tbusdToken.balanceOf(address(th...\n      AND \t\t\tbusdToken.balanceOf(address(th...\n      PUSH E0\t\t\tbusdToken.balanceOf(address(th...\n      SHL \t\t\tbusdToken.balanceOf(address(th...\n      DUP2 \t\t\tbusdToken.balanceOf(address(th...\n      MSTORE \t\t\tbusdToken.balanceOf(address(th...\n      PUSH 4\t\t\tbusdToken.balanceOf(address(th...\n      ADD \t\t\tbusdToken.balanceOf(address(th...\n      PUSH [tag] 68\t\t\tbusdToken.balanceOf(address(th...\n      SWAP2 \t\t\tbusdToken.balanceOf(address(th...\n      SWAP1 \t\t\tbusdToken.balanceOf(address(th...\n      PUSH [tag] 37\t\t\tbusdToken.balanceOf(address(th...\n      JUMP \t\t\tbusdToken.balanceOf(address(th...\n    tag 68\t\t\tbusdToken.balanceOf(address(th...\n      JUMPDEST \t\t\tbusdToken.balanceOf(address(th...\n      PUSH 20\t\t\tbusdToken.balanceOf(address(th...\n      PUSH 40\t\t\tbusdToken.balanceOf(address(th...\n      MLOAD \t\t\tbusdToken.balanceOf(address(th...\n      DUP1 \t\t\tbusdToken.balanceOf(address(th...\n      DUP4 \t\t\tbusdToken.balanceOf(address(th...\n      SUB \t\t\tbusdToken.balanceOf(address(th...\n      DUP2 \t\t\tbusdToken.balanceOf(address(th...\n      DUP7 \t\t\tbusdToken.balanceOf(address(th...\n      GAS \t\t\tbusdToken.balanceOf(address(th...\n      STATICCALL \t\t\tbusdToken.balanceOf(address(th...\n      ISZERO \t\t\tbusdToken.balanceOf(address(th...\n      DUP1 \t\t\tbusdToken.balanceOf(address(th...\n      ISZERO \t\t\tbusdToken.balanceOf(address(th...\n      PUSH [tag] 70\t\t\tbusdToken.balanceOf(address(th...\n      JUMPI \t\t\tbusdToken.balanceOf(address(th...\n      RETURNDATASIZE \t\t\tbusdToken.balanceOf(address(th...\n      PUSH 0\t\t\tbusdToken.balanceOf(address(th...\n      DUP1 \t\t\tbusdToken.balanceOf(address(th...\n      RETURNDATACOPY \t\t\tbusdToken.balanceOf(address(th...\n      RETURNDATASIZE \t\t\tbusdToken.balanceOf(address(th...\n      PUSH 0\t\t\tbusdToken.balanceOf(address(th...\n      REVERT \t\t\tbusdToken.balanceOf(address(th...\n    tag 70\t\t\tbusdToken.balanceOf(address(th...\n      JUMPDEST \t\t\tbusdToken.balanceOf(address(th...\n      POP \t\t\tbusdToken.balanceOf(address(th...\n      POP \t\t\tbusdToken.balanceOf(address(th...\n      POP \t\t\tbusdToken.balanceOf(address(th...\n      POP \t\t\tbusdToken.balanceOf(address(th...\n      PUSH 40\t\t\tbusdToken.balanceOf(address(th...\n      MLOAD \t\t\tbusdToken.balanceOf(address(th...\n      RETURNDATASIZE \t\t\tbusdToken.balanceOf(address(th...\n      PUSH 1F\t\t\tbusdToken.balanceOf(address(th...\n      NOT \t\t\tbusdToken.balanceOf(address(th...\n      PUSH 1F\t\t\tbusdToken.balanceOf(address(th...\n      DUP3 \t\t\tbusdToken.balanceOf(address(th...\n      ADD \t\t\tbusdToken.balanceOf(address(th...\n      AND \t\t\tbusdToken.balanceOf(address(th...\n      DUP3 \t\t\tbusdToken.balanceOf(address(th...\n      ADD \t\t\tbusdToken.balanceOf(address(th...\n      DUP1 \t\t\tbusdToken.balanceOf(address(th...\n      PUSH 40\t\t\tbusdToken.balanceOf(address(th...\n      MSTORE \t\t\tbusdToken.balanceOf(address(th...\n      POP \t\t\tbusdToken.balanceOf(address(th...\n      DUP2 \t\t\tbusdToken.balanceOf(address(th...\n      ADD \t\t\tbusdToken.balanceOf(address(th...\n      SWAP1 \t\t\tbusdToken.balanceOf(address(th...\n      PUSH [tag] 71\t\t\tbusdToken.balanceOf(address(th...\n      SWAP2 \t\t\tbusdToken.balanceOf(address(th...\n      SWAP1 \t\t\tbusdToken.balanceOf(address(th...\n      PUSH [tag] 72\t\t\tbusdToken.balanceOf(address(th...\n      JUMP \t\t\tbusdToken.balanceOf(address(th...\n    tag 71\t\t\tbusdToken.balanceOf(address(th...\n      JUMPDEST \t\t\tbusdToken.balanceOf(address(th...\n      LT \t\t\tbusdToken.balanceOf(address(th...\n      ISZERO \t\t\tbusdToken.balanceOf(address(th...\n      PUSH [tag] 73\t\t\trequire(busdToken.balanceOf(ad...\n      JUMPI \t\t\trequire(busdToken.balanceOf(ad...\n      PUSH 40\t\t\trequire(busdToken.balanceOf(ad...\n      MLOAD \t\t\trequire(busdToken.balanceOf(ad...\n      PUSH 8C379A000000000000000000000000000000000000000000000000000000000\t\t\trequire(busdToken.balanceOf(ad...\n      DUP2 \t\t\trequire(busdToken.balanceOf(ad...\n      MSTORE \t\t\trequire(busdToken.balanceOf(ad...\n      PUSH 4\t\t\trequire(busdToken.balanceOf(ad...\n      ADD \t\t\trequire(busdToken.balanceOf(ad...\n      PUSH [tag] 74\t\t\trequire(busdToken.balanceOf(ad...\n      SWAP1 \t\t\trequire(busdToken.balanceOf(ad...\n      PUSH [tag] 75\t\t\trequire(busdToken.balanceOf(ad...\n      JUMP \t\t\trequire(busdToken.balanceOf(ad...\n    tag 74\t\t\trequire(busdToken.balanceOf(ad...\n      JUMPDEST \t\t\trequire(busdToken.balanceOf(ad...\n      PUSH 40\t\t\trequire(busdToken.balanceOf(ad...\n      MLOAD \t\t\trequire(busdToken.balanceOf(ad...\n      DUP1 \t\t\trequire(busdToken.balanceOf(ad...\n      SWAP2 \t\t\trequire(busdToken.balanceOf(ad...\n      SUB \t\t\trequire(busdToken.balanceOf(ad...\n      SWAP1 \t\t\trequire(busdToken.balanceOf(ad...\n      REVERT \t\t\trequire(busdToken.balanceOf(ad...\n    tag 73\t\t\trequire(busdToken.balanceOf(ad...\n      JUMPDEST \t\t\trequire(busdToken.balanceOf(ad...\n      PUSHIMMUTABLE 332\t\t\tbusdToken\n      PUSH FFFFFFFFFFFFFFFFFFFFFFFFFFFFFFFFFFFFFFFF\t\t\tbusdToken.transfer\n      AND \t\t\tbusdToken.transfer\n      PUSH A9059CBB\t\t\tbusdToken.transfer\n      CALLER \t\t\tmsg.sender\n      DUP4 \t\t\tamount\n      PUSH 40\t\t\tbusdToken.transfer(msg.sender,...\n      MLOAD \t\t\tbusdToken.transfer(msg.sender,...\n      DUP4 \t\t\tbusdToken.transfer(msg.sender,...\n      PUSH FFFFFFFF\t\t\tbusdToken.transfer(msg.sender,...\n      AND \t\t\tbusdToken.transfer(msg.sender,...\n      PUSH E0\t\t\tbusdToken.transfer(msg.sender,...\n      SHL \t\t\tbusdToken.transfer(msg.sender,...\n      DUP2 \t\t\tbusdToken.transfer(msg.sender,...\n      MSTORE \t\t\tbusdToken.transfer(msg.sender,...\n      PUSH 4\t\t\tbusdToken.transfer(msg.sender,...\n      ADD \t\t\tbusdToken.transfer(msg.sender,...\n      PUSH [tag] 76\t\t\tbusdToken.transfer(msg.sender,...\n      SWAP3 \t\t\tbusdToken.transfer(msg.sender,...\n      SWAP2 \t\t\tbusdToken.transfer(msg.sender,...\n      SWAP1 \t\t\tbusdToken.transfer(msg.sender,...\n      PUSH [tag] 77\t\t\tbusdToken.transfer(msg.sender,...\n      JUMP \t\t\tbusdToken.transfer(msg.sender,...\n    tag 76\t\t\tbusdToken.transfer(msg.sender,...\n      JUMPDEST \t\t\tbusdToken.transfer(msg.sender,...\n      PUSH 20\t\t\tbusdToken.transfer(msg.sender,...\n      PUSH 40\t\t\tbusdToken.transfer(msg.sender,...\n      MLOAD \t\t\tbusdToken.transfer(msg.sender,...\n      DUP1 \t\t\tbusdToken.transfer(msg.sender,...\n      DUP4 \t\t\tbusdToken.transfer(msg.sender,...\n      SUB \t\t\tbusdToken.transfer(msg.sender,...\n      DUP2 \t\t\tbusdToken.transfer(msg.sender,...\n      PUSH 0\t\t\tbusdToken.transfer(msg.sender,...\n      DUP8 \t\t\tbusdToken.transfer(msg.sender,...\n      GAS \t\t\tbusdToken.transfer(msg.sender,...\n      CALL \t\t\tbusdToken.transfer(msg.sender,...\n      ISZERO \t\t\tbusdToken.transfer(msg.sender,...\n      DUP1 \t\t\tbusdToken.transfer(msg.sender,...\n      ISZERO \t\t\tbusdToken.transfer(msg.sender,...\n      PUSH [tag] 79\t\t\tbusdToken.transfer(msg.sender,...\n      JUMPI \t\t\tbusdToken.transfer(msg.sender,...\n      RETURNDATASIZE \t\t\tbusdToken.transfer(msg.sender,...\n      PUSH 0\t\t\tbusdToken.transfer(msg.sender,...\n      DUP1 \t\t\tbusdToken.transfer(msg.sender,...\n      RETURNDATACOPY \t\t\tbusdToken.transfer(msg.sender,...\n      RETURNDATASIZE \t\t\tbusdToken.transfer(msg.sender,...\n      PUSH 0\t\t\tbusdToken.transfer(msg.sender,...\n      REVERT \t\t\tbusdToken.transfer(msg.sender,...\n    tag 79\t\t\tbusdToken.transfer(msg.sender,...\n      JUMPDEST \t\t\tbusdToken.transfer(msg.sender,...\n      POP \t\t\tbusdToken.transfer(msg.sender,...\n      POP \t\t\tbusdToken.transfer(msg.sender,...\n      POP \t\t\tbusdToken.transfer(msg.sender,...\n      POP \t\t\tbusdToken.transfer(msg.sender,...\n      PUSH 40\t\t\tbusdToken.transfer(msg.sender,...\n      MLOAD \t\t\tbusdToken.transfer(msg.sender,...\n      RETURNDATASIZE \t\t\tbusdToken.transfer(msg.sender,...\n      PUSH 1F\t\t\tbusdToken.transfer(msg.sender,...\n      NOT \t\t\tbusdToken.transfer(msg.sender,...\n      PUSH 1F\t\t\tbusdToken.transfer(msg.sender,...\n      DUP3 \t\t\tbusdToken.transfer(msg.sender,...\n      ADD \t\t\tbusdToken.transfer(msg.sender,...\n      AND \t\t\tbusdToken.transfer(msg.sender,...\n      DUP3 \t\t\tbusdToken.transfer(msg.sender,...\n      ADD \t\t\tbusdToken.transfer(msg.sender,...\n      DUP1 \t\t\tbusdToken.transfer(msg.sender,...\n      PUSH 40\t\t\tbusdToken.transfer(msg.sender,...\n      MSTORE \t\t\tbusdToken.transfer(msg.sender,...\n      POP \t\t\tbusdToken.transfer(msg.sender,...\n      DUP2 \t\t\tbusdToken.transfer(msg.sender,...\n      ADD \t\t\tbusdToken.transfer(msg.sender,...\n      SWAP1 \t\t\tbusdToken.transfer(msg.sender,...\n      PUSH [tag] 80\t\t\tbusdToken.transfer(msg.sender,...\n      SWAP2 \t\t\tbusdToken.transfer(msg.sender,...\n      SWAP1 \t\t\tbusdToken.transfer(msg.sender,...\n      PUSH [tag] 81\t\t\tbusdToken.transfer(msg.sender,...\n      JUMP \t\t\tbusdToken.transfer(msg.sender,...\n    tag 80\t\t\tbusdToken.transfer(msg.sender,...\n      JUMPDEST \t\t\tbusdToken.transfer(msg.sender,...\n      PUSH [tag] 82\t\t\trequire(busdToken.transfer(msg...\n      JUMPI \t\t\trequire(busdToken.transfer(msg...\n      PUSH 40\t\t\trequire(busdToken.transfer(msg...\n      MLOAD \t\t\trequire(busdToken.transfer(msg...\n      PUSH 8C379A000000000000000000000000000000000000000000000000000000000\t\t\trequire(busdToken.transfer(msg...\n      DUP2 \t\t\trequire(busdToken.transfer(msg...\n      MSTORE \t\t\trequire(busdToken.transfer(msg...\n      PUSH 4\t\t\trequire(busdToken.transfer(msg...\n      ADD \t\t\trequire(busdToken.transfer(msg...\n      PUSH [tag] 83\t\t\trequire(busdToken.transfer(msg...\n      SWAP1 \t\t\trequire(busdToken.transfer(msg...\n      PUSH [tag] 84\t\t\trequire(busdToken.transfer(msg...\n      JUMP \t\t\trequire(busdToken.transfer(msg...\n    tag 83\t\t\trequire(busdToken.transfer(msg...\n      JUMPDEST \t\t\trequire(busdToken.transfer(msg...\n      PUSH 40\t\t\trequire(busdToken.transfer(msg...\n      MLOAD \t\t\trequire(busdToken.transfer(msg...\n      DUP1 \t\t\trequire(busdToken.transfer(msg...\n      SWAP2 \t\t\trequire(busdToken.transfer(msg...\n      SUB \t\t\trequire(busdToken.transfer(msg...\n      SWAP1 \t\t\trequire(busdToken.transfer(msg...\n      REVERT \t\t\trequire(busdToken.transfer(msg...\n    tag 82\t\t\trequire(busdToken.transfer(msg...\n      JUMPDEST \t\t\trequire(busdToken.transfer(msg...\n      CALLER \t\t\tmsg.sender\n      PUSH FFFFFFFFFFFFFFFFFFFFFFFFFFFFFFFFFFFFFFFF\t\t\tFundsWithdrawn(msg.sender, amo...\n      AND \t\t\tFundsWithdrawn(msg.sender, amo...\n      PUSH EAFF4B37086828766AD3268786972C0CD24259D4C87A80F9D3963A3C3D999B0D\t\t\tFundsWithdrawn(msg.sender, amo...\n      DUP3 \t\t\tamount\n      PUSH 40\t\t\tFundsWithdrawn(msg.sender, amo...\n      MLOAD \t\t\tFundsWithdrawn(msg.sender, amo...\n      PUSH [tag] 85\t\t\tFundsWithdrawn(msg.sender, amo...\n      SWAP2 \t\t\tFundsWithdrawn(msg.sender, amo...\n      SWAP1 \t\t\tFundsWithdrawn(msg.sender, amo...\n      PUSH [tag] 23\t\t\tFundsWithdrawn(msg.sender, amo...\n      JUMP \t\t\tFundsWithdrawn(msg.sender, amo...\n    tag 85\t\t\tFundsWithdrawn(msg.sender, amo...\n      JUMPDEST \t\t\tFundsWithdrawn(msg.sender, amo...\n      PUSH 40\t\t\tFundsWithdrawn(msg.sender, amo...\n      MLOAD \t\t\tFundsWithdrawn(msg.sender, amo...\n      DUP1 \t\t\tFundsWithdrawn(msg.sender, amo...\n      SWAP2 \t\t\tFundsWithdrawn(msg.sender, amo...\n      SUB \t\t\tFundsWithdrawn(msg.sender, amo...\n      SWAP1 \t\t\tFundsWithdrawn(msg.sender, amo...\n      LOG2 \t\t\tFundsWithdrawn(msg.sender, amo...\n      PUSH [tag] 86\t\t\t expiry);\\r\\n    }\\r\\n\\r\\n\n      PUSH [tag] 87\t\t\t expiry);\\r\\n    }\\r\\n\n      JUMP \t\t\t expiry);\\r\\n    }\\r\\n\\r\\n\n    tag 86\t\t\t expiry);\\r\\n    }\\r\\n\\r\\n\n      JUMPDEST \t\t\t expiry);\\r\\n    }\\r\\n\\r\\n\n      POP \t\t\tfunction withdrawFunds(uint256...\n      JUMP \t\t\tfunction withdrawFunds(uint256...\n    tag 21\t\t\tuint256 public priceBusinessMo...\n      JUMPDEST \t\t\tuint256 public priceBusinessMo...\n      PUSH 3\t\t\tuint256 public priceBusinessMo...\n      SLOAD \t\t\tuint256 public priceBusinessMo...\n      DUP2 \t\t\tuint256 public priceBusinessMo...\n      JUMP \t\t\tuint256 public priceBusinessMo...\n    tag 27\t\t\tfunction updatePrices(uint256 ...\n      JUMPDEST \t\t\tfunction updatePrices(uint256 ...\n      PUSH [tag] 89\t\t\t\\n        uint\n      PUSH [tag] 63\t\t\t\\n        ui\n      JUMP \t\t\t\\n        uint\n    tag 89\t\t\t\\n        uint\n      JUMPDEST \t\t\t\\n        uint\n      DUP3 \t\t\tnewBusinessMonthly\n      PUSH 3\t\t\tpriceBusinessMonthly\n      DUP2 \t\t\tpriceBusinessMonthly = newBusi...\n      SWAP1 \t\t\tpriceBusinessMonthly = newBusi...\n      SSTORE \t\t\tpriceBusinessMonthly = newBusi...\n      POP \t\t\tpriceBusinessMonthly = newBusi...\n      DUP2 \t\t\tnewFirstSixMonths\n      PUSH 4\t\t\tpriceFirstSixMonths\n      DUP2 \t\t\tpriceFirstSixMonths = newFirst...\n      SWAP1 \t\t\tpriceFirstSixMonths = newFirst...\n      SSTORE \t\t\tpriceFirstSixMonths = newFirst...\n      POP \t\t\tpriceFirstSixMonths = newFirst...\n      DUP1 \t\t\tnewFirstLifetime\n      PUSH 5\t\t\tpriceFirstLifetime\n      DUP2 \t\t\tpriceFirstLifetime = newFirstL...\n      SWAP1 \t\t\tpriceFirstLifetime = newFirstL...\n      SSTORE \t\t\tpriceFirstLifetime = newFirstL...\n      POP \t\t\tpriceFirstLifetime = newFirstL...\n      PUSH A6B830B74E52D7D1140E76252F225DC7BED28782519845600BBD3182341DC115\t\t\tPricesUpdated(newBusinessMonth...\n      DUP4 \t\t\tnewBusinessMonthly\n      DUP4 \t\t\tnewFirstSixMonths\n      DUP4 \t\t\tnewFirstLifetime\n      PUSH 40\t\t\tPricesUpdated(newBusinessMonth...\n      MLOAD \t\t\tPricesUpdated(newBusinessMonth...\n      PUSH [tag] 91\t\t\tPricesUpdated(newBusinessMonth...\n      SWAP4 \t\t\tPricesUpdated(newBusinessMonth...\n      SWAP3 \t\t\tPricesUpdated(newBusinessMonth...\n      SWAP2 \t\t\tPricesUpdated(newBusinessMonth...\n      SWAP1 \t\t\tPricesUpdated(newBusinessMonth...\n      PUSH [tag] 92\t\t\tPricesUpdated(newBusinessMonth...\n      JUMP \t\t\tPricesUpdated(newBusinessMonth...\n    tag 91\t\t\tPricesUpdated(newBusinessMonth...\n      JUMPDEST \t\t\tPricesUpdated(newBusinessMonth...\n      PUSH 40\t\t\tPricesUpdated(newBusinessMonth...\n      MLOAD \t\t\tPricesUpdated(newBusinessMonth...\n      DUP1 \t\t\tPricesUpdated(newBusinessMonth...\n      SWAP2 \t\t\tPricesUpdated(newBusinessMonth...\n      SUB \t\t\tPricesUpdated(newBusinessMonth...\n      SWAP1 \t\t\tPricesUpdated(newBusinessMonth...\n      LOG1 \t\t\tPricesUpdated(newBusinessMonth...\n      POP \t\t\tfunction updatePrices(uint256 ...\n      POP \t\t\tfunction updatePrices(uint256 ...\n      POP \t\t\tfunction updatePrices(uint256 ...\n      JUMP \t\t\tfunction updatePrices(uint256 ...\n    tag 31\t\t\tfunction subscribe(PlanType pl...\n      JUMPDEST \t\t\tfunction subscribe(PlanType pl...\n      PUSH [tag] 94\t\t\t\\n        emit Subscri\n      PUSH [tag] 66\t\t\t\\n        emit Subsc\n      JUMP \t\t\t\\n        emit Subscri\n    tag 94\t\t\t\\n        emit Subscri\n      JUMPDEST \t\t\t\\n        emit Subscri\n      PUSH 0\t\t\tPlanType.None\n      PUSH 3\t\t\tplan != PlanType.None\n      DUP2 \t\t\tplan != PlanType.None\n      GT \t\t\tplan != PlanType.None\n      ISZERO \t\t\tplan != PlanType.None\n      PUSH [tag] 96\t\t\tplan != PlanType.None\n      JUMPI \t\t\tplan != PlanType.None\n      PUSH [tag] 97\t\t\tplan != PlanType.None\n      PUSH [tag] 98\t\t\tplan != PlanType.None\n      JUMP \t\t\tplan != PlanType.None\n    tag 97\t\t\tplan != PlanType.None\n      JUMPDEST \t\t\tplan != PlanType.None\n    tag 96\t\t\tplan != PlanType.None\n      JUMPDEST \t\t\tplan != PlanType.None\n      DUP2 \t\t\tplan\n      PUSH 3\t\t\tplan != PlanType.None\n      DUP2 \t\t\tplan != PlanType.None\n      GT \t\t\tplan != PlanType.None\n      ISZERO \t\t\tplan != PlanType.None\n      PUSH [tag] 99\t\t\tplan != PlanType.None\n      JUMPI \t\t\tplan != PlanType.None\n      PUSH [tag] 100\t\t\tplan != PlanType.None\n      PUSH [tag] 98\t\t\tplan != PlanType.None\n      JUMP \t\t\tplan != PlanType.None\n    tag 100\t\t\tplan != PlanType.None\n      JUMPDEST \t\t\tplan != PlanType.None\n    tag 99\t\t\tplan != PlanType.None\n      JUMPDEST \t\t\tplan != PlanType.None\n      SUB \t\t\tplan != PlanType.None\n      PUSH [tag] 101\t\t\trequire(plan != PlanType.None,...\n      JUMPI \t\t\trequire(plan != PlanType.None,...\n      PUSH 40\t\t\trequire(plan != PlanType.None,...\n      MLOAD \t\t\trequire(plan != PlanType.None,...\n      PUSH 8C379A000000000000000000000000000000000000000000000000000000000\t\t\trequire(plan != PlanType.None,...\n      DUP2 \t\t\trequire(plan != PlanType.None,...\n      MSTORE \t\t\trequire(plan != PlanType.None,...\n      PUSH 4\t\t\trequire(plan != PlanType.None,...\n      ADD \t\t\trequire(plan != PlanType.None,...\n      PUSH [tag] 102\t\t\trequire(plan != PlanType.None,...\n      SWAP1 \t\t\trequire(plan != PlanType.None,...\n      PUSH [tag] 103\t\t\trequire(plan != PlanType.None,...\n      JUMP \t\t\trequire(plan != PlanType.None,...\n    tag 102\t\t\trequire(plan != PlanType.None,...\n      JUMPDEST \t\t\trequire(plan != PlanType.None,...\n      PUSH 40\t\t\trequire(plan != PlanType.None,...\n      MLOAD \t\t\trequire(plan != PlanType.None,...\n      DUP1 \t\t\trequire(plan != PlanType.None,...\n      SWAP2 \t\t\trequire(plan != PlanType.None,...\n      SUB \t\t\trequire(plan != PlanType.None,...\n      SWAP1 \t\t\trequire(plan != PlanType.None,...\n      REVERT \t\t\trequire(plan != PlanType.None,...\n    tag 101\t\t\trequire(plan != PlanType.None,...\n      JUMPDEST \t\t\trequire(plan != PlanType.None,...\n      PUSH 0\t\t\tSubscription storage userSub\n      PUSH 2\t\t\tsubscriptions\n      PUSH 0\t\t\tsubscriptions[msg.sender]\n      CALLER \t\t\tmsg.sender\n      PUSH FFFFFFFFFFFFFFFFFFFFFFFFFFFFFFFFFFFFFFFF\t\t\tsubscriptions[msg.sender]\n      AND \t\t\tsubscriptions[msg.sender]\n      PUSH FFFFFFFFFFFFFFFFFFFFFFFFFFFFFFFFFFFFFFFF\t\t\tsubscriptions[msg.sender]\n      AND \t\t\tsubscriptions[msg.sender]\n      DUP2 \t\t\tsubscriptions[msg.sender]\n      MSTORE \t\t\tsubscriptions[msg.sender]\n      PUSH 20\t\t\tsubscriptions[msg.sender]\n      ADD \t\t\tsubscriptions[msg.sender]\n      SWAP1 \t\t\tsubscriptions[msg.sender]\n      DUP2 \t\t\tsubscriptions[msg.sender]\n      MSTORE \t\t\tsubscriptions[msg.sender]\n      PUSH 20\t\t\tsubscriptions[msg.sender]\n      ADD \t\t\tsubscriptions[msg.sender]\n      PUSH 0\t\t\tsubscriptions[msg.sender]\n      KECCAK256 \t\t\tsubscriptions[msg.sender]\n      SWAP1 \t\t\tSubscription storage userSub =...\n      POP \t\t\tSubscription storage userSub =...\n      PUSH 0\t\t\tPlanType.None\n      PUSH 3\t\t\tuserSub.plan == PlanType.None\n      DUP2 \t\t\tuserSub.plan == PlanType.None\n      GT \t\t\tuserSub.plan == PlanType.None\n      ISZERO \t\t\tuserSub.plan == PlanType.None\n      PUSH [tag] 104\t\t\tuserSub.plan == PlanType.None\n      JUMPI \t\t\tuserSub.plan == PlanType.None\n      PUSH [tag] 105\t\t\tuserSub.plan == PlanType.None\n      PUSH [tag] 98\t\t\tuserSub.plan == PlanType.None\n      JUMP \t\t\tuserSub.plan == PlanType.None\n    tag 105\t\t\tuserSub.plan == PlanType.None\n      JUMPDEST \t\t\tuserSub.plan == PlanType.None\n    tag 104\t\t\tuserSub.plan == PlanType.None\n      JUMPDEST \t\t\tuserSub.plan == PlanType.None\n      DUP2 \t\t\tuserSub\n      PUSH 0\t\t\tuserSub.plan\n      ADD \t\t\tuserSub.plan\n      PUSH 0\t\t\tuserSub.plan\n      SWAP1 \t\t\tuserSub.plan\n      SLOAD \t\t\tuserSub.plan\n      SWAP1 \t\t\tuserSub.plan\n      PUSH 100\t\t\tuserSub.plan\n      EXP \t\t\tuserSub.plan\n      SWAP1 \t\t\tuserSub.plan\n      DIV \t\t\tuserSub.plan\n      PUSH FF\t\t\tuserSub.plan\n      AND \t\t\tuserSub.plan\n      PUSH 3\t\t\tuserSub.plan == PlanType.None\n      DUP2 \t\t\tuserSub.plan == PlanType.None\n      GT \t\t\tuserSub.plan == PlanType.None\n      ISZERO \t\t\tuserSub.plan == PlanType.None\n      PUSH [tag] 106\t\t\tuserSub.plan == PlanType.None\n      JUMPI \t\t\tuserSub.plan == PlanType.None\n      PUSH [tag] 107\t\t\tuserSub.plan == PlanType.None\n      PUSH [tag] 98\t\t\tuserSub.plan == PlanType.None\n      JUMP \t\t\tuserSub.plan == PlanType.None\n    tag 107\t\t\tuserSub.plan == PlanType.None\n      JUMPDEST \t\t\tuserSub.plan == PlanType.None\n    tag 106\t\t\tuserSub.plan == PlanType.None\n      JUMPDEST \t\t\tuserSub.plan == PlanType.None\n      EQ \t\t\tuserSub.plan == PlanType.None\n      DUP1 \t\t\tuserSub.plan == PlanType.None ...\n      PUSH [tag] 108\t\t\tuserSub.plan == PlanType.None ...\n      JUMPI \t\t\tuserSub.plan == PlanType.None ...\n      POP \t\t\tuserSub.plan == PlanType.None ...\n      DUP1 \t\t\tuserSub\n      PUSH 1\t\t\tuserSub.expiry\n      ADD \t\t\tuserSub.expiry\n      SLOAD \t\t\tuserSub.expiry\n      TIMESTAMP \t\t\tblock.timestamp\n      LT \t\t\tblock.timestamp >= userSub.exp...\n      ISZERO \t\t\tblock.timestamp >= userSub.exp...\n    tag 108\t\t\tuserSub.plan == PlanType.None ...\n      JUMPDEST \t\t\tuserSub.plan == PlanType.None ...\n      PUSH [tag] 109\t\t\trequire(userSub.plan == PlanTy...\n      JUMPI \t\t\trequire(userSub.plan == PlanTy...\n      PUSH 40\t\t\trequire(userSub.plan == PlanTy...\n      MLOAD \t\t\trequire(userSub.plan == PlanTy...\n      PUSH 8C379A000000000000000000000000000000000000000000000000000000000\t\t\trequire(userSub.plan == PlanTy...\n      DUP2 \t\t\trequire(userSub.plan == PlanTy...\n      MSTORE \t\t\trequire(userSub.plan == PlanTy...\n      PUSH 4\t\t\trequire(userSub.plan == PlanTy...\n      ADD \t\t\trequire(userSub.plan == PlanTy...\n      PUSH [tag] 110\t\t\trequire(userSub.plan == PlanTy...\n      SWAP1 \t\t\trequire(userSub.plan == PlanTy...\n      PUSH [tag] 111\t\t\trequire(userSub.plan == PlanTy...\n      JUMP \t\t\trequire(userSub.plan == PlanTy...\n    tag 110\t\t\trequire(userSub.plan == PlanTy...\n      JUMPDEST \t\t\trequire(userSub.plan == PlanTy...\n      PUSH 40\t\t\trequire(userSub.plan == PlanTy...\n      MLOAD \t\t\trequire(userSub.plan == PlanTy...\n      DUP1 \t\t\trequire(userSub.plan == PlanTy...\n      SWAP2 \t\t\trequire(userSub.plan == PlanTy...\n      SUB \t\t\trequire(userSub.plan == PlanTy...\n      SWAP1 \t\t\trequire(userSub.plan == PlanTy...\n      REVERT \t\t\trequire(userSub.plan == PlanTy...\n    tag 109\t\t\trequire(userSub.plan == PlanTy...\n      JUMPDEST \t\t\trequire(userSub.plan == PlanTy...\n      PUSH 0\t\t\tuint256 price\n      DUP1 \t\t\tuint256 duration\n      PUSH 1\t\t\tPlanType.BusinessMonthly\n      PUSH 3\t\t\tplan == PlanType.BusinessMonth...\n      DUP2 \t\t\tplan == PlanType.BusinessMonth...\n      GT \t\t\tplan == PlanType.BusinessMonth...\n      ISZERO \t\t\tplan == PlanType.BusinessMonth...\n      PUSH [tag] 112\t\t\tplan == PlanType.BusinessMonth...\n      JUMPI \t\t\tplan == PlanType.BusinessMonth...\n      PUSH [tag] 113\t\t\tplan == PlanType.BusinessMonth...\n      PUSH [tag] 98\t\t\tplan == PlanType.BusinessMonth...\n      JUMP \t\t\tplan == PlanType.BusinessMonth...\n    tag 113\t\t\tplan == PlanType.BusinessMonth...\n      JUMPDEST \t\t\tplan == PlanType.BusinessMonth...\n    tag 112\t\t\tplan == PlanType.BusinessMonth...\n      JUMPDEST \t\t\tplan == PlanType.BusinessMonth...\n      DUP5 \t\t\tplan\n      PUSH 3\t\t\tplan == PlanType.BusinessMonth...\n      DUP2 \t\t\tplan == PlanType.BusinessMonth...\n      GT \t\t\tplan == PlanType.BusinessMonth...\n      ISZERO \t\t\tplan == PlanType.BusinessMonth...\n      PUSH [tag] 114\t\t\tplan == PlanType.BusinessMonth...\n      JUMPI \t\t\tplan == PlanType.BusinessMonth...\n      PUSH [tag] 115\t\t\tplan == PlanType.BusinessMonth...\n      PUSH [tag] 98\t\t\tplan == PlanType.BusinessMonth...\n      JUMP \t\t\tplan == PlanType.BusinessMonth...\n    tag 115\t\t\tplan == PlanType.BusinessMonth...\n      JUMPDEST \t\t\tplan == PlanType.BusinessMonth...\n    tag 114\t\t\tplan == PlanType.BusinessMonth...\n      JUMPDEST \t\t\tplan == PlanType.BusinessMonth...\n      SUB \t\t\tplan == PlanType.BusinessMonth...\n      PUSH [tag] 116\t\t\tif (plan == PlanType.BusinessM...\n      JUMPI \t\t\tif (plan == PlanType.BusinessM...\n      PUSH 3\t\t\tpriceBusinessMonthly\n      SLOAD \t\t\tpriceBusinessMonthly\n      SWAP2 \t\t\tprice = priceBusinessMonthly\n      POP \t\t\tprice = priceBusinessMonthly\n      PUSH 278D00\t\t\t30 days\n      SWAP1 \t\t\tduration = 30 days\n      POP \t\t\tduration = 30 days\n      PUSH [tag] 117\t\t\tif (plan == PlanType.BusinessM...\n      JUMP \t\t\tif (plan == PlanType.BusinessM...\n    tag 116\t\t\tif (plan == PlanType.BusinessM...\n      JUMPDEST \t\t\tif (plan == PlanType.BusinessM...\n      PUSH 2\t\t\tPlanType.FirstSixMonths\n      PUSH 3\t\t\tplan == PlanType.FirstSixMonth...\n      DUP2 \t\t\tplan == PlanType.FirstSixMonth...\n      GT \t\t\tplan == PlanType.FirstSixMonth...\n      ISZERO \t\t\tplan == PlanType.FirstSixMonth...\n      PUSH [tag] 118\t\t\tplan == PlanType.FirstSixMonth...\n      JUMPI \t\t\tplan == PlanType.FirstSixMonth...\n      PUSH [tag] 119\t\t\tplan == PlanType.FirstSixMonth...\n      PUSH [tag] 98\t\t\tplan == PlanType.FirstSixMonth...\n      JUMP \t\t\tplan == PlanType.FirstSixMonth...\n    tag 119\t\t\tplan == PlanType.FirstSixMonth...\n      JUMPDEST \t\t\tplan == PlanType.FirstSixMonth...\n    tag 118\t\t\tplan == PlanType.FirstSixMonth...\n      JUMPDEST \t\t\tplan == PlanType.FirstSixMonth...\n      DUP5 \t\t\tplan\n      PUSH 3\t\t\tplan == PlanType.FirstSixMonth...\n      DUP2 \t\t\tplan == PlanType.FirstSixMonth...\n      GT \t\t\tplan == PlanType.FirstSixMonth...\n      ISZERO \t\t\tplan == PlanType.FirstSixMonth...\n      PUSH [tag] 120\t\t\tplan == PlanType.FirstSixMonth...\n      JUMPI \t\t\tplan == PlanType.FirstSixMonth...\n      PUSH [tag] 121\t\t\tplan == PlanType.FirstSixMonth...\n      PUSH [tag] 98\t\t\tplan == PlanType.FirstSixMonth...\n      JUMP \t\t\tplan == PlanType.FirstSixMonth...\n    tag 121\t\t\tplan == PlanType.FirstSixMonth...\n      JUMPDEST \t\t\tplan == PlanType.FirstSixMonth...\n    tag 120\t\t\tplan == PlanType.FirstSixMonth...\n      JUMPDEST \t\t\tplan == PlanType.FirstSixMonth...\n      SUB \t\t\tplan == PlanType.FirstSixMonth...\n      PUSH [tag] 122\t\t\tif (plan == PlanType.FirstSixM...\n      JUMPI \t\t\tif (plan == PlanType.FirstSixM...\n      PUSH 4\t\t\tpriceFirstSixMonths\n      SLOAD \t\t\tpriceFirstSixMonths\n      SWAP2 \t\t\tprice = priceFirstSixMonths\n      POP \t\t\tprice = priceFirstSixMonths\n      PUSH ED4E00\t\t\t180 days\n      SWAP1 \t\t\tduration = 180 days\n      POP \t\t\tduration = 180 days\n      PUSH [tag] 123\t\t\tif (plan == PlanType.FirstSixM...\n      JUMP \t\t\tif (plan == PlanType.FirstSixM...\n    tag 122\t\t\tif (plan == PlanType.FirstSixM...\n      JUMPDEST \t\t\tif (plan == PlanType.FirstSixM...\n      PUSH 3\t\t\tPlanType.FirstLifetime\n      DUP1 \t\t\tplan == PlanType.FirstLifetime\n      DUP2 \t\t\tplan == PlanType.FirstLifetime\n      GT \t\t\tplan == PlanType.FirstLifetime\n      ISZERO \t\t\tplan == PlanType.FirstLifetime\n      PUSH [tag] 124\t\t\tplan == PlanType.FirstLifetime\n      JUMPI \t\t\tplan == PlanType.FirstLifetime\n      PUSH [tag] 125\t\t\tplan == PlanType.FirstLifetime\n      PUSH [tag] 98\t\t\tplan == PlanType.FirstLifetime\n      JUMP \t\t\tplan == PlanType.FirstLifetime\n    tag 125\t\t\tplan == PlanType.FirstLifetime\n      JUMPDEST \t\t\tplan == PlanType.FirstLifetime\n    tag 124\t\t\tplan == PlanType.FirstLifetime\n      JUMPDEST \t\t\tplan == PlanType.FirstLifetime\n      DUP5 \t\t\tplan\n      PUSH 3\t\t\tplan == PlanType.FirstLifetime\n      DUP2 \t\t\tplan == PlanType.FirstLifetime\n      GT \t\t\tplan == PlanType.FirstLifetime\n      ISZERO \t\t\tplan == PlanType.FirstLifetime\n      PUSH [tag] 126\t\t\tplan == PlanType.FirstLifetime\n      JUMPI \t\t\tplan == PlanType.FirstLifetime\n      PUSH [tag] 127\t\t\tplan == PlanType.FirstLifetime\n      PUSH [tag] 98\t\t\tplan == PlanType.FirstLifetime\n      JUMP \t\t\tplan == PlanType.FirstLifetime\n    tag 127\t\t\tplan == PlanType.FirstLifetime\n      JUMPDEST \t\t\tplan == PlanType.FirstLifetime\n    tag 126\t\t\tplan == PlanType.FirstLifetime\n      JUMPDEST \t\t\tplan == PlanType.FirstLifetime\n      SUB \t\t\tplan == PlanType.FirstLifetime\n      PUSH [tag] 128\t\t\tif (plan == PlanType.FirstLife...\n      JUMPI \t\t\tif (plan == PlanType.FirstLife...\n      PUSH 5\t\t\tpriceFirstLifetime\n      SLOAD \t\t\tpriceFirstLifetime\n      SWAP2 \t\t\tprice = priceFirstLifetime\n      POP \t\t\tprice = priceFirstLifetime\n      PUSH FFFFFFFFFFFFFFFFFFFFFFFFFFFFFFFFFFFFFFFFFFFFFFFFFFFFFFFFFFFFFFFF\t\t\ttype(uint256).max\n      SWAP1 \t\t\tduration = type(uint256).max\n      POP \t\t\tduration = type(uint256).max\n    tag 128\t\t\tif (plan == PlanType.FirstLife...\n      JUMPDEST \t\t\tif (plan == PlanType.FirstLife...\n    tag 123\t\t\tif (plan == PlanType.FirstSixM...\n      JUMPDEST \t\t\tif (plan == PlanType.FirstSixM...\n    tag 117\t\t\tif (plan == PlanType.BusinessM...\n      JUMPDEST \t\t\tif (plan == PlanType.BusinessM...\n      PUSHIMMUTABLE 332\t\t\tbusdToken\n      PUSH FFFFFFFFFFFFFFFFFFFFFFFFFFFFFFFFFFFFFFFF\t\t\tbusdToken.transferFrom\n      AND \t\t\tbusdToken.transferFrom\n      PUSH 23B872DD\t\t\tbusdToken.transferFrom\n      CALLER \t\t\tmsg.sender\n      ADDRESS \t\t\tthis\n      DUP6 \t\t\tprice\n      PUSH 40\t\t\tbusdToken.transferFrom(msg.sen...\n      MLOAD \t\t\tbusdToken.transferFrom(msg.sen...\n      DUP5 \t\t\tbusdToken.transferFrom(msg.sen...\n      PUSH FFFFFFFF\t\t\tbusdToken.transferFrom(msg.sen...\n      AND \t\t\tbusdToken.transferFrom(msg.sen...\n      PUSH E0\t\t\tbusdToken.transferFrom(msg.sen...\n      SHL \t\t\tbusdToken.transferFrom(msg.sen...\n      DUP2 \t\t\tbusdToken.transferFrom(msg.sen...\n      MSTORE \t\t\tbusdToken.transferFrom(msg.sen...\n      PUSH 4\t\t\tbusdToken.transferFrom(msg.sen...\n      ADD \t\t\tbusdToken.transferFrom(msg.sen...\n      PUSH [tag] 129\t\t\tbusdToken.transferFrom(msg.sen...\n      SWAP4 \t\t\tbusdToken.transferFrom(msg.sen...\n      SWAP3 \t\t\tbusdToken.transferFrom(msg.sen...\n      SWAP2 \t\t\tbusdToken.transferFrom(msg.sen...\n      SWAP1 \t\t\tbusdToken.transferFrom(msg.sen...\n      PUSH [tag] 130\t\t\tbusdToken.transferFrom(msg.sen...\n      JUMP \t\t\tbusdToken.transferFrom(msg.sen...\n    tag 129\t\t\tbusdToken.transferFrom(msg.sen...\n      JUMPDEST \t\t\tbusdToken.transferFrom(msg.sen...\n      PUSH 20\t\t\tbusdToken.transferFrom(msg.sen...\n      PUSH 40\t\t\tbusdToken.transferFrom(msg.sen...\n      MLOAD \t\t\tbusdToken.transferFrom(msg.sen...\n      DUP1 \t\t\tbusdToken.transferFrom(msg.sen...\n      DUP4 \t\t\tbusdToken.transferFrom(msg.sen...\n      SUB \t\t\tbusdToken.transferFrom(msg.sen...\n      DUP2 \t\t\tbusdToken.transferFrom(msg.sen...\n      PUSH 0\t\t\tbusdToken.transferFrom(msg.sen...\n      DUP8 \t\t\tbusdToken.transferFrom(msg.sen...\n      GAS \t\t\tbusdToken.transferFrom(msg.sen...\n      CALL \t\t\tbusdToken.transferFrom(msg.sen...\n      ISZERO \t\t\tbusdToken.transferFrom(msg.sen...\n      DUP1 \t\t\tbusdToken.transferFrom(msg.sen...\n      ISZERO \t\t\tbusdToken.transferFrom(msg.sen...\n      PUSH [tag] 132\t\t\tbusdToken.transferFrom(msg.sen...\n      JUMPI \t\t\tbusdToken.transferFrom(msg.sen...\n      RETURNDATASIZE \t\t\tbusdToken.transferFrom(msg.sen...\n      PUSH 0\t\t\tbusdToken.transferFrom(msg.sen...\n      DUP1 \t\t\tbusdToken.transferFrom(msg.sen...\n      RETURNDATACOPY \t\t\tbusdToken.transferFrom(msg.sen...\n      RETURNDATASIZE \t\t\tbusdToken.transferFrom(msg.sen...\n      PUSH 0\t\t\tbusdToken.transferFrom(msg.sen...\n      REVERT \t\t\tbusdToken.transferFrom(msg.sen...\n    tag 132\t\t\tbusdToken.transferFrom(msg.sen...\n      JUMPDEST \t\t\tbusdToken.transferFrom(msg.sen...\n      POP \t\t\tbusdToken.transferFrom(msg.sen...\n      POP \t\t\tbusdToken.transferFrom(msg.sen...\n      POP \t\t\tbusdToken.transferFrom(msg.sen...\n      POP \t\t\tbusdToken.transferFrom(msg.sen...\n      PUSH 40\t\t\tbusdToken.transferFrom(msg.sen...\n      MLOAD \t\t\tbusdToken.transferFrom(msg.sen...\n      RETURNDATASIZE \t\t\tbusdToken.transferFrom(msg.sen...\n      PUSH 1F\t\t\tbusdToken.transferFrom(msg.sen...\n      NOT \t\t\tbusdToken.transferFrom(msg.sen...\n      PUSH 1F\t\t\tbusdToken.transferFrom(msg.sen...\n      DUP3 \t\t\tbusdToken.transferFrom(msg.sen...\n      ADD \t\t\tbusdToken.transferFrom(msg.sen...\n      AND \t\t\tbusdToken.transferFrom(msg.sen...\n      DUP3 \t\t\tbusdToken.transferFrom(msg.sen...\n      ADD \t\t\tbusdToken.transferFrom(msg.sen...\n      DUP1 \t\t\tbusdToken.transferFrom(msg.sen...\n      PUSH 40\t\t\tbusdToken.transferFrom(msg.sen...\n      MSTORE \t\t\tbusdToken.transferFrom(msg.sen...\n      POP \t\t\tbusdToken.transferFrom(msg.sen...\n      DUP2 \t\t\tbusdToken.transferFrom(msg.sen...\n      ADD \t\t\tbusdToken.transferFrom(msg.sen...\n      SWAP1 \t\t\tbusdToken.transferFrom(msg.sen...\n      PUSH [tag] 133\t\t\tbusdToken.transferFrom(msg.sen...\n      SWAP2 \t\t\tbusdToken.transferFrom(msg.sen...\n      SWAP1 \t\t\tbusdToken.transferFrom(msg.sen...\n      PUSH [tag] 81\t\t\tbusdToken.transferFrom(msg.sen...\n      JUMP \t\t\tbusdToken.transferFrom(msg.sen...\n    tag 133\t\t\tbusdToken.transferFrom(msg.sen...\n      JUMPDEST \t\t\tbusdToken.transferFrom(msg.sen...\n      PUSH [tag] 134\t\t\trequire(busdToken.transferFrom...\n      JUMPI \t\t\trequire(busdToken.transferFrom...\n      PUSH 40\t\t\trequire(busdToken.transferFrom...\n      MLOAD \t\t\trequire(busdToken.transferFrom...\n      PUSH 8C379A000000000000000000000000000000000000000000000000000000000\t\t\trequire(busdToken.transferFrom...\n      DUP2 \t\t\trequire(busdToken.transferFrom...\n      MSTORE \t\t\trequire(busdToken.transferFrom...\n      PUSH 4\t\t\trequire(busdToken.transferFrom...\n      ADD \t\t\trequire(busdToken.transferFrom...\n      PUSH [tag] 135\t\t\trequire(busdToken.transferFrom...\n      SWAP1 \t\t\trequire(busdToken.transferFrom...\n      PUSH [tag] 136\t\t\trequire(busdToken.transferFrom...\n      JUMP \t\t\trequire(busdToken.transferFrom...\n    tag 135\t\t\trequire(busdToken.transferFrom...\n      JUMPDEST \t\t\trequire(busdToken.transferFrom...\n      PUSH 40\t\t\trequire(busdToken.transferFrom...\n      MLOAD \t\t\trequire(busdToken.transferFrom...\n      DUP1 \t\t\trequire(busdToken.transferFrom...\n      SWAP2 \t\t\trequire(busdToken.transferFrom...\n      SUB \t\t\trequire(busdToken.transferFrom...\n      SWAP1 \t\t\trequire(busdToken.transferFrom...\n      REVERT \t\t\trequire(busdToken.transferFrom...\n    tag 134\t\t\trequire(busdToken.transferFrom...\n      JUMPDEST \t\t\trequire(busdToken.transferFrom...\n      PUSH 0\t\t\tuint256 expiry\n      PUSH 3\t\t\tPlanType.FirstLifetime\n      DUP1 \t\t\tplan == PlanType.FirstLifetime\n      DUP2 \t\t\tplan == PlanType.FirstLifetime\n      GT \t\t\tplan == PlanType.FirstLifetime\n      ISZERO \t\t\tplan == PlanType.FirstLifetime\n      PUSH [tag] 137\t\t\tplan == PlanType.FirstLifetime\n      JUMPI \t\t\tplan == PlanType.FirstLifetime\n      PUSH [tag] 138\t\t\tplan == PlanType.FirstLifetime\n      PUSH [tag] 98\t\t\tplan == PlanType.FirstLifetime\n      JUMP \t\t\tplan == PlanType.FirstLifetime\n    tag 138\t\t\tplan == PlanType.FirstLifetime\n      JUMPDEST \t\t\tplan == PlanType.FirstLifetime\n    tag 137\t\t\tplan == PlanType.FirstLifetime\n      JUMPDEST \t\t\tplan == PlanType.FirstLifetime\n      DUP6 \t\t\tplan\n      PUSH 3\t\t\tplan == PlanType.FirstLifetime\n      DUP2 \t\t\tplan == PlanType.FirstLifetime\n      GT \t\t\tplan == PlanType.FirstLifetime\n      ISZERO \t\t\tplan == PlanType.FirstLifetime\n      PUSH [tag] 139\t\t\tplan == PlanType.FirstLifetime\n      JUMPI \t\t\tplan == PlanType.FirstLifetime\n      PUSH [tag] 140\t\t\tplan == PlanType.FirstLifetime\n      PUSH [tag] 98\t\t\tplan == PlanType.FirstLifetime\n      JUMP \t\t\tplan == PlanType.FirstLifetime\n    tag 140\t\t\tplan == PlanType.FirstLifetime\n      JUMPDEST \t\t\tplan == PlanType.FirstLifetime\n    tag 139\t\t\tplan == PlanType.FirstLifetime\n      JUMPDEST \t\t\tplan == PlanType.FirstLifetime\n      EQ \t\t\tplan == PlanType.FirstLifetime\n      PUSH [tag] 141\t\t\tplan == PlanType.FirstLifetime...\n      JUMPI \t\t\tplan == PlanType.FirstLifetime...\n      DUP2 \t\t\tduration\n      TIMESTAMP \t\t\tblock.timestamp\n      PUSH [tag] 142\t\t\tblock.timestamp + duration\n      SWAP2 \t\t\tblock.timestamp + duration\n      SWAP1 \t\t\tblock.timestamp + duration\n      PUSH [tag] 143\t\t\tblock.timestamp + duration\n      JUMP \t\t\tblock.timestamp + duration\n    tag 142\t\t\tblock.timestamp + duration\n      JUMPDEST \t\t\tblock.timestamp + duration\n      PUSH [tag] 144\t\t\tplan == PlanType.FirstLifetime...\n      JUMP \t\t\tplan == PlanType.FirstLifetime...\n    tag 141\t\t\tplan == PlanType.FirstLifetime...\n      JUMPDEST \t\t\tplan == PlanType.FirstLifetime...\n      PUSH FFFFFFFFFFFFFFFFFFFFFFFFFFFFFFFFFFFFFFFFFFFFFFFFFFFFFFFFFFFFFFFF\t\t\ttype(uint256).max\n    tag 144\t\t\tplan == PlanType.FirstLifetime...\n      JUMPDEST \t\t\tplan == PlanType.FirstLifetime...\n      SWAP1 \t\t\tuint256 expiry = plan == PlanT...\n      POP \t\t\tuint256 expiry = plan == PlanT...\n      PUSH 40\t\t\tSubscription(plan, expiry)\n      MLOAD \t\t\tSubscription(plan, expiry)\n      DUP1 \t\t\tSubscription(plan, expiry)\n      PUSH 40\t\t\tSubscription(plan, expiry)\n      ADD \t\t\tSubscription(plan, expiry)\n      PUSH 40\t\t\tSubscription(plan, expiry)\n      MSTORE \t\t\tSubscription(plan, expiry)\n      DUP1 \t\t\tSubscription(plan, expiry)\n      DUP7 \t\t\tplan\n      PUSH 3\t\t\tSubscription(plan, expiry)\n      DUP2 \t\t\tSubscription(plan, expiry)\n      GT \t\t\tSubscription(plan, expiry)\n      ISZERO \t\t\tSubscription(plan, expiry)\n      PUSH [tag] 145\t\t\tSubscription(plan, expiry)\n      JUMPI \t\t\tSubscription(plan, expiry)\n      PUSH [tag] 146\t\t\tSubscription(plan, expiry)\n      PUSH [tag] 98\t\t\tSubscription(plan, expiry)\n      JUMP \t\t\tSubscription(plan, expiry)\n    tag 146\t\t\tSubscription(plan, expiry)\n      JUMPDEST \t\t\tSubscription(plan, expiry)\n    tag 145\t\t\tSubscription(plan, expiry)\n      JUMPDEST \t\t\tSubscription(plan, expiry)\n      DUP2 \t\t\tSubscription(plan, expiry)\n      MSTORE \t\t\tSubscription(plan, expiry)\n      PUSH 20\t\t\tSubscription(plan, expiry)\n      ADD \t\t\tSubscription(plan, expiry)\n      DUP3 \t\t\texpiry\n      DUP2 \t\t\tSubscription(plan, expiry)\n      MSTORE \t\t\tSubscription(plan, expiry)\n      POP \t\t\tSubscription(plan, expiry)\n      PUSH 2\t\t\tsubscriptions\n      PUSH 0\t\t\tsubscriptions[msg.sender]\n      CALLER \t\t\tmsg.sender\n      PUSH FFFFFFFFFFFFFFFFFFFFFFFFFFFFFFFFFFFFFFFF\t\t\tsubscriptions[msg.sender]\n      AND \t\t\tsubscriptions[msg.sender]\n      PUSH FFFFFFFFFFFFFFFFFFFFFFFFFFFFFFFFFFFFFFFF\t\t\tsubscriptions[msg.sender]\n      AND \t\t\tsubscriptions[msg.sender]\n      DUP2 \t\t\tsubscriptions[msg.sender]\n      MSTORE \t\t\tsubscriptions[msg.sender]\n      PUSH 20\t\t\tsubscriptions[msg.sender]\n      ADD \t\t\tsubscriptions[msg.sender]\n      SWAP1 \t\t\tsubscriptions[msg.sender]\n      DUP2 \t\t\tsubscriptions[msg.sender]\n      MSTORE \t\t\tsubscriptions[msg.sender]\n      PUSH 20\t\t\tsubscriptions[msg.sender]\n      ADD \t\t\tsubscriptions[msg.sender]\n      PUSH 0\t\t\tsubscriptions[msg.sender]\n      KECCAK256 \t\t\tsubscriptions[msg.sender]\n      PUSH 0\t\t\tsubscriptions[msg.sender] = Su...\n      DUP3 \t\t\tsubscriptions[msg.sender] = Su...\n      ADD \t\t\tsubscriptions[msg.sender] = Su...\n      MLOAD \t\t\tsubscriptions[msg.sender] = Su...\n      DUP2 \t\t\tsubscriptions[msg.sender] = Su...\n      PUSH 0\t\t\tsubscriptions[msg.sender] = Su...\n      ADD \t\t\tsubscriptions[msg.sender] = Su...\n      PUSH 0\t\t\tsubscriptions[msg.sender] = Su...\n      PUSH 100\t\t\tsubscriptions[msg.sender] = Su...\n      EXP \t\t\tsubscriptions[msg.sender] = Su...\n      DUP2 \t\t\tsubscriptions[msg.sender] = Su...\n      SLOAD \t\t\tsubscriptions[msg.sender] = Su...\n      DUP2 \t\t\tsubscriptions[msg.sender] = Su...\n      PUSH FF\t\t\tsubscriptions[msg.sender] = Su...\n      MUL \t\t\tsubscriptions[msg.sender] = Su...\n      NOT \t\t\tsubscriptions[msg.sender] = Su...\n      AND \t\t\tsubscriptions[msg.sender] = Su...\n      SWAP1 \t\t\tsubscriptions[msg.sender] = Su...\n      DUP4 \t\t\tsubscriptions[msg.sender] = Su...\n      PUSH 3\t\t\tsubscriptions[msg.sender] = Su...\n      DUP2 \t\t\tsubscriptions[msg.sender] = Su...\n      GT \t\t\tsubscriptions[msg.sender] = Su...\n      ISZERO \t\t\tsubscriptions[msg.sender] = Su...\n      PUSH [tag] 147\t\t\tsubscriptions[msg.sender] = Su...\n      JUMPI \t\t\tsubscriptions[msg.sender] = Su...\n      PUSH [tag] 148\t\t\tsubscriptions[msg.sender] = Su...\n      PUSH [tag] 98\t\t\tsubscriptions[msg.sender] = Su...\n      JUMP \t\t\tsubscriptions[msg.sender] = Su...\n    tag 148\t\t\tsubscriptions[msg.sender] = Su...\n      JUMPDEST \t\t\tsubscriptions[msg.sender] = Su...\n    tag 147\t\t\tsubscriptions[msg.sender] = Su...\n      JUMPDEST \t\t\tsubscriptions[msg.sender] = Su...\n      MUL \t\t\tsubscriptions[msg.sender] = Su...\n      OR \t\t\tsubscriptions[msg.sender] = Su...\n      SWAP1 \t\t\tsubscriptions[msg.sender] = Su...\n      SSTORE \t\t\tsubscriptions[msg.sender] = Su...\n      POP \t\t\tsubscriptions[msg.sender] = Su...\n      PUSH 20\t\t\tsubscriptions[msg.sender] = Su...\n      DUP3 \t\t\tsubscriptions[msg.sender] = Su...\n      ADD \t\t\tsubscriptions[msg.sender] = Su...\n      MLOAD \t\t\tsubscriptions[msg.sender] = Su...\n      DUP2 \t\t\tsubscriptions[msg.sender] = Su...\n      PUSH 1\t\t\tsubscriptions[msg.sender] = Su...\n      ADD \t\t\tsubscriptions[msg.sender] = Su...\n      SSTORE \t\t\tsubscriptions[msg.sender] = Su...\n      SWAP1 \t\t\tsubscriptions[msg.sender] = Su...\n      POP \t\t\tsubscriptions[msg.sender] = Su...\n      POP \t\t\tsubscriptions[msg.sender] = Su...\n      CALLER \t\t\tmsg.sender\n      PUSH FFFFFFFFFFFFFFFFFFFFFFFFFFFFFFFFFFFFFFFF\t\t\tSubscribed(msg.sender, plan, e...\n      AND \t\t\tSubscribed(msg.sender, plan, e...\n      PUSH 44F95A2D17727B5B87E4F23D70278B59A2B0B285289CC9021CAC8CDBA4797B7\t\t\tSubscribed(msg.sender, plan, e...\n      DUP7 \t\t\tplan\n      DUP4 \t\t\texpiry\n      PUSH 40\t\t\tSubscribed(msg.sender, plan, e...\n      MLOAD \t\t\tSubscribed(msg.sender, plan, e...\n      PUSH [tag] 149\t\t\tSubscribed(msg.sender, plan, e...\n      SWAP3 \t\t\tSubscribed(msg.sender, plan, e...\n      SWAP2 \t\t\tSubscribed(msg.sender, plan, e...\n      SWAP1 \t\t\tSubscribed(msg.sender, plan, e...\n      PUSH [tag] 50\t\t\tSubscribed(msg.sender, plan, e...\n      JUMP \t\t\tSubscribed(msg.sender, plan, e...\n    tag 149\t\t\tSubscribed(msg.sender, plan, e...\n      JUMPDEST \t\t\tSubscribed(msg.sender, plan, e...\n      PUSH 40\t\t\tSubscribed(msg.sender, plan, e...\n      MLOAD \t\t\tSubscribed(msg.sender, plan, e...\n      DUP1 \t\t\tSubscribed(msg.sender, plan, e...\n      SWAP2 \t\t\tSubscribed(msg.sender, plan, e...\n      SUB \t\t\tSubscribed(msg.sender, plan, e...\n      SWAP1 \t\t\tSubscribed(msg.sender, plan, e...\n      LOG2 \t\t\tSubscribed(msg.sender, plan, e...\n      POP \t\t\t{\\r\\n        require(plan != P...\n      POP \t\t\t{\\r\\n        require(plan != P...\n      POP \t\t\t{\\r\\n        require(plan != P...\n      POP \t\t\t{\\r\\n        require(plan != P...\n      PUSH [tag] 150\t\t\t expiry);\\r\\n    }\\r\\n\\r\\n\n      PUSH [tag] 87\t\t\t expiry);\\r\\n    }\\r\\n\n      JUMP \t\t\t expiry);\\r\\n    }\\r\\n\\r\\n\n    tag 150\t\t\t expiry);\\r\\n    }\\r\\n\\r\\n\n      JUMPDEST \t\t\t expiry);\\r\\n    }\\r\\n\\r\\n\n      POP \t\t\tfunction subscribe(PlanType pl...\n      JUMP \t\t\tfunction subscribe(PlanType pl...\n    tag 33\t\t\tder, plan, expiry);\\r\\n    }\\r...\n      JUMPDEST \t\t\tder, plan, expiry);\\r\\n    }\\r...\n      PUSH [tag] 152\t\t\t\\n        uint\n      PUSH [tag] 63\t\t\t\\n        ui\n      JUMP \t\t\t\\n        uint\n    tag 152\t\t\t\\n        uint\n      JUMPDEST \t\t\t\\n        uint\n      PUSH [tag] 154\t\t\tnewBusinessMonthly, uint256 ne\n      PUSH 0\t\t\t \n      PUSH [tag] 155\t\t\tnewBusinessMonthly\n      JUMP \t\t\tnewBusinessMonthly, uint256 ne\n    tag 154\t\t\tnewBusinessMonthly, uint256 ne\n      JUMPDEST \t\t\tnewBusinessMonthly, uint256 ne\n      JUMP \t\t\tder, plan, expiry);\\r\\n    }\\r...\n    tag 35\t\t\t        price = priceBusinessM...\n      JUMPDEST \t\t\t        price = priceBusinessM...\n      PUSH 0\t\t\t     du\n      DUP1 \t\t\t      \n      PUSH 0\t\t\t      \n      SWAP1 \t\t\t      \n      SLOAD \t\t\t      \n      SWAP1 \t\t\t      \n      PUSH 100\t\t\t      \n      EXP \t\t\t      \n      SWAP1 \t\t\t      \n      DIV \t\t\t      \n      PUSH FFFFFFFFFFFFFFFFFFFFFFFFFFFFFFFFFFFFFFFF\t\t\t      \n      AND \t\t\t      \n      SWAP1 \t\t\tdays;\\r\\n      \n      POP \t\t\tdays;\\r\\n      \n      SWAP1 \t\t\t        price = priceBusinessM...\n      JUMP \t\t\t        price = priceBusinessM...\n    tag 39\t\t\tuint256 public priceFirstSixMo...\n      JUMPDEST \t\t\tuint256 public priceFirstSixMo...\n      PUSH 4\t\t\tuint256 public priceFirstSixMo...\n      SLOAD \t\t\tuint256 public priceFirstSixMo...\n      DUP2 \t\t\tuint256 public priceFirstSixMo...\n      JUMP \t\t\tuint256 public priceFirstSixMo...\n    tag 42\t\t\tIERC20 public immutable busdTo...\n      JUMPDEST \t\t\tIERC20 public immutable busdTo...\n      PUSHIMMUTABLE 332\t\t\tIERC20 public immutable busdTo...\n      DUP2 \t\t\tIERC20 public immutable busdTo...\n      JUMP \t\t\tIERC20 public immutable busdTo...\n    tag 48\t\t\tfunction getUserSubscription(a...\n      JUMPDEST \t\t\tfunction getUserSubscription(a...\n      PUSH 0\t\t\tPlanType plan\n      DUP1 \t\t\tuint256 expiry\n      PUSH 0\t\t\tSubscription memory sub\n      PUSH 2\t\t\tsubscriptions\n      PUSH 0\t\t\tsubscriptions[user]\n      DUP6 \t\t\tuser\n      PUSH FFFFFFFFFFFFFFFFFFFFFFFFFFFFFFFFFFFFFFFF\t\t\tsubscriptions[user]\n      AND \t\t\tsubscriptions[user]\n      PUSH FFFFFFFFFFFFFFFFFFFFFFFFFFFFFFFFFFFFFFFF\t\t\tsubscriptions[user]\n      AND \t\t\tsubscriptions[user]\n      DUP2 \t\t\tsubscriptions[user]\n      MSTORE \t\t\tsubscriptions[user]\n      PUSH 20\t\t\tsubscriptions[user]\n      ADD \t\t\tsubscriptions[user]\n      SWAP1 \t\t\tsubscriptions[user]\n      DUP2 \t\t\tsubscriptions[user]\n      MSTORE \t\t\tsubscriptions[user]\n      PUSH 20\t\t\tsubscriptions[user]\n      ADD \t\t\tsubscriptions[user]\n      PUSH 0\t\t\tsubscriptions[user]\n      KECCAK256 \t\t\tsubscriptions[user]\n      PUSH 40\t\t\tSubscription memory sub = subs...\n      MLOAD \t\t\tSubscription memory sub = subs...\n      DUP1 \t\t\tSubscription memory sub = subs...\n      PUSH 40\t\t\tSubscription memory sub = subs...\n      ADD \t\t\tSubscription memory sub = subs...\n      PUSH 40\t\t\tSubscription memory sub = subs...\n      MSTORE \t\t\tSubscription memory sub = subs...\n      SWAP1 \t\t\tSubscription memory sub = subs...\n      DUP2 \t\t\tSubscription memory sub = subs...\n      PUSH 0\t\t\tSubscription memory sub = subs...\n      DUP3 \t\t\tSubscription memory sub = subs...\n      ADD \t\t\tSubscription memory sub = subs...\n      PUSH 0\t\t\tSubscription memory sub = subs...\n      SWAP1 \t\t\tSubscription memory sub = subs...\n      SLOAD \t\t\tSubscription memory sub = subs...\n      SWAP1 \t\t\tSubscription memory sub = subs...\n      PUSH 100\t\t\tSubscription memory sub = subs...\n      EXP \t\t\tSubscription memory sub = subs...\n      SWAP1 \t\t\tSubscription memory sub = subs...\n      DIV \t\t\tSubscription memory sub = subs...\n      PUSH FF\t\t\tSubscription memory sub = subs...\n      AND \t\t\tSubscription memory sub = subs...\n      PUSH 3\t\t\tSubscription memory sub = subs...\n      DUP2 \t\t\tSubscription memory sub = subs...\n      GT \t\t\tSubscription memory sub = subs...\n      ISZERO \t\t\tSubscription memory sub = subs...\n      PUSH [tag] 158\t\t\tSubscription memory sub = subs...\n      JUMPI \t\t\tSubscription memory sub = subs...\n      PUSH [tag] 159\t\t\tSubscription memory sub = subs...\n      PUSH [tag] 98\t\t\tSubscription memory sub = subs...\n      JUMP \t\t\tSubscription memory sub = subs...\n    tag 159\t\t\tSubscription memory sub = subs...\n      JUMPDEST \t\t\tSubscription memory sub = subs...\n    tag 158\t\t\tSubscription memory sub = subs...\n      JUMPDEST \t\t\tSubscription memory sub = subs...\n      PUSH 3\t\t\tSubscription memory sub = subs...\n      DUP2 \t\t\tSubscription memory sub = subs...\n      GT \t\t\tSubscription memory sub = subs...\n      ISZERO \t\t\tSubscription memory sub = subs...\n      PUSH [tag] 160\t\t\tSubscription memory sub = subs...\n      JUMPI \t\t\tSubscription memory sub = subs...\n      PUSH [tag] 161\t\t\tSubscription memory sub = subs...\n      PUSH [tag] 98\t\t\tSubscription memory sub = subs...\n      JUMP \t\t\tSubscription memory sub = subs...\n    tag 161\t\t\tSubscription memory sub = subs...\n      JUMPDEST \t\t\tSubscription memory sub = subs...\n    tag 160\t\t\tSubscription memory sub = subs...\n      JUMPDEST \t\t\tSubscription memory sub = subs...\n      DUP2 \t\t\tSubscription memory sub = subs...\n      MSTORE \t\t\tSubscription memory sub = subs...\n      PUSH 20\t\t\tSubscription memory sub = subs...\n      ADD \t\t\tSubscription memory sub = subs...\n      PUSH 1\t\t\tSubscription memory sub = subs...\n      DUP3 \t\t\tSubscription memory sub = subs...\n      ADD \t\t\tSubscription memory sub = subs...\n      SLOAD \t\t\tSubscription memory sub = subs...\n      DUP2 \t\t\tSubscription memory sub = subs...\n      MSTORE \t\t\tSubscription memory sub = subs...\n      POP \t\t\tSubscription memory sub = subs...\n      POP \t\t\tSubscription memory sub = subs...\n      SWAP1 \t\t\tSubscription memory sub = subs...\n      POP \t\t\tSubscription memory sub = subs...\n      DUP1 \t\t\tsub\n      PUSH 0\t\t\tsub.plan\n      ADD \t\t\tsub.plan\n      MLOAD \t\t\tsub.plan\n      DUP2 \t\t\tsub\n      PUSH 20\t\t\tsub.expiry\n      ADD \t\t\tsub.expiry\n      MLOAD \t\t\tsub.expiry\n      SWAP3 \t\t\treturn (sub.plan, sub.expiry)\n      POP \t\t\treturn (sub.plan, sub.expiry)\n      SWAP3 \t\t\treturn (sub.plan, sub.expiry)\n      POP \t\t\treturn (sub.plan, sub.expiry)\n      POP \t\t\treturn (sub.plan, sub.expiry)\n      SWAP2 \t\t\tfunction getUserSubscription(a...\n      POP \t\t\tfunction getUserSubscription(a...\n      SWAP2 \t\t\tfunction getUserSubscription(a...\n      JUMP \t\t\tfunction getUserSubscription(a...\n    tag 52\t\t\tuint256 public priceFirstLifet...\n      JUMPDEST \t\t\tuint256 public priceFirstLifet...\n      PUSH 5\t\t\tuint256 public priceFirstLifet...\n      SLOAD \t\t\tuint256 public priceFirstLifet...\n      DUP2 \t\t\tuint256 public priceFirstLifet...\n      JUMP \t\t\tuint256 public priceFirstLifet...\n    tag 56\t\t\tmapping(address => Subscriptio...\n      JUMPDEST \t\t\tmapping(address => Subscriptio...\n      PUSH 2\t\t\tmapping(address => Subscriptio...\n      PUSH 20\t\t\tmapping(address => Subscriptio...\n      MSTORE \t\t\tmapping(address => Subscriptio...\n      DUP1 \t\t\tmapping(address => Subscriptio...\n      PUSH 0\t\t\tmapping(address => Subscriptio...\n      MSTORE \t\t\tmapping(address => Subscriptio...\n      PUSH 40\t\t\tmapping(address => Subscriptio...\n      PUSH 0\t\t\tmapping(address => Subscriptio...\n      KECCAK256 \t\t\tmapping(address => Subscriptio...\n      PUSH 0\t\t\tmapping(address => Subscriptio...\n      SWAP2 \t\t\tmapping(address => Subscriptio...\n      POP \t\t\tmapping(address => Subscriptio...\n      SWAP1 \t\t\tmapping(address => Subscriptio...\n      POP \t\t\tmapping(address => Subscriptio...\n      DUP1 \t\t\tmapping(address => Subscriptio...\n      PUSH 0\t\t\tmapping(address => Subscriptio...\n      ADD \t\t\tmapping(address => Subscriptio...\n      PUSH 0\t\t\tmapping(address => Subscriptio...\n      SWAP1 \t\t\tmapping(address => Subscriptio...\n      SLOAD \t\t\tmapping(address => Subscriptio...\n      SWAP1 \t\t\tmapping(address => Subscriptio...\n      PUSH 100\t\t\tmapping(address => Subscriptio...\n      EXP \t\t\tmapping(address => Subscriptio...\n      SWAP1 \t\t\tmapping(address => Subscriptio...\n      DIV \t\t\tmapping(address => Subscriptio...\n      PUSH FF\t\t\tmapping(address => Subscriptio...\n      AND \t\t\tmapping(address => Subscriptio...\n      SWAP1 \t\t\tmapping(address => Subscriptio...\n      DUP1 \t\t\tmapping(address => Subscriptio...\n      PUSH 1\t\t\tmapping(address => Subscriptio...\n      ADD \t\t\tmapping(address => Subscriptio...\n      SLOAD \t\t\tmapping(address => Subscriptio...\n      SWAP1 \t\t\tmapping(address => Subscriptio...\n      POP \t\t\tmapping(address => Subscriptio...\n      DUP3 \t\t\tmapping(address => Subscriptio...\n      JUMP \t\t\tmapping(address => Subscriptio...\n    tag 60\t\t\tixMonths;\\r\\n        priceFirs...\n      JUMPDEST \t\t\tixMonths;\\r\\n        priceFirs...\n      PUSH [tag] 163\t\t\t\\n        uint\n      PUSH [tag] 63\t\t\t\\n        ui\n      JUMP \t\t\t\\n        uint\n    tag 163\t\t\t\\n        uint\n      JUMPDEST \t\t\t\\n        uint\n      PUSH 0\t\t\tl\n      PUSH FFFFFFFFFFFFFFFFFFFFFFFFFFFFFFFFFFFFFFFF\t\t\tted(newBusinessMonthly\n      AND \t\t\tted(newBusinessMonthly\n      DUP2 \t\t\tted(newB\n      PUSH FFFFFFFFFFFFFFFFFFFFFFFFFFFFFFFFFFFFFFFF\t\t\tted(newBusinessMonthly\n      AND \t\t\tted(newBusinessMonthly\n      SUB \t\t\tted(newBusinessMonthly\n      PUSH [tag] 165\t\t\tUpdated(newBusinessMonthly, ne...\n      JUMPI \t\t\tUpdated(newBusinessMonthly, ne...\n      PUSH 0\t\t\t \n      PUSH 40\t\t\twFirstLifetime);\\r\\n    }\\r\\n\\...\n      MLOAD \t\t\twFirstLifetime);\\r\\n    }\\r\\n\\...\n      PUSH 1E4FBDF700000000000000000000000000000000000000000000000000000000\t\t\twFirstLifetime);\\r\\n    }\\r\\n\\...\n      DUP2 \t\t\twFirstLifetime);\\r\\n    }\\r\\n\\...\n      MSTORE \t\t\twFirstLifetime);\\r\\n    }\\r\\n\\...\n      PUSH 4\t\t\twFirstLifetime);\\r\\n    }\\r\\n\\...\n      ADD \t\t\twFirstLifetime);\\r\\n    }\\r\\n\\...\n      PUSH [tag] 166\t\t\twFirstLifetime);\\r\\n    }\\r\\n\\...\n      SWAP2 \t\t\twFirstLifetime);\\r\\n    }\\r\\n\\...\n      SWAP1 \t\t\twFirstLifetime);\\r\\n    }\\r\\n\\...\n      PUSH [tag] 37\t\t\twFirstLifetime);\\r\\n    }\\r\\n\\...\n      JUMP \t\t\twFirstLifetime);\\r\\n    }\\r\\n\\...\n    tag 166\t\t\twFirstLifetime);\\r\\n    }\\r\\n\\...\n      JUMPDEST \t\t\twFirstLifetime);\\r\\n    }\\r\\n\\...\n      PUSH 40\t\t\twFirstLifetime);\\r\\n    }\\r\\n\\...\n      MLOAD \t\t\twFirstLifetime);\\r\\n    }\\r\\n\\...\n      DUP1 \t\t\twFirstLifetime);\\r\\n    }\\r\\n\\...\n      SWAP2 \t\t\twFirstLifetime);\\r\\n    }\\r\\n\\...\n      SUB \t\t\twFirstLifetime);\\r\\n    }\\r\\n\\...\n      SWAP1 \t\t\twFirstLifetime);\\r\\n    }\\r\\n\\...\n      REVERT \t\t\twFirstLifetime);\\r\\n    }\\r\\n\\...\n    tag 165\t\t\tUpdated(newBusinessMonthly, ne...\n      JUMPDEST \t\t\tUpdated(newBusinessMonthly, ne...\n      PUSH [tag] 167\t\t\tds(uint256 amount) external \n      DUP2 \t\t\texternal\n      PUSH [tag] 155\t\t\tds(uint256 amount)\n      JUMP \t\t\tds(uint256 amount) external \n    tag 167\t\t\tds(uint256 amount) external \n      JUMPDEST \t\t\tds(uint256 amount) external \n      POP \t\t\tixMonths;\\r\\n        priceFirs...\n      JUMP \t\t\tixMonths;\\r\\n        priceFirs...\n    tag 63\t\t\tixMonths;\\r\\n            durat...\n      JUMPDEST \t\t\tixMonths;\\r\\n            durat...\n      PUSH [tag] 169\t\t\t= PlanType.F\n      PUSH [tag] 170\t\t\t= PlanType\n      JUMP \t\t\t= PlanType.F\n    tag 169\t\t\t= PlanType.F\n      JUMPDEST \t\t\t= PlanType.F\n      PUSH FFFFFFFFFFFFFFFFFFFFFFFFFFFFFFFFFFFFFFFF\t\t\t if (plan == PlanType.F\n      AND \t\t\t if (plan == PlanType.F\n      PUSH [tag] 171\t\t\t if (pl\n      PUSH [tag] 35\t\t\t if (\n      JUMP \t\t\t if (pl\n    tag 171\t\t\t if (pl\n      JUMPDEST \t\t\t if (pl\n      PUSH FFFFFFFFFFFFFFFFFFFFFFFFFFFFFFFFFFFFFFFF\t\t\t if (plan == PlanType.F\n      AND \t\t\t if (plan == PlanType.F\n      EQ \t\t\t if (plan == PlanType.F\n      PUSH [tag] 172\t\t\telse if (plan == PlanType.Firs...\n      JUMPI \t\t\telse if (plan == PlanType.Firs...\n      PUSH [tag] 173\t\t\tetime;\\r\\n    \n      PUSH [tag] 170\t\t\tetime;\\r\\n  \n      JUMP \t\t\tetime;\\r\\n    \n    tag 173\t\t\tetime;\\r\\n    \n      JUMPDEST \t\t\tetime;\\r\\n    \n      PUSH 40\t\t\t      price = priceFirstLifeti...\n      MLOAD \t\t\t      price = priceFirstLifeti...\n      PUSH 118CDAA700000000000000000000000000000000000000000000000000000000\t\t\t      price = priceFirstLifeti...\n      DUP2 \t\t\t      price = priceFirstLifeti...\n      MSTORE \t\t\t      price = priceFirstLifeti...\n      PUSH 4\t\t\t      price = priceFirstLifeti...\n      ADD \t\t\t      price = priceFirstLifeti...\n      PUSH [tag] 174\t\t\t      price = priceFirstLifeti...\n      SWAP2 \t\t\t      price = priceFirstLifeti...\n      SWAP1 \t\t\t      price = priceFirstLifeti...\n      PUSH [tag] 37\t\t\t      price = priceFirstLifeti...\n      JUMP \t\t\t      price = priceFirstLifeti...\n    tag 174\t\t\t      price = priceFirstLifeti...\n      JUMPDEST \t\t\t      price = priceFirstLifeti...\n      PUSH 40\t\t\t      price = priceFirstLifeti...\n      MLOAD \t\t\t      price = priceFirstLifeti...\n      DUP1 \t\t\t      price = priceFirstLifeti...\n      SWAP2 \t\t\t      price = priceFirstLifeti...\n      SUB \t\t\t      price = priceFirstLifeti...\n      SWAP1 \t\t\t      price = priceFirstLifeti...\n      REVERT \t\t\t      price = priceFirstLifeti...\n    tag 172\t\t\telse if (plan == PlanType.Firs...\n      JUMPDEST \t\t\telse if (plan == PlanType.Firs...\n      JUMP \t\t\tixMonths;\\r\\n            durat...\n    tag 66\t\t\tupdatePrices(uint256 newBusine...\n      JUMPDEST \t\t\tupdatePrices(uint256 newBusine...\n      PUSH 2\t\t\ts\n      PUSH 1\t\t\tinessMo\n      SLOAD \t\t\tinessMo\n      SUB \t\t\tinessMonthly = newB\n      PUSH [tag] 176\t\t\tpriceBusinessMonthly = newBusi...\n      JUMPI \t\t\tpriceBusinessMonthly = newBusi...\n      PUSH 40\t\t\tpriceBusinessMonthly = newBusi...\n      MLOAD \t\t\tpriceBusinessMonthly = newBusi...\n      PUSH 8C379A000000000000000000000000000000000000000000000000000000000\t\t\tpriceBusinessMonthly = newBusi...\n      DUP2 \t\t\tpriceBusinessMonthly = newBusi...\n      MSTORE \t\t\tpriceBusinessMonthly = newBusi...\n      PUSH 4\t\t\tpriceBusinessMonthly = newBusi...\n      ADD \t\t\tpriceBusinessMonthly = newBusi...\n      PUSH [tag] 177\t\t\tpriceBusinessMonthly = newBusi...\n      SWAP1 \t\t\tpriceBusinessMonthly = newBusi...\n      PUSH [tag] 178\t\t\tpriceBusinessMonthly = newBusi...\n      JUMP \t\t\tpriceBusinessMonthly = newBusi...\n    tag 177\t\t\tpriceBusinessMonthly = newBusi...\n      JUMPDEST \t\t\tpriceBusinessMonthly = newBusi...\n      PUSH 40\t\t\tpriceBusinessMonthly = newBusi...\n      MLOAD \t\t\tpriceBusinessMonthly = newBusi...\n      DUP1 \t\t\tpriceBusinessMonthly = newBusi...\n      SWAP2 \t\t\tpriceBusinessMonthly = newBusi...\n      SUB \t\t\tpriceBusinessMonthly = newBusi...\n      SWAP1 \t\t\tpriceBusinessMonthly = newBusi...\n      REVERT \t\t\tpriceBusinessMonthly = newBusi...\n    tag 176\t\t\tpriceBusinessMonthly = newBusi...\n      JUMPDEST \t\t\tpriceBusinessMonthly = newBusi...\n      PUSH 2\t\t\ts\n      PUSH 1\t\t\te;\\r\\n\\r\\n \n      DUP2 \t\t\te;\\r\\n\\r\\n        emit\n      SWAP1 \t\t\te;\\r\\n\\r\\n        emit\n      SSTORE \t\t\te;\\r\\n\\r\\n        emit\n      POP \t\t\te;\\r\\n\\r\\n        emit\n      JUMP \t\t\tupdatePrices(uint256 newBusine...\n    tag 87\t\t\td(newBusinessMonthly, newFirst...\n      JUMPDEST \t\t\td(newBusinessMonthly, newFirst...\n      PUSH 1\t\t\t \n      DUP1 \t\t\teOf(add\n      DUP2 \t\t\teOf(address(this)) >= \n      SWAP1 \t\t\teOf(address(this)) >= \n      SSTORE \t\t\teOf(address(this)) >= \n      POP \t\t\teOf(address(this)) >= \n      JUMP \t\t\td(newBusinessMonthly, newFirst...\n    tag 155\t\t\t.sender, amount), \"Withdrawal ...\n      JUMPDEST \t\t\t.sender, amount), \"Withdrawal ...\n      PUSH 0\t\t\tg.sender, amount\n      DUP1 \t\t\t\\n    }\n      PUSH 0\t\t\t\\n    }\n      SWAP1 \t\t\t\\n    }\n      SLOAD \t\t\t\\n    }\n      SWAP1 \t\t\t\\n    }\n      PUSH 100\t\t\t\\n    }\n      EXP \t\t\t\\n    }\n      SWAP1 \t\t\t\\n    }\n      DIV \t\t\t\\n    }\n      PUSH FFFFFFFFFFFFFFFFFFFFFFFFFFFFFFFFFFFFFFFF\t\t\t\\n    }\n      AND \t\t\t\\n    }\n      SWAP1 \t\t\tg.sender, amount);\\r\\n    }\n      POP \t\t\tg.sender, amount);\\r\\n    }\n      DUP2 \t\t\ttUserSub\n      PUSH 0\t\t\tnction\n      DUP1 \t\t\tnction\n      PUSH 100\t\t\tnction getUserSub\n      EXP \t\t\tnction getUserSub\n      DUP2 \t\t\tnction getUserSub\n      SLOAD \t\t\tnction getUserSub\n      DUP2 \t\t\tnction getUserSub\n      PUSH FFFFFFFFFFFFFFFFFFFFFFFFFFFFFFFFFFFFFFFF\t\t\tnction getUserSub\n      MUL \t\t\tnction getUserSub\n      NOT \t\t\tnction getUserSub\n      AND \t\t\tnction getUserSub\n      SWAP1 \t\t\tnction getUserSub\n      DUP4 \t\t\tnction getUserSub\n      PUSH FFFFFFFFFFFFFFFFFFFFFFFFFFFFFFFFFFFFFFFF\t\t\tnction getUserSub\n      AND \t\t\tnction getUserSub\n      MUL \t\t\tnction getUserSub\n      OR \t\t\tnction getUserSub\n      SWAP1 \t\t\tnction getUserSub\n      SSTORE \t\t\tnction getUserSub\n      POP \t\t\tnction getUserSub\n      DUP2 \t\t\t(PlanTyp\n      PUSH FFFFFFFFFFFFFFFFFFFFFFFFFFFFFFFFFFFFFFFF\t\t\tss user) external view returns...\n      AND \t\t\tss user) external view returns...\n      DUP2 \t\t\tw return\n      PUSH FFFFFFFFFFFFFFFFFFFFFFFFFFFFFFFFFFFFFFFF\t\t\tss user) external view returns...\n      AND \t\t\tss user) external view returns...\n      PUSH 8BE0079C531659141344CD1FD0A4F28419497F9722A3DAAFE3B4186F6B6457E0\t\t\tss user) external view returns...\n      PUSH 40\t\t\tss user) external view returns...\n      MLOAD \t\t\tss user) external view returns...\n      PUSH 40\t\t\tss user) external view returns...\n      MLOAD \t\t\tss user) external view returns...\n      DUP1 \t\t\tss user) external view returns...\n      SWAP2 \t\t\tss user) external view returns...\n      SUB \t\t\tss user) external view returns...\n      SWAP1 \t\t\tss user) external view returns...\n      LOG3 \t\t\tss user) external view returns...\n      POP \t\t\tthdrawn(msg.sender, amount);\\r...\n      POP \t\t\t.sender, amount), \"Withdrawal ...\n      JUMP \t\t\t.sender, amount), \"Withdrawal ...\n    tag 170\t\t\triceFirstSixMonths = 49 * 10**...\n      JUMPDEST \t\t\triceFirstSixMonths = 49 * 10**...\n      PUSH 0\t\t\tt256 pu\n      CALLER \t\t\ttime = 99 \n      SWAP1 \t\t\trstLifetime = 99 \n      POP \t\t\trstLifetime = 99 \n      SWAP1 \t\t\triceFirstSixMonths = 49 * 10**...\n      JUMP \t\t\triceFirstSixMonths = 49 * 10**...\n    tag 183\t\t\tacts/access/Ownable.sol\";\\r\\ni...\n      JUMPDEST \t\t\tacts/access/Ownable.sol\";\\r\\ni...\n      PUSH 0\t\t\tl\n      DUP1 \t\t\tp\n      REVERT \t\t\t@openzeppeli\n    tag 185\t\t\tToken;\\r\\n\\r\\n    enum PlanTyp...\n      JUMPDEST \t\t\tToken;\\r\\n\\r\\n    enum PlanTyp...\n      PUSH 0\t\t\tusiness\n      DUP2 \t\t\ts, Fi\n      SWAP1 \t\t\trstSixMonths, Fi\n      POP \t\t\trstSixMonths, Fi\n      SWAP2 \t\t\tToken;\\r\\n\\r\\n    enum PlanTyp...\n      SWAP1 \t\t\tToken;\\r\\n\\r\\n    enum PlanTyp...\n      POP \t\t\tToken;\\r\\n\\r\\n    enum PlanTyp...\n      JUMP \t\t\tToken;\\r\\n\\r\\n    enum PlanTyp...\n    tag 186\t\t\t}\\r\\n\\r\\n    struct Subscripti...\n      JUMPDEST \t\t\t}\\r\\n\\r\\n    struct Subscripti...\n      PUSH [tag] 229\t\t\txpiry;\\r\\n    }\\r\\n\\r\\n    map\n      DUP2 \t\t\t   ma\n      PUSH [tag] 185\t\t\txpiry;\\r\\n    }\\r\\n\\r\\n    map\n      JUMP \t\t\txpiry;\\r\\n    }\\r\\n\\r\\n    map\n    tag 229\t\t\txpiry;\\r\\n    }\\r\\n\\r\\n    map\n      JUMPDEST \t\t\txpiry;\\r\\n    }\\r\\n\\r\\n    map\n      DUP2 \t\t\tnt256\n      EQ \t\t\t uint256 expiry;\\r\\n    }\\r\\n\\...\n      PUSH [tag] 230\t\t\t;\\r\\n        uint256 expiry;\\r...\n      JUMPI \t\t\t;\\r\\n        uint256 expiry;\\r...\n      PUSH 0\t\t\t \n      DUP1 \t\t\t \n      REVERT \t\t\taddress => S\n    tag 230\t\t\t;\\r\\n        uint256 expiry;\\r...\n      JUMPDEST \t\t\t;\\r\\n        uint256 expiry;\\r...\n      POP \t\t\t}\\r\\n\\r\\n    struct Subscripti...\n      JUMP \t\t\t}\\r\\n\\r\\n    struct Subscripti...\n    tag 187\t\t\tublic subscriptions;\\r\\n\\r\\n  ...\n      JUMPDEST \t\t\tublic subscriptions;\\r\\n\\r\\n  ...\n      PUSH 0\t\t\tceBus\n      DUP2 \t\t\t BUSD\\r\n      CALLDATALOAD \t\t\t10**18; // 10 BUSD\\r\\n\n      SWAP1 \t\t\ty = 10 * 10**18; // 10 BUSD\\r\\...\n      POP \t\t\ty = 10 * 10**18; // 10 BUSD\\r\\...\n      PUSH [tag] 232\t\t\t56 public priceFirstSixMonths ...\n      DUP2 \t\t\ths = \n      PUSH [tag] 186\t\t\t56 public priceFirstSixMonths ...\n      JUMP \t\t\t56 public priceFirstSixMonths ...\n    tag 232\t\t\t56 public priceFirstSixMonths ...\n      JUMPDEST \t\t\t56 public priceFirstSixMonths ...\n      SWAP3 \t\t\tublic subscriptions;\\r\\n\\r\\n  ...\n      SWAP2 \t\t\tublic subscriptions;\\r\\n\\r\\n  ...\n      POP \t\t\tublic subscriptions;\\r\\n\\r\\n  ...\n      POP \t\t\tublic subscriptions;\\r\\n\\r\\n  ...\n      JUMP \t\t\tublic subscriptions;\\r\\n\\r\\n  ...\n    tag 18\t\t\t// 49 BUSD\\r\\n    uint256 publ...\n      JUMPDEST \t\t\t// 49 BUSD\\r\\n    uint256 publ...\n      PUSH 0\t\t\t**18; \n      PUSH 20\t\t\tin\n      DUP3 \t\t\tbed(addre\n      DUP5 \t\t\tt Subsc\n      SUB \t\t\tevent Subscribed(addres\n      SLT \t\t\t    event Subscribed(address i...\n      ISZERO \t\t\t\\n\\r\\n    event Subscribed(add...\n      PUSH [tag] 234\t\t\t\\n\\r\\n    event Subscribed(add...\n      JUMPI \t\t\t\\n\\r\\n    event Subscribed(add...\n      PUSH [tag] 235\t\t\td user, PlanType plan, uint256...\n      PUSH [tag] 183\t\t\td user, PlanType plan, uint256...\n      JUMP \t\t\td user, PlanType plan, uint256...\n    tag 235\t\t\td user, PlanType plan, uint256...\n      JUMPDEST \t\t\td user, PlanType plan, uint256...\n    tag 234\t\t\t\\n\\r\\n    event Subscribed(add...\n      JUMPDEST \t\t\t\\n\\r\\n    event Subscribed(add...\n      PUSH 0\t\t\tu\n      PUSH [tag] 236\t\t\t;\\r\\n    event FundsWithdrawn(...\n      DUP5 \t\t\twner, u\n      DUP3 \t\t\tindexe\n      DUP6 \t\t\twn(addres\n      ADD \t\t\thdrawn(address indexed\n      PUSH [tag] 187\t\t\t;\\r\\n    event FundsWithdrawn(...\n      JUMP \t\t\t;\\r\\n    event FundsWithdrawn(...\n    tag 236\t\t\t;\\r\\n    event FundsWithdrawn(...\n      JUMPDEST \t\t\t;\\r\\n    event FundsWithdrawn(...\n      SWAP2 \t\t\ttLifetime);\\r\\n    event Funds...\n      POP \t\t\ttLifetime);\\r\\n    event Funds...\n      POP \t\t\t, uint256 newFirstSixMonths, u...\n      SWAP3 \t\t\t// 49 BUSD\\r\\n    uint256 publ...\n      SWAP2 \t\t\t// 49 BUSD\\r\\n    uint256 publ...\n      POP \t\t\t// 49 BUSD\\r\\n    uint256 publ...\n      POP \t\t\t// 49 BUSD\\r\\n    uint256 publ...\n      JUMP \t\t\t// 49 BUSD\\r\\n    uint256 publ...\n    tag 188\t\t\tonstructor(address _busdToken,...\n      JUMPDEST \t\t\tonstructor(address _busdToken,...\n      PUSH [tag] 238\t\t\t require(_busdToken != a\n      DUP2 \t\t\tn != \n      PUSH [tag] 185\t\t\t require(_busdToken != a\n      JUMP \t\t\t require(_busdToken != a\n    tag 238\t\t\t require(_busdToken != a\n      JUMPDEST \t\t\t require(_busdToken != a\n      DUP3 \t\t\t   \n      MSTORE \t\t\t) {\\r\\n        require(_busdTo...\n      POP \t\t\tonstructor(address _busdToken,...\n      POP \t\t\tonstructor(address _busdToken,...\n      JUMP \t\t\tonstructor(address _busdToken,...\n    tag 23\t\t\tnvalid BUSD address\");\\r\\n    ...\n      JUMPDEST \t\t\tnvalid BUSD address\");\\r\\n    ...\n      PUSH 0\t\t\tibe(\n      PUSH 20\t\t\tnt\n      DUP3 \t\t\t nonReent\n      ADD \t\t\trnal nonReentrant \n      SWAP1 \t\t\tan) external nonReentrant \n      POP \t\t\tan) external nonReentrant \n      PUSH [tag] 240\t\t\t require(plan != PlanType.None...\n      PUSH 0\t\t\tt\n      DUP4 \t\t\t   Subscr\n      ADD \t\t\t       Subscripti\n      DUP5 \t\t\tn\");\\r\\n\n      PUSH [tag] 188\t\t\t require(plan != PlanType.None...\n      JUMP \t\t\t require(plan != PlanType.None...\n    tag 240\t\t\t require(plan != PlanType.None...\n      JUMPDEST \t\t\t require(plan != PlanType.None...\n      SWAP3 \t\t\tnvalid BUSD address\");\\r\\n    ...\n      SWAP2 \t\t\tnvalid BUSD address\");\\r\\n    ...\n      POP \t\t\tnvalid BUSD address\");\\r\\n    ...\n      POP \t\t\tnvalid BUSD address\");\\r\\n    ...\n      JUMP \t\t\tnvalid BUSD address\");\\r\\n    ...\n    tag 26\t\t\trSub = subscriptions[msg.sende...\n      JUMPDEST \t\t\trSub = subscriptions[msg.sende...\n      PUSH 0\t\t\tone ||\n      DUP1 \t\t\tlock.t\n      PUSH 0\t\t\testamp\n      PUSH 60\t\t\tip\n      DUP5 \t\t\tctive sub\n      DUP7 \t\t\txisting\n      SUB \t\t\t, \"Existing active subs\n      SLT \t\t\tpiry, \"Existing active subscri...\n      ISZERO \t\t\t.expiry, \"Existing active subs...\n      PUSH [tag] 242\t\t\t.expiry, \"Existing active subs...\n      JUMPI \t\t\t.expiry, \"Existing active subs...\n      PUSH [tag] 243\t\t\t\");\\r\\n\\r\\n        uint256 pri...\n      PUSH [tag] 183\t\t\t\");\\r\\n\\r\\n        uint256 pri...\n      JUMP \t\t\t\");\\r\\n\\r\\n        uint256 pri...\n    tag 243\t\t\t\");\\r\\n\\r\\n        uint256 pri...\n      JUMPDEST \t\t\t\");\\r\\n\\r\\n        uint256 pri...\n    tag 242\t\t\t.expiry, \"Existing active subs...\n      JUMPDEST \t\t\t.expiry, \"Existing active subs...\n      PUSH 0\t\t\t \n      PUSH [tag] 244\t\t\tthly;\\r\\n            duration ...\n      DUP7 \t\t\t   } el\n      DUP3 \t\t\ts;\\r\\n  \n      DUP8 \t\t\ton = 30 d\n      ADD \t\t\tration = 30 days;\\r\\n   \n      PUSH [tag] 187\t\t\tthly;\\r\\n            duration ...\n      JUMP \t\t\tthly;\\r\\n            duration ...\n    tag 244\t\t\tthly;\\r\\n            duration ...\n      JUMPDEST \t\t\tthly;\\r\\n            duration ...\n      SWAP4 \t\t\tusinessMonthly;\\r\\n           ...\n      POP \t\t\tusinessMonthly;\\r\\n           ...\n      POP \t\t\tsinessMonthly) {\\r\\n          ...\n      PUSH 20\t\t\t  \n      PUSH [tag] 245\t\t\tMonths;\\r\\n            duratio...\n      DUP7 \t\t\t      }\n      DUP3 \t\t\tdays;\\r\n      DUP8 \t\t\ttion = 18\n      ADD \t\t\tduration = 180 days;\\r\\n\n      PUSH [tag] 187\t\t\tMonths;\\r\\n            duratio...\n      JUMP \t\t\tMonths;\\r\\n            duratio...\n    tag 245\t\t\tMonths;\\r\\n            duratio...\n      JUMPDEST \t\t\tMonths;\\r\\n            duratio...\n      SWAP3 \t\t\tceFirstSixMonths;\\r\\n         ...\n      POP \t\t\tceFirstSixMonths;\\r\\n         ...\n      POP \t\t\tpe.FirstSixMonths) {\\r\\n      ...\n      PUSH 40\t\t\t  \n      PUSH [tag] 246\t\t\tifetime;\\r\\n            durati...\n      DUP7 \t\t\t).max;\\r\n      DUP3 \t\t\te(uint\n      DUP8 \t\t\tation = t\n      ADD \t\t\t duration = type(uint2\n      PUSH [tag] 187\t\t\tifetime;\\r\\n            durati...\n      JUMP \t\t\tifetime;\\r\\n            durati...\n    tag 246\t\t\tifetime;\\r\\n            durati...\n      JUMPDEST \t\t\tifetime;\\r\\n            durati...\n      SWAP2 \t\t\triceFirstLifetime;\\r\\n        ...\n      POP \t\t\triceFirstLifetime;\\r\\n        ...\n      POP \t\t\tnType.FirstLifetime) {\\r\\n    ...\n      SWAP3 \t\t\trSub = subscriptions[msg.sende...\n      POP \t\t\trSub = subscriptions[msg.sende...\n      SWAP3 \t\t\trSub = subscriptions[msg.sende...\n      POP \t\t\trSub = subscriptions[msg.sende...\n      SWAP3 \t\t\trSub = subscriptions[msg.sende...\n      JUMP \t\t\trSub = subscriptions[msg.sende...\n    tag 189\t\t\tquire(busdToken.transferFrom(m...\n      JUMPDEST \t\t\tquire(busdToken.transferFrom(m...\n      PUSH 4\t\t\t\\n\n      DUP2 \t\t\td\");\\r\n      LT \t\t\tiled\");\\r\\n\\r\\n \n      PUSH [tag] 248\t\t\tPayment failed\");\\r\\n\\r\\n     ...\n      JUMPI \t\t\tPayment failed\");\\r\\n\\r\\n     ...\n      PUSH 0\t\t\t \n      DUP1 \t\t\t2\n      REVERT \t\t\t   uint256 e\n    tag 248\t\t\tPayment failed\");\\r\\n\\r\\n     ...\n      JUMPDEST \t\t\tPayment failed\");\\r\\n\\r\\n     ...\n      POP \t\t\tquire(busdToken.transferFrom(m...\n      JUMP \t\t\tquire(busdToken.transferFrom(m...\n    tag 190\t\t\t= PlanType.FirstLifetime ? typ...\n      JUMPDEST \t\t\t= PlanType.FirstLifetime ? typ...\n      PUSH 0\t\t\ttamp \n      DUP2 \t\t\ts[msg.\n      CALLDATALOAD \t\t\t subscriptions[msg.s\n      SWAP1 \t\t\t\\r\\n        subscriptions[msg....\n      POP \t\t\t\\r\\n        subscriptions[msg....\n      PUSH [tag] 250\t\t\tSubscription(plan, expiry);\\r\\...\n      DUP2 \t\t\temit \n      PUSH [tag] 189\t\t\tSubscription(plan, expiry);\\r\\...\n      JUMP \t\t\tSubscription(plan, expiry);\\r\\...\n    tag 250\t\t\tSubscription(plan, expiry);\\r\\...\n      JUMPDEST \t\t\tSubscription(plan, expiry);\\r\\...\n      SWAP3 \t\t\t= PlanType.FirstLifetime ? typ...\n      SWAP2 \t\t\t= PlanType.FirstLifetime ? typ...\n      POP \t\t\t= PlanType.FirstLifetime ? typ...\n      POP \t\t\t= PlanType.FirstLifetime ? typ...\n      JUMP \t\t\t= PlanType.FirstLifetime ? typ...\n    tag 30\t\t\tg.sender, plan, expiry);\\r\\n  ...\n      JUMPDEST \t\t\tg.sender, plan, expiry);\\r\\n  ...\n      PUSH 0\t\t\twBusin\n      PUSH 20\t\t\t25\n      DUP3 \t\t\tMonths, u\n      DUP5 \t\t\twFirstS\n      SUB \t\t\t6 newFirstSixMonths, ui\n      SLT \t\t\tnt256 newFirstSixMonths, uint2...\n      ISZERO \t\t\t uint256 newFirstSixMonths, ui...\n      PUSH [tag] 252\t\t\t uint256 newFirstSixMonths, ui...\n      JUMPI \t\t\t uint256 newFirstSixMonths, ui...\n      PUSH [tag] 253\t\t\twFirstLifetime) external onlyO...\n      PUSH [tag] 183\t\t\twFirstLifetime) external onlyO...\n      JUMP \t\t\twFirstLifetime) external onlyO...\n    tag 253\t\t\twFirstLifetime) external onlyO...\n      JUMPDEST \t\t\twFirstLifetime) external onlyO...\n    tag 252\t\t\t uint256 newFirstSixMonths, ui...\n      JUMPDEST \t\t\t uint256 newFirstSixMonths, ui...\n      PUSH 0\t\t\tn\n      PUSH [tag] 254\t\t\t   priceFirstLifetime = newFir...\n      DUP5 \t\t\t Prices\n      DUP3 \t\t\t     e\n      DUP6 \t\t\time;\\r\\n\\r\\n \n      ADD \t\t\tifetime;\\r\\n\\r\\n        em\n      PUSH [tag] 190\t\t\t   priceFirstLifetime = newFir...\n      JUMP \t\t\t   priceFirstLifetime = newFir...\n    tag 254\t\t\t   priceFirstLifetime = newFir...\n      JUMPDEST \t\t\t   priceFirstLifetime = newFir...\n      SWAP2 \t\t\ths;\\r\\n        priceFirstLifet...\n      POP \t\t\ths;\\r\\n        priceFirstLifet...\n      POP \t\t\t       priceFirstSixMonths = n...\n      SWAP3 \t\t\tg.sender, plan, expiry);\\r\\n  ...\n      SWAP2 \t\t\tg.sender, plan, expiry);\\r\\n  ...\n      POP \t\t\tg.sender, plan, expiry);\\r\\n  ...\n      POP \t\t\tg.sender, plan, expiry);\\r\\n  ...\n      JUMP \t\t\tg.sender, plan, expiry);\\r\\n  ...\n    tag 191\t\t\tly, newFirstSixMonths, newFirs...\n      JUMPDEST \t\t\tly, newFirstSixMonths, newFirs...\n      PUSH 0\t\t\tme);\\r\\n \n      PUSH FFFFFFFFFFFFFFFFFFFFFFFFFFFFFFFFFFFFFFFF\t\t\ts(uint256 amount) external onl...\n      DUP3 \t\t\trawFu\n      AND \t\t\tithdrawFunds(uint256 amount) e...\n      SWAP1 \t\t\t function withdrawFunds(uint25...\n      POP \t\t\t function withdrawFunds(uint25...\n      SWAP2 \t\t\tly, newFirstSixMonths, newFirs...\n      SWAP1 \t\t\tly, newFirstSixMonths, newFirs...\n      POP \t\t\tly, newFirstSixMonths, newFirs...\n      JUMP \t\t\tly, newFirstSixMonths, newFirs...\n    tag 192\t\t\t      require(busdToken.balanc...\n      JUMPDEST \t\t\t      require(busdToken.balanc...\n      PUSH 0\t\t\tress(th\n      PUSH [tag] 257\t\t\tficient contract balance\n      DUP3 \t\t\talanc\n      PUSH [tag] 191\t\t\tficient contract balance\n      JUMP \t\t\tficient contract balance\n    tag 257\t\t\tficient contract balance\n      JUMPDEST \t\t\tficient contract balance\n      SWAP1 \t\t\tunt, \"Insufficient contract ba...\n      POP \t\t\tunt, \"Insufficient contract ba...\n      SWAP2 \t\t\t      require(busdToken.balanc...\n      SWAP1 \t\t\t      require(busdToken.balanc...\n      POP \t\t\t      require(busdToken.balanc...\n      JUMP \t\t\t      require(busdToken.balanc...\n    tag 193\t\t\t require(busdToken.transfer(ms...\n      JUMPDEST \t\t\t require(busdToken.transfer(ms...\n      PUSH [tag] 259\t\t\tFundsWithdrawn(msg.sende\n      DUP2 \t\t\t.send\n      PUSH [tag] 192\t\t\tFundsWithdrawn(msg.sende\n      JUMP \t\t\tFundsWithdrawn(msg.sende\n    tag 259\t\t\tFundsWithdrawn(msg.sende\n      JUMPDEST \t\t\tFundsWithdrawn(msg.sende\n      DUP3 \t\t\temi\n      MSTORE \t\t\t       emit FundsWithdrawn(msg...\n      POP \t\t\t require(busdToken.transfer(ms...\n      POP \t\t\t require(busdToken.transfer(ms...\n      JUMP \t\t\t require(busdToken.transfer(ms...\n    tag 37\t\t\t    }\\r\\n\\r\\n    function getU...\n      JUMPDEST \t\t\t    }\\r\\n\\r\\n    function getU...\n      PUSH 0\t\t\t uin\n      PUSH 20\t\t\ton\n      DUP3 \t\t\t Subscrip\n      ADD \t\t\t     Subscription \n      SWAP1 \t\t\t) {\\r\\n        Subscription \n      POP \t\t\t) {\\r\\n        Subscription \n      PUSH [tag] 261\t\t\t = subscriptions[user];\\r\\n   ...\n      PUSH 0\t\t\t \n      DUP4 \t\t\tpiry);\\r\\n \n      ADD \t\t\tb.expiry);\\r\\n    }\n      DUP5 \t\t\t.plan,\n      PUSH [tag] 193\t\t\t = subscriptions[user];\\r\\n   ...\n      JUMP \t\t\t = subscriptions[user];\\r\\n   ...\n    tag 261\t\t\t = subscriptions[user];\\r\\n   ...\n      JUMPDEST \t\t\t = subscriptions[user];\\r\\n   ...\n      SWAP3 \t\t\t    }\\r\\n\\r\\n    function getU...\n      SWAP2 \t\t\t    }\\r\\n\\r\\n    function getU...\n      POP \t\t\t    }\\r\\n\\r\\n    function getU...\n      POP \t\t\t    }\\r\\n\\r\\n    function getU...\n      JUMP \t\t\t    }\\r\\n\\r\\n    function getU...\n    tag 194\t\t\t\n      JUMPDEST \t\t\t\n      PUSH 0\t\t\t\n      DUP2 \t\t\t\n      SWAP1 \t\t\t\n      POP \t\t\t\n      SWAP2 \t\t\t\n      SWAP1 \t\t\t\n      POP \t\t\t\n      JUMP \t\t\t\n    tag 195\t\t\t\n      JUMPDEST \t\t\t\n      PUSH 0\t\t\t\n      PUSH [tag] 264\t\t\t\n      PUSH [tag] 265\t\t\t\n      PUSH [tag] 266\t\t\t\n      DUP5 \t\t\t\n      PUSH [tag] 191\t\t\t\n      JUMP \t\t\t\n    tag 266\t\t\t\n      JUMPDEST \t\t\t\n      PUSH [tag] 194\t\t\t\n      JUMP \t\t\t\n    tag 265\t\t\t\n      JUMPDEST \t\t\t\n      PUSH [tag] 191\t\t\t\n      JUMP \t\t\t\n    tag 264\t\t\t\n      JUMPDEST \t\t\t\n      SWAP1 \t\t\t\n      POP \t\t\t\n      SWAP2 \t\t\t\n      SWAP1 \t\t\t\n      POP \t\t\t\n      JUMP \t\t\t\n    tag 196\t\t\t\n      JUMPDEST \t\t\t\n      PUSH 0\t\t\t\n      PUSH [tag] 268\t\t\t\n      DUP3 \t\t\t\n      PUSH [tag] 195\t\t\t\n      JUMP \t\t\t\n    tag 268\t\t\t\n      JUMPDEST \t\t\t\n      SWAP1 \t\t\t\n      POP \t\t\t\n      SWAP2 \t\t\t\n      SWAP1 \t\t\t\n      POP \t\t\t\n      JUMP \t\t\t\n    tag 197\t\t\t\n      JUMPDEST \t\t\t\n      PUSH 0\t\t\t\n      PUSH [tag] 270\t\t\t\n      DUP3 \t\t\t\n      PUSH [tag] 196\t\t\t\n      JUMP \t\t\t\n    tag 270\t\t\t\n      JUMPDEST \t\t\t\n      SWAP1 \t\t\t\n      POP \t\t\t\n      SWAP2 \t\t\t\n      SWAP1 \t\t\t\n      POP \t\t\t\n      JUMP \t\t\t\n    tag 198\t\t\t\n      JUMPDEST \t\t\t\n      PUSH [tag] 272\t\t\t\n      DUP2 \t\t\t\n      PUSH [tag] 197\t\t\t\n      JUMP \t\t\t\n    tag 272\t\t\t\n      JUMPDEST \t\t\t\n      DUP3 \t\t\t\n      MSTORE \t\t\t\n      POP \t\t\t\n      POP \t\t\t\n      JUMP \t\t\t\n    tag 44\t\t\t\n      JUMPDEST \t\t\t\n      PUSH 0\t\t\t\n      PUSH 20\t\t\t\n      DUP3 \t\t\t\n      ADD \t\t\t\n      SWAP1 \t\t\t\n      POP \t\t\t\n      PUSH [tag] 274\t\t\t\n      PUSH 0\t\t\t\n      DUP4 \t\t\t\n      ADD \t\t\t\n      DUP5 \t\t\t\n      PUSH [tag] 198\t\t\t\n      JUMP \t\t\t\n    tag 274\t\t\t\n      JUMPDEST \t\t\t\n      SWAP3 \t\t\t\n      SWAP2 \t\t\t\n      POP \t\t\t\n      POP \t\t\t\n      JUMP \t\t\t\n    tag 199\t\t\t\n      JUMPDEST \t\t\t\n      PUSH [tag] 276\t\t\t\n      DUP2 \t\t\t\n      PUSH [tag] 192\t\t\t\n      JUMP \t\t\t\n    tag 276\t\t\t\n      JUMPDEST \t\t\t\n      DUP2 \t\t\t\n      EQ \t\t\t\n      PUSH [tag] 277\t\t\t\n      JUMPI \t\t\t\n      PUSH 0\t\t\t\n      DUP1 \t\t\t\n      REVERT \t\t\t\n    tag 277\t\t\t\n      JUMPDEST \t\t\t\n      POP \t\t\t\n      JUMP \t\t\t\n    tag 200\t\t\t\n      JUMPDEST \t\t\t\n      PUSH 0\t\t\t\n      DUP2 \t\t\t\n      CALLDATALOAD \t\t\t\n      SWAP1 \t\t\t\n      POP \t\t\t\n      PUSH [tag] 279\t\t\t\n      DUP2 \t\t\t\n      PUSH [tag] 199\t\t\t\n      JUMP \t\t\t\n    tag 279\t\t\t\n      JUMPDEST \t\t\t\n      SWAP3 \t\t\t\n      SWAP2 \t\t\t\n      POP \t\t\t\n      POP \t\t\t\n      JUMP \t\t\t\n    tag 47\t\t\t\n      JUMPDEST \t\t\t\n      PUSH 0\t\t\t\n      PUSH 20\t\t\t\n      DUP3 \t\t\t\n      DUP5 \t\t\t\n      SUB \t\t\t\n      SLT \t\t\t\n      ISZERO \t\t\t\n      PUSH [tag] 281\t\t\t\n      JUMPI \t\t\t\n      PUSH [tag] 282\t\t\t\n      PUSH [tag] 183\t\t\t\n      JUMP \t\t\t\n    tag 282\t\t\t\n      JUMPDEST \t\t\t\n    tag 281\t\t\t\n      JUMPDEST \t\t\t\n      PUSH 0\t\t\t\n      PUSH [tag] 283\t\t\t\n      DUP5 \t\t\t\n      DUP3 \t\t\t\n      DUP6 \t\t\t\n      ADD \t\t\t\n      PUSH [tag] 200\t\t\t\n      JUMP \t\t\t\n    tag 283\t\t\t\n      JUMPDEST \t\t\t\n      SWAP2 \t\t\t\n      POP \t\t\t\n      POP \t\t\t\n      SWAP3 \t\t\t\n      SWAP2 \t\t\t\n      POP \t\t\t\n      POP \t\t\t\n      JUMP \t\t\t\n    tag 98\t\t\t\n      JUMPDEST \t\t\t\n      PUSH 4E487B7100000000000000000000000000000000000000000000000000000000\t\t\t\n      PUSH 0\t\t\t\n      MSTORE \t\t\t\n      PUSH 21\t\t\t\n      PUSH 4\t\t\t\n      MSTORE \t\t\t\n      PUSH 24\t\t\t\n      PUSH 0\t\t\t\n      REVERT \t\t\t\n    tag 201\t\t\t\n      JUMPDEST \t\t\t\n      PUSH 4\t\t\t\n      DUP2 \t\t\t\n      LT \t\t\t\n      PUSH [tag] 286\t\t\t\n      JUMPI \t\t\t\n      PUSH [tag] 287\t\t\t\n      PUSH [tag] 98\t\t\t\n      JUMP \t\t\t\n    tag 287\t\t\t\n      JUMPDEST \t\t\t\n    tag 286\t\t\t\n      JUMPDEST \t\t\t\n      POP \t\t\t\n      JUMP \t\t\t\n    tag 202\t\t\t\n      JUMPDEST \t\t\t\n      PUSH 0\t\t\t\n      DUP2 \t\t\t\n      SWAP1 \t\t\t\n      POP \t\t\t\n      PUSH [tag] 289\t\t\t\n      DUP3 \t\t\t\n      PUSH [tag] 201\t\t\t\n      JUMP \t\t\t\n    tag 289\t\t\t\n      JUMPDEST \t\t\t\n      SWAP2 \t\t\t\n      SWAP1 \t\t\t\n      POP \t\t\t\n      JUMP \t\t\t\n    tag 203\t\t\t\n      JUMPDEST \t\t\t\n      PUSH 0\t\t\t\n      PUSH [tag] 291\t\t\t\n      DUP3 \t\t\t\n      PUSH [tag] 202\t\t\t\n      JUMP \t\t\t\n    tag 291\t\t\t\n      JUMPDEST \t\t\t\n      SWAP1 \t\t\t\n      POP \t\t\t\n      SWAP2 \t\t\t\n      SWAP1 \t\t\t\n      POP \t\t\t\n      JUMP \t\t\t\n    tag 204\t\t\t\n      JUMPDEST \t\t\t\n      PUSH [tag] 293\t\t\t\n      DUP2 \t\t\t\n      PUSH [tag] 203\t\t\t\n      JUMP \t\t\t\n    tag 293\t\t\t\n      JUMPDEST \t\t\t\n      DUP3 \t\t\t\n      MSTORE \t\t\t\n      POP \t\t\t\n      POP \t\t\t\n      JUMP \t\t\t\n    tag 50\t\t\t\n      JUMPDEST \t\t\t\n      PUSH 0\t\t\t\n      PUSH 40\t\t\t\n      DUP3 \t\t\t\n      ADD \t\t\t\n      SWAP1 \t\t\t\n      POP \t\t\t\n      PUSH [tag] 295\t\t\t\n      PUSH 0\t\t\t\n      DUP4 \t\t\t\n      ADD \t\t\t\n      DUP6 \t\t\t\n      PUSH [tag] 204\t\t\t\n      JUMP \t\t\t\n    tag 295\t\t\t\n      JUMPDEST \t\t\t\n      PUSH [tag] 296\t\t\t\n      PUSH 20\t\t\t\n      DUP4 \t\t\t\n      ADD \t\t\t\n      DUP5 \t\t\t\n      PUSH [tag] 188\t\t\t\n      JUMP \t\t\t\n    tag 296\t\t\t\n      JUMPDEST \t\t\t\n      SWAP4 \t\t\t\n      SWAP3 \t\t\t\n      POP \t\t\t\n      POP \t\t\t\n      POP \t\t\t\n      JUMP \t\t\t\n    tag 205\t\t\t\n      JUMPDEST \t\t\t\n      PUSH 0\t\t\t\n      DUP2 \t\t\t\n      MLOAD \t\t\t\n      SWAP1 \t\t\t\n      POP \t\t\t\n      PUSH [tag] 298\t\t\t\n      DUP2 \t\t\t\n      PUSH [tag] 186\t\t\t\n      JUMP \t\t\t\n    tag 298\t\t\t\n      JUMPDEST \t\t\t\n      SWAP3 \t\t\t\n      SWAP2 \t\t\t\n      POP \t\t\t\n      POP \t\t\t\n      JUMP \t\t\t\n    tag 72\t\t\t\n      JUMPDEST \t\t\t\n      PUSH 0\t\t\t\n      PUSH 20\t\t\t\n      DUP3 \t\t\t\n      DUP5 \t\t\t\n      SUB \t\t\t\n      SLT \t\t\t\n      ISZERO \t\t\t\n      PUSH [tag] 300\t\t\t\n      JUMPI \t\t\t\n      PUSH [tag] 301\t\t\t\n      PUSH [tag] 183\t\t\t\n      JUMP \t\t\t\n    tag 301\t\t\t\n      JUMPDEST \t\t\t\n    tag 300\t\t\t\n      JUMPDEST \t\t\t\n      PUSH 0\t\t\t\n      PUSH [tag] 302\t\t\t\n      DUP5 \t\t\t\n      DUP3 \t\t\t\n      DUP6 \t\t\t\n      ADD \t\t\t\n      PUSH [tag] 205\t\t\t\n      JUMP \t\t\t\n    tag 302\t\t\t\n      JUMPDEST \t\t\t\n      SWAP2 \t\t\t\n      POP \t\t\t\n      POP \t\t\t\n      SWAP3 \t\t\t\n      SWAP2 \t\t\t\n      POP \t\t\t\n      POP \t\t\t\n      JUMP \t\t\t\n    tag 206\t\t\t\n      JUMPDEST \t\t\t\n      PUSH 0\t\t\t\n      DUP3 \t\t\t\n      DUP3 \t\t\t\n      MSTORE \t\t\t\n      PUSH 20\t\t\t\n      DUP3 \t\t\t\n      ADD \t\t\t\n      SWAP1 \t\t\t\n      POP \t\t\t\n      SWAP3 \t\t\t\n      SWAP2 \t\t\t\n      POP \t\t\t\n      POP \t\t\t\n      JUMP \t\t\t\n    tag 207\t\t\t\n      JUMPDEST \t\t\t\n      PUSH 496E73756666696369656E7420636F6E74726163742062616C616E6365000000\t\t\t\n      PUSH 0\t\t\t\n      DUP3 \t\t\t\n      ADD \t\t\t\n      MSTORE \t\t\t\n      POP \t\t\t\n      JUMP \t\t\t\n    tag 208\t\t\t\n      JUMPDEST \t\t\t\n      PUSH 0\t\t\t\n      PUSH [tag] 306\t\t\t\n      PUSH 1D\t\t\t\n      DUP4 \t\t\t\n      PUSH [tag] 206\t\t\t\n      JUMP \t\t\t\n    tag 306\t\t\t\n      JUMPDEST \t\t\t\n      SWAP2 \t\t\t\n      POP \t\t\t\n      PUSH [tag] 307\t\t\t\n      DUP3 \t\t\t\n      PUSH [tag] 207\t\t\t\n      JUMP \t\t\t\n    tag 307\t\t\t\n      JUMPDEST \t\t\t\n      PUSH 20\t\t\t\n      DUP3 \t\t\t\n      ADD \t\t\t\n      SWAP1 \t\t\t\n      POP \t\t\t\n      SWAP2 \t\t\t\n      SWAP1 \t\t\t\n      POP \t\t\t\n      JUMP \t\t\t\n    tag 75\t\t\t\n      JUMPDEST \t\t\t\n      PUSH 0\t\t\t\n      PUSH 20\t\t\t\n      DUP3 \t\t\t\n      ADD \t\t\t\n      SWAP1 \t\t\t\n      POP \t\t\t\n      DUP2 \t\t\t\n      DUP2 \t\t\t\n      SUB \t\t\t\n      PUSH 0\t\t\t\n      DUP4 \t\t\t\n      ADD \t\t\t\n      MSTORE \t\t\t\n      PUSH [tag] 309\t\t\t\n      DUP2 \t\t\t\n      PUSH [tag] 208\t\t\t\n      JUMP \t\t\t\n    tag 309\t\t\t\n      JUMPDEST \t\t\t\n      SWAP1 \t\t\t\n      POP \t\t\t\n      SWAP2 \t\t\t\n      SWAP1 \t\t\t\n      POP \t\t\t\n      JUMP \t\t\t\n    tag 77\t\t\t\n      JUMPDEST \t\t\t\n      PUSH 0\t\t\t\n      PUSH 40\t\t\t\n      DUP3 \t\t\t\n      ADD \t\t\t\n      SWAP1 \t\t\t\n      POP \t\t\t\n      PUSH [tag] 311\t\t\t\n      PUSH 0\t\t\t\n      DUP4 \t\t\t\n      ADD \t\t\t\n      DUP6 \t\t\t\n      PUSH [tag] 193\t\t\t\n      JUMP \t\t\t\n    tag 311\t\t\t\n      JUMPDEST \t\t\t\n      PUSH [tag] 312\t\t\t\n      PUSH 20\t\t\t\n      DUP4 \t\t\t\n      ADD \t\t\t\n      DUP5 \t\t\t\n      PUSH [tag] 188\t\t\t\n      JUMP \t\t\t\n    tag 312\t\t\t\n      JUMPDEST \t\t\t\n      SWAP4 \t\t\t\n      SWAP3 \t\t\t\n      POP \t\t\t\n      POP \t\t\t\n      POP \t\t\t\n      JUMP \t\t\t\n    tag 209\t\t\t\n      JUMPDEST \t\t\t\n      PUSH 0\t\t\t\n      DUP2 \t\t\t\n      ISZERO \t\t\t\n      ISZERO \t\t\t\n      SWAP1 \t\t\t\n      POP \t\t\t\n      SWAP2 \t\t\t\n      SWAP1 \t\t\t\n      POP \t\t\t\n      JUMP \t\t\t\n    tag 210\t\t\t\n      JUMPDEST \t\t\t\n      PUSH [tag] 315\t\t\t\n      DUP2 \t\t\t\n      PUSH [tag] 209\t\t\t\n      JUMP \t\t\t\n    tag 315\t\t\t\n      JUMPDEST \t\t\t\n      DUP2 \t\t\t\n      EQ \t\t\t\n      PUSH [tag] 316\t\t\t\n      JUMPI \t\t\t\n      PUSH 0\t\t\t\n      DUP1 \t\t\t\n      REVERT \t\t\t\n    tag 316\t\t\t\n      JUMPDEST \t\t\t\n      POP \t\t\t\n      JUMP \t\t\t\n    tag 211\t\t\t\n      JUMPDEST \t\t\t\n      PUSH 0\t\t\t\n      DUP2 \t\t\t\n      MLOAD \t\t\t\n      SWAP1 \t\t\t\n      POP \t\t\t\n      PUSH [tag] 318\t\t\t\n      DUP2 \t\t\t\n      PUSH [tag] 210\t\t\t\n      JUMP \t\t\t\n    tag 318\t\t\t\n      JUMPDEST \t\t\t\n      SWAP3 \t\t\t\n      SWAP2 \t\t\t\n      POP \t\t\t\n      POP \t\t\t\n      JUMP \t\t\t\n    tag 81\t\t\t\n      JUMPDEST \t\t\t\n      PUSH 0\t\t\t\n      PUSH 20\t\t\t\n      DUP3 \t\t\t\n      DUP5 \t\t\t\n      SUB \t\t\t\n      SLT \t\t\t\n      ISZERO \t\t\t\n      PUSH [tag] 320\t\t\t\n      JUMPI \t\t\t\n      PUSH [tag] 321\t\t\t\n      PUSH [tag] 183\t\t\t\n      JUMP \t\t\t\n    tag 321\t\t\t\n      JUMPDEST \t\t\t\n    tag 320\t\t\t\n      JUMPDEST \t\t\t\n      PUSH 0\t\t\t\n      PUSH [tag] 322\t\t\t\n      DUP5 \t\t\t\n      DUP3 \t\t\t\n      DUP6 \t\t\t\n      ADD \t\t\t\n      PUSH [tag] 211\t\t\t\n      JUMP \t\t\t\n    tag 322\t\t\t\n      JUMPDEST \t\t\t\n      SWAP2 \t\t\t\n      POP \t\t\t\n      POP \t\t\t\n      SWAP3 \t\t\t\n      SWAP2 \t\t\t\n      POP \t\t\t\n      POP \t\t\t\n      JUMP \t\t\t\n    tag 212\t\t\t\n      JUMPDEST \t\t\t\n      PUSH 5769746864726177616C206661696C6564000000000000000000000000000000\t\t\t\n      PUSH 0\t\t\t\n      DUP3 \t\t\t\n      ADD \t\t\t\n      MSTORE \t\t\t\n      POP \t\t\t\n      JUMP \t\t\t\n    tag 213\t\t\t\n      JUMPDEST \t\t\t\n      PUSH 0\t\t\t\n      PUSH [tag] 325\t\t\t\n      PUSH 11\t\t\t\n      DUP4 \t\t\t\n      PUSH [tag] 206\t\t\t\n      JUMP \t\t\t\n    tag 325\t\t\t\n      JUMPDEST \t\t\t\n      SWAP2 \t\t\t\n      POP \t\t\t\n      PUSH [tag] 326\t\t\t\n      DUP3 \t\t\t\n      PUSH [tag] 212\t\t\t\n      JUMP \t\t\t\n    tag 326\t\t\t\n      JUMPDEST \t\t\t\n      PUSH 20\t\t\t\n      DUP3 \t\t\t\n      ADD \t\t\t\n      SWAP1 \t\t\t\n      POP \t\t\t\n      SWAP2 \t\t\t\n      SWAP1 \t\t\t\n      POP \t\t\t\n      JUMP \t\t\t\n    tag 84\t\t\t\n      JUMPDEST \t\t\t\n      PUSH 0\t\t\t\n      PUSH 20\t\t\t\n      DUP3 \t\t\t\n      ADD \t\t\t\n      SWAP1 \t\t\t\n      POP \t\t\t\n      DUP2 \t\t\t\n      DUP2 \t\t\t\n      SUB \t\t\t\n      PUSH 0\t\t\t\n      DUP4 \t\t\t\n      ADD \t\t\t\n      MSTORE \t\t\t\n      PUSH [tag] 328\t\t\t\n      DUP2 \t\t\t\n      PUSH [tag] 213\t\t\t\n      JUMP \t\t\t\n    tag 328\t\t\t\n      JUMPDEST \t\t\t\n      SWAP1 \t\t\t\n      POP \t\t\t\n      SWAP2 \t\t\t\n      SWAP1 \t\t\t\n      POP \t\t\t\n      JUMP \t\t\t\n    tag 92\t\t\t\n      JUMPDEST \t\t\t\n      PUSH 0\t\t\t\n      PUSH 60\t\t\t\n      DUP3 \t\t\t\n      ADD \t\t\t\n      SWAP1 \t\t\t\n      POP \t\t\t\n      PUSH [tag] 330\t\t\t\n      PUSH 0\t\t\t\n      DUP4 \t\t\t\n      ADD \t\t\t\n      DUP7 \t\t\t\n      PUSH [tag] 188\t\t\t\n      JUMP \t\t\t\n    tag 330\t\t\t\n      JUMPDEST \t\t\t\n      PUSH [tag] 331\t\t\t\n      PUSH 20\t\t\t\n      DUP4 \t\t\t\n      ADD \t\t\t\n      DUP6 \t\t\t\n      PUSH [tag] 188\t\t\t\n      JUMP \t\t\t\n    tag 331\t\t\t\n      JUMPDEST \t\t\t\n      PUSH [tag] 332\t\t\t\n      PUSH 40\t\t\t\n      DUP4 \t\t\t\n      ADD \t\t\t\n      DUP5 \t\t\t\n      PUSH [tag] 188\t\t\t\n      JUMP \t\t\t\n    tag 332\t\t\t\n      JUMPDEST \t\t\t\n      SWAP5 \t\t\t\n      SWAP4 \t\t\t\n      POP \t\t\t\n      POP \t\t\t\n      POP \t\t\t\n      POP \t\t\t\n      JUMP \t\t\t\n    tag 214\t\t\t\n      JUMPDEST \t\t\t\n      PUSH 496E76616C696420706C616E0000000000000000000000000000000000000000\t\t\t\n      PUSH 0\t\t\t\n      DUP3 \t\t\t\n      ADD \t\t\t\n      MSTORE \t\t\t\n      POP \t\t\t\n      JUMP \t\t\t\n    tag 215\t\t\t\n      JUMPDEST \t\t\t\n      PUSH 0\t\t\t\n      PUSH [tag] 335\t\t\t\n      PUSH C\t\t\t\n      DUP4 \t\t\t\n      PUSH [tag] 206\t\t\t\n      JUMP \t\t\t\n    tag 335\t\t\t\n      JUMPDEST \t\t\t\n      SWAP2 \t\t\t\n      POP \t\t\t\n      PUSH [tag] 336\t\t\t\n      DUP3 \t\t\t\n      PUSH [tag] 214\t\t\t\n      JUMP \t\t\t\n    tag 336\t\t\t\n      JUMPDEST \t\t\t\n      PUSH 20\t\t\t\n      DUP3 \t\t\t\n      ADD \t\t\t\n      SWAP1 \t\t\t\n      POP \t\t\t\n      SWAP2 \t\t\t\n      SWAP1 \t\t\t\n      POP \t\t\t\n      JUMP \t\t\t\n    tag 103\t\t\t\n      JUMPDEST \t\t\t\n      PUSH 0\t\t\t\n      PUSH 20\t\t\t\n      DUP3 \t\t\t\n      ADD \t\t\t\n      SWAP1 \t\t\t\n      POP \t\t\t\n      DUP2 \t\t\t\n      DUP2 \t\t\t\n      SUB \t\t\t\n      PUSH 0\t\t\t\n      DUP4 \t\t\t\n      ADD \t\t\t\n      MSTORE \t\t\t\n      PUSH [tag] 338\t\t\t\n      DUP2 \t\t\t\n      PUSH [tag] 215\t\t\t\n      JUMP \t\t\t\n    tag 338\t\t\t\n      JUMPDEST \t\t\t\n      SWAP1 \t\t\t\n      POP \t\t\t\n      SWAP2 \t\t\t\n      SWAP1 \t\t\t\n      POP \t\t\t\n      JUMP \t\t\t\n    tag 216\t\t\t\n      JUMPDEST \t\t\t\n      PUSH 4578697374696E672061637469766520737562736372697074696F6E00000000\t\t\t\n      PUSH 0\t\t\t\n      DUP3 \t\t\t\n      ADD \t\t\t\n      MSTORE \t\t\t\n      POP \t\t\t\n      JUMP \t\t\t\n    tag 217\t\t\t\n      JUMPDEST \t\t\t\n      PUSH 0\t\t\t\n      PUSH [tag] 341\t\t\t\n      PUSH 1C\t\t\t\n      DUP4 \t\t\t\n      PUSH [tag] 206\t\t\t\n      JUMP \t\t\t\n    tag 341\t\t\t\n      JUMPDEST \t\t\t\n      SWAP2 \t\t\t\n      POP \t\t\t\n      PUSH [tag] 342\t\t\t\n      DUP3 \t\t\t\n      PUSH [tag] 216\t\t\t\n      JUMP \t\t\t\n    tag 342\t\t\t\n      JUMPDEST \t\t\t\n      PUSH 20\t\t\t\n      DUP3 \t\t\t\n      ADD \t\t\t\n      SWAP1 \t\t\t\n      POP \t\t\t\n      SWAP2 \t\t\t\n      SWAP1 \t\t\t\n      POP \t\t\t\n      JUMP \t\t\t\n    tag 111\t\t\t\n      JUMPDEST \t\t\t\n      PUSH 0\t\t\t\n      PUSH 20\t\t\t\n      DUP3 \t\t\t\n      ADD \t\t\t\n      SWAP1 \t\t\t\n      POP \t\t\t\n      DUP2 \t\t\t\n      DUP2 \t\t\t\n      SUB \t\t\t\n      PUSH 0\t\t\t\n      DUP4 \t\t\t\n      ADD \t\t\t\n      MSTORE \t\t\t\n      PUSH [tag] 344\t\t\t\n      DUP2 \t\t\t\n      PUSH [tag] 217\t\t\t\n      JUMP \t\t\t\n    tag 344\t\t\t\n      JUMPDEST \t\t\t\n      SWAP1 \t\t\t\n      POP \t\t\t\n      SWAP2 \t\t\t\n      SWAP1 \t\t\t\n      POP \t\t\t\n      JUMP \t\t\t\n    tag 130\t\t\t\n      JUMPDEST \t\t\t\n      PUSH 0\t\t\t\n      PUSH 60\t\t\t\n      DUP3 \t\t\t\n      ADD \t\t\t\n      SWAP1 \t\t\t\n      POP \t\t\t\n      PUSH [tag] 346\t\t\t\n      PUSH 0\t\t\t\n      DUP4 \t\t\t\n      ADD \t\t\t\n      DUP7 \t\t\t\n      PUSH [tag] 193\t\t\t\n      JUMP \t\t\t\n    tag 346\t\t\t\n      JUMPDEST \t\t\t\n      PUSH [tag] 347\t\t\t\n      PUSH 20\t\t\t\n      DUP4 \t\t\t\n      ADD \t\t\t\n      DUP6 \t\t\t\n      PUSH [tag] 193\t\t\t\n      JUMP \t\t\t\n    tag 347\t\t\t\n      JUMPDEST \t\t\t\n      PUSH [tag] 348\t\t\t\n      PUSH 40\t\t\t\n      DUP4 \t\t\t\n      ADD \t\t\t\n      DUP5 \t\t\t\n      PUSH [tag] 188\t\t\t\n      JUMP \t\t\t\n    tag 348\t\t\t\n      JUMPDEST \t\t\t\n      SWAP5 \t\t\t\n      SWAP4 \t\t\t\n      POP \t\t\t\n      POP \t\t\t\n      POP \t\t\t\n      POP \t\t\t\n      JUMP \t\t\t\n    tag 218\t\t\t\n      JUMPDEST \t\t\t\n      PUSH 5061796D656E74206661696C6564000000000000000000000000000000000000\t\t\t\n      PUSH 0\t\t\t\n      DUP3 \t\t\t\n      ADD \t\t\t\n      MSTORE \t\t\t\n      POP \t\t\t\n      JUMP \t\t\t\n    tag 219\t\t\t\n      JUMPDEST \t\t\t\n      PUSH 0\t\t\t\n      PUSH [tag] 351\t\t\t\n      PUSH E\t\t\t\n      DUP4 \t\t\t\n      PUSH [tag] 206\t\t\t\n      JUMP \t\t\t\n    tag 351\t\t\t\n      JUMPDEST \t\t\t\n      SWAP2 \t\t\t\n      POP \t\t\t\n      PUSH [tag] 352\t\t\t\n      DUP3 \t\t\t\n      PUSH [tag] 218\t\t\t\n      JUMP \t\t\t\n    tag 352\t\t\t\n      JUMPDEST \t\t\t\n      PUSH 20\t\t\t\n      DUP3 \t\t\t\n      ADD \t\t\t\n      SWAP1 \t\t\t\n      POP \t\t\t\n      SWAP2 \t\t\t\n      SWAP1 \t\t\t\n      POP \t\t\t\n      JUMP \t\t\t\n    tag 136\t\t\t\n      JUMPDEST \t\t\t\n      PUSH 0\t\t\t\n      PUSH 20\t\t\t\n      DUP3 \t\t\t\n      ADD \t\t\t\n      SWAP1 \t\t\t\n      POP \t\t\t\n      DUP2 \t\t\t\n      DUP2 \t\t\t\n      SUB \t\t\t\n      PUSH 0\t\t\t\n      DUP4 \t\t\t\n      ADD \t\t\t\n      MSTORE \t\t\t\n      PUSH [tag] 354\t\t\t\n      DUP2 \t\t\t\n      PUSH [tag] 219\t\t\t\n      JUMP \t\t\t\n    tag 354\t\t\t\n      JUMPDEST \t\t\t\n      SWAP1 \t\t\t\n      POP \t\t\t\n      SWAP2 \t\t\t\n      SWAP1 \t\t\t\n      POP \t\t\t\n      JUMP \t\t\t\n    tag 220\t\t\t\n      JUMPDEST \t\t\t\n      PUSH 4E487B7100000000000000000000000000000000000000000000000000000000\t\t\t\n      PUSH 0\t\t\t\n      MSTORE \t\t\t\n      PUSH 11\t\t\t\n      PUSH 4\t\t\t\n      MSTORE \t\t\t\n      PUSH 24\t\t\t\n      PUSH 0\t\t\t\n      REVERT \t\t\t\n    tag 143\t\t\t\n      JUMPDEST \t\t\t\n      PUSH 0\t\t\t\n      PUSH [tag] 357\t\t\t\n      DUP3 \t\t\t\n      PUSH [tag] 185\t\t\t\n      JUMP \t\t\t\n    tag 357\t\t\t\n      JUMPDEST \t\t\t\n      SWAP2 \t\t\t\n      POP \t\t\t\n      PUSH [tag] 358\t\t\t\n      DUP4 \t\t\t\n      PUSH [tag] 185\t\t\t\n      JUMP \t\t\t\n    tag 358\t\t\t\n      JUMPDEST \t\t\t\n      SWAP3 \t\t\t\n      POP \t\t\t\n      DUP3 \t\t\t\n      DUP3 \t\t\t\n      ADD \t\t\t\n      SWAP1 \t\t\t\n      POP \t\t\t\n      DUP1 \t\t\t\n      DUP3 \t\t\t\n      GT \t\t\t\n      ISZERO \t\t\t\n      PUSH [tag] 359\t\t\t\n      JUMPI \t\t\t\n      PUSH [tag] 360\t\t\t\n      PUSH [tag] 220\t\t\t\n      JUMP \t\t\t\n    tag 360\t\t\t\n      JUMPDEST \t\t\t\n    tag 359\t\t\t\n      JUMPDEST \t\t\t\n      SWAP3 \t\t\t\n      SWAP2 \t\t\t\n      POP \t\t\t\n      POP \t\t\t\n      JUMP \t\t\t\n    tag 221\t\t\t\n      JUMPDEST \t\t\t\n      PUSH 5265656E7472616E637947756172643A207265656E7472616E742063616C6C00\t\t\t\n      PUSH 0\t\t\t\n      DUP3 \t\t\t\n      ADD \t\t\t\n      MSTORE \t\t\t\n      POP \t\t\t\n      JUMP \t\t\t\n    tag 222\t\t\t\n      JUMPDEST \t\t\t\n      PUSH 0\t\t\t\n      PUSH [tag] 363\t\t\t\n      PUSH 1F\t\t\t\n      DUP4 \t\t\t\n      PUSH [tag] 206\t\t\t\n      JUMP \t\t\t\n    tag 363\t\t\t\n      JUMPDEST \t\t\t\n      SWAP2 \t\t\t\n      POP \t\t\t\n      PUSH [tag] 364\t\t\t\n      DUP3 \t\t\t\n      PUSH [tag] 221\t\t\t\n      JUMP \t\t\t\n    tag 364\t\t\t\n      JUMPDEST \t\t\t\n      PUSH 20\t\t\t\n      DUP3 \t\t\t\n      ADD \t\t\t\n      SWAP1 \t\t\t\n      POP \t\t\t\n      SWAP2 \t\t\t\n      SWAP1 \t\t\t\n      POP \t\t\t\n      JUMP \t\t\t\n    tag 178\t\t\t\n      JUMPDEST \t\t\t\n      PUSH 0\t\t\t\n      PUSH 20\t\t\t\n      DUP3 \t\t\t\n      ADD \t\t\t\n      SWAP1 \t\t\t\n      POP \t\t\t\n      DUP2 \t\t\t\n      DUP2 \t\t\t\n      SUB \t\t\t\n      PUSH 0\t\t\t\n      DUP4 \t\t\t\n      ADD \t\t\t\n      MSTORE \t\t\t\n      PUSH [tag] 366\t\t\t\n      DUP2 \t\t\t\n      PUSH [tag] 222\t\t\t\n      JUMP \t\t\t\n    tag 366\t\t\t\n      JUMPDEST \t\t\t\n      SWAP1 \t\t\t\n      POP \t\t\t\n      SWAP2 \t\t\t\n      SWAP1 \t\t\t\n      POP \t\t\t\n      JUMP \t\t\t\n    .data\n"
}